:02000002B0004C
:1040000000400B00F4D30B00000006000C0005027A
:0840100004011F0C0000000078
:04401800B8BE0B0023
:1040200009480A49884208B505D0094A824202D0A7
:10403000121A07F007FE0748074A0021121A07F074
:1040400029FE014808BD00BF14DA03204CCF0B0045
:1040500094DE032098DE0320F4E7032070B5074EBA
:10406000074C04F035FDA41BA4080025A54200D18F
:1040700070BD56F8043B98470135F7E718CF0B00A1
:1040800040CF0B0000F000B908B500F0D9FABDE848
:10409000084004F0D5BC04F017B804F015B804F0DB
:1040A0001BB8000008B5034A00210C2003F040FFB4
:1040B000FEE700BFB17B0B000078B0FA80F040094A
:1040C00070470123037070477047037C13F00803A7
:1040D0001EBFC36A406A1B1A002BACBF18466FF0A4
:1040E00000407047704770477047704710B5102107
:1040F000044605F0E4FB204610BD10B5342104460B
:1041000005F0DDFB204610BD103002F02BBF103053
:1041100002F0D1BE07B501220DF10701103002F007
:104120001CFE01280CBF9DF807004FF0FF3003B0C4
:104130005DF804FB103002F053BF07B501228DF883
:10414000071010300DF1070102F04AFF03B05DF8CF
:1041500004FB000038B584690A4B036005467CB156
:104160006368013B63605BB9236820469B6898479E
:10417000A368013BA3601BB923682046DB6898470E
:10418000284638BD5CCB0B000EB403B503AB002151
:1041900053F8042B019304F038FB02B05DF804EBF4
:1041A00003B0704773B5044608462279A36832B15C
:1041B000A3B90B4902B0BDE8704004F0EBBA094A5C
:1041C000267B094D0949647B012E18BF2946CDE99C
:1041D00000140749FFF7D8FF02B070BD054AEFE7AA
:1041E000DDBE0B00ABC00B00D9BE0B00D5BE0B0073
:1041F000F3BE0B00CCBE0B0010B50446FFF7AAFFC0
:1042000020461C2105F05BFB204610BD30B585B073
:104210001B4B009313798DF804309368029300F5DB
:104220008C659389ADF80C3004460A466B4600F263
:104230006C41284603F0F2F910B9002005B030BDFA
:10424000256004F23C45284602F0C2FE01212046CA
:1042500003F08FF8014668B12146284602F077FD49
:104260000028EAD094F83C3413F0700FE5D0054BE9
:104270001D60E3E7204603F07CF80028ECD1DCE782
:104280000CC20B0034E603201FB504F045FD4FF4CB
:10429000165104F02FFD04F03FFD04F032FD00281C
:1042A000F9D05048504C01F018FA4E4801F04EFA3F
:1042B0004E4B4F48197801F0DAF9206028B904F024
:1042C0002BFD4C49FFF760FFFEE703F081FC4A4BF2
:1042D000186004F021FD4949FFF756FF01210E2027
:1042E00005F034FA01210E2005F041FA444B009309
:1042F00000238DF80430434B0293434801236A4660
:104300000E21ADF80C30FFF781FF2060002864D14A
:1043100004F002FD3D49FFF737FFB9EE080A04F04B
:10432000C1FA03F0B1FE10B1002003F0B5FE04F0B5
:1043300032FB0246C317684604F0D4FA6946344893
:1043400004F09CF9684604F003F913230B22684635
:104350002F4904F0C3F969462E4804F08FF96846E6
:1043600004F0F6F80021122005F0F0F92A4B2B4852
:104370001A78022101F066FE2848012102F0E3F8D4
:104380000121264802F0E4F8244801F08FFD23487B
:1043900001F0E8FD0021052005F0D8F9204B214A65
:1043A00000241C60002313601F4A136003F010FCFC
:1043B0001E4B18601E4B1F484FF0FF321A6003F06F
:1043C00044FB1D4B1D491E481C7002F025FA03F0EA
:1043D000FFFB1C4B186004B010BD04F09DFC1A4993
:1043E00099E700BF14E60320A8E5032014DA0320B0
:1043F00078E3032010BF0B00B8DE032046BF0B009C
:104400000CC20B0080F0FA02BCDE032057BF0B0089
:10441000C8E3032000E6032015DA0320D8E30320D5
:1044200018E40320A0E50320C0E30320A4E5032053
:10443000C4E303205CE3032010E4032058E50320D9
:1044400024E403200CE4032074BF0B002DE9F743A0
:104450002B4C8146204610EE108A10EE907A0E46C4
:10446000154601F023FD40230122CDE90032002250
:1044700080231146204601F01CFF2046032207211D
:1044800002F05EF8D9F800201E492046FFF77CFEB6
:104490000D222046072102F053F8404606F012FD97
:1044A0000B46F7210246009120461749FFF76CFEA4
:1044B00017222046072102F043F8384606F002FD95
:1044C0000B46024611492046FFF75EFE2046212298
:1044D000072102F035F832460D492046FFF754FE19
:1044E00020462B22072102F02BF82A680949204692
:1044F000FFF74AFE204603B0BDE8F04301F032BDAD
:10450000D8E303208BBF0B0099BF0B00ADBF0B009E
:10451000C0BF0B00CEBF0B0010B500210446112018
:1045200005F014F90121072005F010F901210720F9
:1045300005F01DF90121082005F008F900210820E7
:1045400005F015F9ACB10121082005F010F94FF480
:10455000FA7004F03BFA0021082005F008F9112058
:1045600005F031F900210446072005F000F9204646
:1045700010BD0A2004F02AFAF1E7000040F2DB53F4
:10458000984213B50DDC00230C480093FF22194616
:1045900001F088FA0124094801F0D8F8204602B059
:1045A00010BD40F2DC539842F5D00024034800943B
:1045B0003F232246214601F075FAECE714E603207A
:1045C0002DE9F041184801F0CEFF58BB04F0A4FBE0
:1045D0001649154EDFF86080154F04F0DBF81248DD
:1045E00002F0DFFA0446C0B104F096FB214605460E
:1045F000304602F0EFF8414602462846FFF7C4FD78
:1046000004F08AFB3946FFF7BFFD304602F0F0F8B0
:1046100041F2883004F0DAF9E1E704F07DFB054966
:10462000FFF7B2FDBDE8F08124E40320E1BF0B00F9
:10463000F8BF0B0021C00B0095BF0B00000000006D
:104640002DE9F04F8FB003F0BBFA9F4B9F4C1860E1
:1046500004F0A1F90246C3170AA804F043F90AA915
:104660009B4804F00BF80AA803F072FF13230B22F7
:1046700097490AA804F032F80AA9964803F0FEFF09
:104680000AA803F065FF03F0A3FA2368C01A47F2F3
:104690003053984235D9904800F046FEF2EE027A47
:1046A00060EE277A8D4B17EE900A83ED000A06F034
:1046B00009FC8B4B002206F087FD0022894B06F097
:1046C000A3FA06F027FF884B1860834800F05CFED1
:1046D000864B814883ED000A00F0A0FE844B10EE6B
:1046E000100A83ED000A06F0EDFB6BA3D3E900236B
:1046F00006F040FC06F00EFF7E4B186003F068FAEF
:104700002060122005F05FF87B4D7C4E7C4CDFF87A
:10471000188228600023052033602370C8F8003019
:1047200005F03EF8DFF804A2DFF80492CAF80000B2
:1047300003F046FA734FC9F800004FF0010B03F085
:104740003FFAD9F80030C01A312817D82378ABB90E
:10475000052005F025F8386048B9DAF8003033B1A3
:1047600084F800B003F02CFAC8F80000E7E7CAF8B4
:10477000000003F025FAC9F80000E0E73B6863B9E0
:10478000237853B103F01CFAD8F80030C01A306017
:10479000052005F005F83860F0E75B4C32682368C7
:1047A0001344236003F014FA584B1B68C01A47F2F5
:1047B0003053984263D92068554E564F06F070FB2F
:1047C00037A3D3E9002306F0FFFC06F0A3FE306018
:1047D00006F078FB9FED341B41EC100B05F088F9D7
:1047E000306859EC108B06F06DFB31A3D3E9002340
:1047F00082468B464046494606F0BCFB5246804600
:1048000089465B465046594606F0B4FB2AA3D3E9D5
:10481000002306F0AFFB02460B464046494606F031
:10482000F1F93D4B8046894600225046594606F034
:10483000A1FB02460B464046494606F0E5F920A397
:10484000D3E9002306F0E0F906F064FE386004F0D6
:1048500063FA8046306806F035FBCDE9020138681E
:1048600006F030FBCDE900012C4922684046FFF7F5
:104870008BFC0023236003F0ABF9244B186028481D
:1048800003F010F9274B1860032857D8DFE810F021
:104890005200170119011B011FA8AED74F5A333F11
:1048A00000000000804F124100000000000008409E
:1048B0009A9999999999F13F6666666666660E407F
:1048C000D7A3703D0AD7E33FBCE30320B8DE032043
:1048D000C8E30320F0E5032078E30320ACE50320E0
:1048E0000000144000004040B0E5032014E4032021
:1048F00098E5032094E5032020E40320FCE3032053
:1049000000E40320E8E5032018E40320A4E50320E5
:10491000A0E50320C0E303200040804032C00B002C
:104920005CE30320C4E3032008E40320ECE5032058
:1049300004E403206B496C4803F0A8FE6B4C6C49FF
:10494000204603F0B5FE28B3216806A803F04BFE0D
:10495000684B2E6893ED000A674B6349D3ED000A5C
:104960008DED050A0AA8CDED040A03F07CFE314660
:10497000DDED040A9DED050A0AAA06A8FFF766FD0B
:104980000AA803F0E5FD06A803F0E2FD5848214619
:1049900003F05AFE2A68594C40F26C739A4200F3B5
:1049A0009480574B1B68012B03D10120FFF7B4FD06
:1049B00020600020FFF7B0FD2060FFF7DFFD514FC2
:1049C000514E3870FFF7FCFD03F002F93368C01A4E
:1049D0004E4B984214D904F09FF94D49FFF7D4FB90
:1049E0004C48012101F0ADFF38B904F095F94A496E
:1049F000FFF7CAFB474801F0FBFE03F0E9F830601F
:104A0000464E03F0E5F83368C01A47F23053984237
:104A100040D9404801F025FE002838D0354B1868B1
:104A200006F050FA41EC100B02213D4802F024F947
:104A3000314B186806F046FA41EC100B0221394858
:104A400002F01AF9384B186806F03CFA41EC100BEA
:104A50000221364802F010F92968354802F0FDF8C5
:104A60002168344802F0F9F81F4B3348196802F006
:104A70001FF9324B186806F025FA41EC100B0221A1
:104A80002F4802F0F9F839782E4802F0E6F803F0E2
:104A90009FF830601F4E2C4D0A21304601F0D7FEA2
:104AA000E8B1A842F8D1681D07F0A6F8144C2060C0
:104AB00004F032F922682549FFF766FBECE7244948
:104AC00039E7244937E7244935E703F081F8234BD8
:104AD0001B68C01A224B98427FF663AF65E70FB0A0
:104AE000BDE8F08F55C00B00A8DE0320F0E50320E1
:104AF00000E60320B0E5032014E4032010E60320C1
:104B00001CE4032010E4032090E50320C0D401003E
:104B10009DC00B0024E40320ACC00B009CE50320E7
:104B2000F8E4032004E5032094E5032010E50320C6
:104B30001CE5032028E5032034E50320C0E303201F
:104B400040E503204CE5032058E50320BCC00B00E2
:104B500067C00B0079C00B008BC00B0028E6032058
:104B600040771B0010B52421044604F0A8FE20461F
:104B700010BD10B5D421044604F0A1FE204610BD9E
:104B800030B56848684C85B004F0A4FC674A6849B1
:104B9000644804F08FFE6749674803F024FD634AC8
:104BA0006649654804F086FE6249654803F01BFDCE
:104BB0005E4A6249624804F07DFE5E49614803F046
:104BC00012FD5A4A5D495F4804F074FE5E48574A38
:104BD0005E4900254FF47A73C0E901535C4B0360D2
:104BE000056104F067FE53495A4803F0FCFC4F4A44
:104BF0005249584804F05EFE4FF0FF31564801F02C
:104C00003FF95649494A544804F054FE544800F0CC
:104C1000E7F86423C4F86034524B6560C4F83C5430
:104C2000C4F86854C4F87034C4F87854A4F87C54B8
:104C300001234D4D84F874342978BFF35B8F1940FC
:104C40000BD128460391FFF737FA039928B147485B
:104C500003F0CEFA2846FFF734FA444BC4F86C341C
:104C6000324A43493048434C04F024FE02230622D2
:104C70000121414800F058FD2C4A40493E4804F0CB
:104C800019FE13213E4802F0DBFE3E4B00933E49E5
:104C90003E4B40F25B72204601F018FD3C4B236016
:104CA000204BC4F8D030214A3A49204604F002FE95
:104CB0002146394A3948002301F0CAFF2146384AC3
:104CC0003848002301F0C4FF2146374A3748002303
:104CD00001F0BEFF2146364A3648002301F0B8FFF6
:104CE0002146354A3548002301F0B2FF2146344AB7
:104CF0003448002301F0ACFF2146334A33480023F7
:104D000001F0A6FF2146324A3248002301F0A0FFFD
:104D1000314A32480023214605B0BDE8304001F059
:104D2000CDBF00BF40E30320BCDE032098DE03209C
:104D300055410B00ABC00B00C8E3032051850B00AD
:104D4000F0E5032000E60320B4E50320E5400B0076
:104D500020C20B00A8DE0320D8E30320E7400B00AD
:104D600078E303200CC20B009CDE0320A0DE0320AE
:104D7000E9400B0024E4032014E6032085560B00D1
:104D80005CE3032001C10B00F1C00B00E6C00B0087
:104D9000C8C70B00EB400B0022C10B00F8E4032056
:104DA00038C10B0004E5032052C10B0010E50320BD
:104DB0006CC10B001CE5032086C10B0028E5032015
:104DC000A2C10B0034E50320BEC10B0040E5032067
:104DD000D4C10B004CE50320ECC10B0058E50320C7
:104DE0004FF0FF330361704713B50B4C2178BFF3CD
:104DF0005B8F11F001010BD120460191FFF75CF9A7
:104E0000019928B1054803F0F3F92046FFF759F955
:104E1000024802B010BD00BF9CDE0320A0DE0320CC
:104E200008B5FFF7E1FFBDE8084003F027BA07B572
:104E30000190FFF7D9FF019903B05DF804EB03F08F
:104E400037BA2DE9F04190F91330013305460F468A
:104E500006D1FFF7C9FF3946BDE8F04103F0EEBACD
:104E6000002407264FF0010895F91300002180B2B5
:104E700004F07DFC95F9110008FA06F1394080B282
:104E800004F075FC95F91300012180B204F06FFC69
:104E900095F91200640080B2E4B204F081FC08B11C
:104EA00044F00104013EDFD22046BDE8F08100005D
:104EB0007FB590F91030013304460E46154613D1E4
:104EC0000179006804F040F82068036831469B6867
:104ED00098472068036829469B689847206804B073
:104EE000BDE8704004F03BB890F9133001330CD1A9
:104EF000164B009300238DF80430154B029368463F
:104F00000123ADF80C30FFF792FF94F91000002157
:104F100080B204F02CFC06F07F012046FFF791FFE1
:104F200029462046FFF78DFF94F91000012180B239
:104F300004F01DFC94F91330013304D104B0BDE832
:104F40007040FFF76DBF04B070BD00BF0CC20B0016
:104F500020A10700F8B5DB0002F0070203F03803D8
:104F6000134343EA81139DF8186080F83C3090F8B1
:104F700040309DF81C509DF8207066F3471380F870
:104F80004030ED0090F8383007F0070705F038059D
:104F900023F03F033D4304461D4380F8385006F09C
:104FA0000702F221FFF784FF94F83820C2F3C2030E
:104FB00002F007019B0043EA411343EAD212204664
:104FC000F521FFF775FF94F83C20C2F3C20302F00D
:104FD00007019B0043EA411343EA92122046F42161
:104FE000BDE8F840FFF764BF30B590F910300133E9
:104FF00085B004460D4618D10179006803F0A4FF7E
:105000002068036829469B689847206803F0A7FF3B
:1050100021792068012203F094FF206803685B690E
:105020009847C5B2284605B030BD90F9133001331A
:105030000CD1154B009300238DF80430134B0293D1
:1050400068460123ADF80C30FFF7F1FE94F910002B
:10505000002180B204F08BFB45F080012046FFF771
:10506000F0FE00212046FFF7ECFE054694F9100003
:10507000012180B204F07BFB94F913300133D1D1CC
:10508000FFF7CEFECEE700BF0CC20B0020A1070049
:1050900008B5F321FFF7A8FF00F0010008BD0000EC
:1050A00030B590F91030013385B004460D461FD15C
:1050B0000179006803F048FF2068036829469B686F
:1050C0009847206803F04BFF21792068022203F003
:1050D00038FF206803685B699847054620680368C5
:1050E0005B69984740EA052085B2284605B030BD87
:1050F00090F9133001330CD1184B009300238DF835
:105100000430174B029368460123ADF80C30FFF7CB
:105110008EFE94F91000002180B204F028FB45F0C7
:1051200080012046FFF78DFE00212046FFF789FE13
:10513000002105462046FFF784FE40EA052085B29F
:1051400094F91000012180B204F011FB94F913309E
:105150000133CAD1FFF764FEC7E700BF0CC20B00E2
:1051600020A1070008B5FFF79BFF40BA80B208BD39
:1051700038B588210446FFF7F5FF8A21A082204632
:10518000FFF7F0FF8C21E0822046FFF7EBFF8E2136
:1051900020832046FFF7E6FF902160832046FFF73B
:1051A000E1FF9221A0832046FFF7DCFF9421E083FA
:1051B0002046FFF7D7FF962120842046FFF7D2FF35
:1051C000982160842046FFF7CDFF9A21A0842046D5
:1051D000FFF7C8FF9C21E0842046FFF7C3FF9E2114
:1051E00020852046FFF7BEFFA12160852046FFF7FE
:1051F000FBFEE12184F82C002046FFF7B3FFE321FA
:10520000E0852046FFF7F0FEE42184F830002046D8
:10521000FFF7EAFEE52105462046FFF7E5FE00F030
:105220000F0343EA05106086E6212046FFF7DCFE07
:10523000E52105462046FFF7D7FEC0F3071343EAF2
:105240000510A086E7212046FFF7CEFE84F8360041
:1052500038BD000030B590F91030013385B00446F8
:105260000D4623D10179006803F06EFE20680368C3
:1052700029469B689847206803F071FE21792068D1
:10528000032203F05EFE206803685B69984705020D
:10529000206803685B699847284305022068036813
:1052A0005B6998470543284605B030BD90F9133037
:1052B00001330CD11A4B009300238DF80430194BA5
:1052C000029368460123ADF80C30FFF7B0FD94F966
:1052D0001000002180B204F04AFA45F08001204617
:1052E000FFF7AFFD00212046FFF7ABFD00210502CF
:1052F0002046FFF7A6FD2843050200212046FFF7C0
:10530000A0FD054394F91000012180B204F02FFAAA
:1053100094F913300133C6D1FFF782FDC3E700BF14
:105320000CC20B0020A1070010B5FA210446FFF7BC
:1053300091FFB0F5000F1FD0A18A9FED117A4B00AD
:10534000C1EB2022C3EBE011B4F91630594302FB44
:1053500002F3B4F918201B1353439B1303EBE1230F
:10536000E36003EB830380331B1207EE903AF8EE01
:10537000E77A87EE870A10BD9FED020AFBE700BFC0
:105380000000C8420000C07F38B50446FFF7CCFFDC
:10539000FD212046FFF784FEB0F5004F38D0E168CC
:1053A000B4F93420A1F59635B4F932100905C1EBF2
:1053B000803305FB123303F58043DA1394F8303061
:1053C00094F936106B43DB126943891203F50043ED
:1053D0004B439B12B4F92E1003F500134B4303F516
:1053E00000539B135343DA1394F82C105243D211F9
:1053F0004A43A3EB221323EAE373B3F1C85FA8BFC8
:105400004FF0C8531B1300EE103ABAEECB0A38BD6A
:105410009FED010AFBE700BF0000C07F2DE9F843C4
:105420000546FFF781FFF7212846FFF713FFB0F588
:10543000000F00F0B680E968B5F91C304FEAE17E54
:10544000B1F5FA314EF1FF3EDC1703FB0EF201FB22
:105450000422A3FB013422441203A1FB01781C03A4
:1054600001FB0EF642EA1352B5F91E3008EB46086E
:105470004FEAE37C03FB08F607FB0C66A3FB073C43
:1054800066441B0A43EA06631B1942EB26226E8B15
:1054900002F50042A3FB063406FB0244E317621048
:1054A00053EA64044FF0000C7ED0B5F9244004FBAD
:1054B00008F64FEAE47907FB0966A4FB07473E4478
:1054C000B5F922704FEAE77807FB0EFE01FB08EE04
:1054D000A7FB01717144490441EAD73100117F04EF
:1054E0003F19C0F5801446EB010604F00040B5F901
:1054F00020101CEB070740EA5400E407E41B06EB0E
:10550000C10640F6354160EB0606A4FB010401FB31
:10551000064106F05DF9B5F92A20B5F928604FEA91
:10552000613C430B43EAC14302FB0CF7D41703FB76
:105530000477A2FB03243C4402FB0CF703FB047733
:10554000A2FB03231F44530E43EAC7131B184FEA61
:10555000E67206FB01F4864641EB676702FB0041F9
:10556000A6FB0E06B5F926403144C00C40EA413096
:1055700018184FEAE47547EBE141000A2D0140EAB3
:10558000016045EA14752401201845EB212106F03D
:10559000E1F89FED070A07EE900A27EE800ABDE8C2
:1055A000F8839FED040AFAE79FED030AF7E700BFCF
:1055B0000000803B0000C07F0000000030B50446C2
:1055C00090F91000421C85B019D1206803F08AFCC4
:1055D000D0212046FFF708FD6028A06045D1204675
:1055E000B622E021FFF764FC4FF4967003F0EEF969
:1055F0002046FFF74DFD054628B36420F6E701215C
:1056000080B204F0B4F894F91000012180B204F0E3
:105610009DF894F91300431C04D1FFF7E5FB02F059
:10562000F1FDD5E7012180B204F090F894F9110062
:10563000012180B204F08AF894F91200002180B2AE
:1056400004F084F8C4E72046FFF792FD0523009399
:105650001A4603212046CDE90155FFF77BFC642063
:1056600003F0B4F9012005B030BD0020FBE710B510
:105670000171044604F0F6F820602046BDE81040B1
:10568000FFF79CBF10B50446C06808B102F024FDC6
:1056900023781BB1E079002104F058F8204610BDB2
:1056A00038B50446C0680D4608B102F015FDA3796F
:1056B000062B0CBF0420032010FB05F080B2A08055
:1056C00002F002FDE06028B1A288002106F0E2FAB3
:1056D000658038BDA0806080FBE710B504460121DD
:1056E000C07904F033F8E079002104F040F8012398
:1056F000237010BD37B5037805460C461BB1C07941
:10570000002104F023F82B78EC715BB1A0B20121E9
:10571000019004F01BF80198002103B0BDE830406F
:1057200004F025B803B030BD70B500250446164618
:105730008371C0E9035505700572FFF7B1FF20467C
:105740003146FFF7D7FF204670BD0000C368002B2D
:1057500000F0A4812DE9F04F8379023BDBB2042BEA
:105760009CBFBF4A52F8234085B0054688BF32240B
:1057700002F026FA2B69C01AA042F9D3B94CAE88C0
:10578000D4F800351BB9D4F86035002B7EDBB64C5D
:10579000D4F8003523B9D4F86035002BC0F26E81FF
:1057A000B24CD4F80035002B00F04481EB79B04ABC
:1057B000B04C1268190102EB0313575CAE495B78D9
:1057C000D1F8FC2042F08072C1F8FC20226803F07E
:1057D0001F0343EA471301273A432260A988D5F8FB
:1057E0000C80D4F804909F40002944D04FF0000E64
:1057F00072464FF0A04118F801CB0820802663685C
:105800009B1A462BFBD96268D1F808351CEA060FB3
:1058100043EA0703C1F808352FD063689B1A282B89
:10582000FBD9D1F80C35013843EA07034FEA560695
:10583000C1F80C35E3D1AB880EF1010E1FFA8EFED4
:105840007345D8D84FF4307103FB01F163689B1A9C
:10585000462BFBD96368A3EB09098945C0F0E480B6
:105860004FF4967002F0A4F9A988D5F80C80D4F80A
:1058700004900029BAD10A46E8E763689B1A112B05
:10588000CFD863689B1A112BF7D9CAE7D4F86435CF
:10589000002BBFF67CAFD4F86835002BBFF677AF8E
:1058A000D4F86C35002BBFF672AF3601331D1846A5
:1058B000009302F009FC00283FF478AFAB88002B7E
:1058C00000F0ED80EA68013B12FA83F702F1FF3E37
:1058D000002348F2060248F20D011EF801CF1CF029
:1058E000800F0CBF93468B461CF0400F0CBF164632
:1058F0000E461CF0200F0CBF9046884603F10109AC
:10590000CDF80880019603F102081FFA89F9019E7B
:1059100020F813B01FFA88F820F81960029E20F8CA
:10592000186003F103081CF0100F1FFA88F80CBF71
:1059300093468B4620F818B003F104081CF0080FBA
:105940001FFA88F80CBF93468B4620F818B003F175
:1059500005081CF0040F1FFA88F80CBF93468B460D
:1059600020F818B003F1080A03F1060807339BB2C8
:105970001CF0020F1FFA88F80CBF93468B46CDF837
:105980000CA01CF0010F20F818B015BF20F8131060
:1059900020F813201FFA8AF3BDF80C3077459CD10C
:1059A000591C023389B29BB249005B004FF4004797
:1059B0004752009AC7522E4B56081F6800221423E4
:1059C000C4F80425C4F80C25C4F80835C4F8142517
:1059D000C4F81025C4F82005C4F82465C4F82825A7
:1059E000C4F82C25EB7907EB031C1B010121FE5C9D
:1059F0009CF8013003F01F0343EA4613C4F86035F6
:105A0000C4F80015C4F81021A160D4F81031002B9F
:105A1000FBD000234FF0FF32C4F81031C4F800353A
:105A2000C4F8602502F058FB02F0CAF8286105B0FE
:105A3000BDE8F08FD4F86035002BBFF6B7AED4F8D0
:105A40006435002BBFF6B2AED4F86835002BBFF634
:105A5000ADAED4F86C35002BBFF6A8AE25E700BF7D
:105A600040C20B0000C00140001002400020024074
:105A70002CE60320001000E000ED00E0D4F86435CF
:105A8000002BBFF68DAED4F86835002BBFF688AE7C
:105A9000D4F86C35002BBFF683AE06E770470423BD
:105AA000022183E770B544889DF810508C4222D9BA
:105AB000047A44B112FB04F214FB03F314FB05F463
:105AC000120A1B0A250AC668807901EB41010238D7
:105AD0007418062810D8DFE800F0040F08040F043B
:105AE000040073546270A57005E0FE2A28BFFE22F0
:105AF00072546570A37070BD72546370F3E7000058
:105B000008B502F00DF8014B186008BD2CE6032023
:105B1000F0B5457EBDF81440022D69D0032D00F08C
:105B20009980012D6CD10589D2432A4412B2002AF2
:105B30005DDBB0F90850954259DD0029BEBF5B1806
:105B40001BB20021B0F90A00CD188542C4BF431A28
:105B50001BB2002B4BDDC1F3C400DFF820C102EB08
:105B6000C01211F00701DBB20CEB02001AD0C1F138
:105B70000805404EEDB2AB42775D3FBFA5EB030E8B
:105B8000FF2646FA0EF637401CF80260012C0CBFC7
:105B90003E43BE43AB420CF8026028D308390B44A5
:105BA000DBB28030072B19D9012C4FF0FF3518BF1D
:105BB0000025EDB200F180011A46083AD2B2072A58
:105BC00001F8805C01F18001F7D8A3F10802C2F36B
:105BD000C402013200EBC21003F007033BB1264AB6
:105BE000D25C0378012C0CBF134393430370F0BDC8
:105BF0004589D2432A44CD180189491B12B209B202
:105C0000002AF4DBB0F90A509542F0DD0029BEBF4E
:105C10005B181BB20021B0F90870CE18BE42C4BF99
:105C20006B1A1BB2002BE2DDD010802510FB051192
:105C30001248014402F0070001228240012CD2B236
:105C40000B440CD18B42D2D011F8010B104301F858
:105C5000010CF7E7CD184189491B09B267E7D24328
:105C6000D2B28B42C3D011F8010B104001F8010CE5
:105C7000F7E700BF1EDA032016DA032026DA032036
:105C8000F0B5457EBDF81440022D34D0032D00F050
:105C90009B80012D37D1D5180289521B12B20029E1
:105CA000C0F29180B0F90A508D4240F38C80002AF6
:105CB000BEBF9B181BB20022B0F90870D618BE42B6
:105CC000C4BFAB1A1BB2002B7DDDC810802510FBB2
:105CD00005224548024401F0070001218140012CC2
:105CE000C9B2134475D19A426DD012F8010B084322
:105CF00002F8010CF7E70589C9432944D518428900
:105D0000521B09B212B200295DDBB0F908508D4276
:105D100059DD002ABEBF9B181BB20022B0F90A0051
:105D2000D5188542C4BF831A1BB2002B4BDDC2F3CA
:105D3000C400DFF8B4C001EBC01112F00702DBB2FF
:105D40000CEB01001AD0C2F10805284EEDB2AB42AF
:105D5000775D3FBFA5EB030EFF2646FA0EF63740F0
:105D60001CF80160012C0CBF3E43BE43AB420CF853
:105D7000016028D3083A1344DBB28030072B19D9CD
:105D8000012C4FF0FF3518BF0025EDB200F1800166
:105D90001A46083AD2B2072A01F8805C01F1800164
:105DA000F7D8A3F10802C2F3C402013200EBC2101B
:105DB00003F007033BB10E4AD25C0378012C0CBF01
:105DC000134393430370F0BD4589C943294409B285
:105DD00065E7C943C9B29A42F5D012F8010B0840F1
:105DE00002F8010CF7E700BF26DA03201EDA0320D1
:105DF00016DA0320F8B50D1E064614461F462DDBA5
:105E000000F0ABFBA84229DD002C27DB304600F078
:105E1000A7FBA04222DD304600F09DFB02281ED0E9
:105E2000032825D0012804D13389E2431A442C46A3
:105E300015B2002C2246B8BFE21DD210802112FB01
:105E400001550E49012204F007044B5702FA04F4ED
:105E500064B297420CBF2343A3434B55F8BD31892D
:105E600072890139E4434D1B14442DB224B2E0E79A
:105E70007389013B5B1B25461CB2DAE726DA032057
:105E800038B5402204460D46802100F08BFA064BBF
:105E90002360FF2384F8213063774FF6FF73E38399
:105EA00084F82050204638BD5CC20B0002484FF4F5
:105EB0008062002105F0EEBE26DA032007B590F8D7
:105EC000223043B10191FEF78FFF019903B05DF8D5
:105ED00004EB02F0B3BA0B46817F407F012203B08E
:105EE0005DF804EB03F086BC38B590F91D30013342
:105EF00004460D461DD090F92100012180B203F027
:105F000036FC94F91F00002180B203F030FC94F9B4
:105F10002100002180B203F02AFC29462046FFF729
:105F2000CDFF94F921000121BDE8384080B203F093
:105F30001EBC03F097FC94F91B1003F009F803F062
:105F400091FC036800219B68984703F08BFC036871
:105F500029469B68984703F085FCBDE8384002F06D
:105F6000FEBF0000F8B521210446FFF7BDFF002168
:105F70002046FFF7B9FF7F212046FFF7B5FF22211A
:105F80002046FFF7B1FF00212046FFF7ADFF0721B4
:105F90002046FFF7A9FF94F91D30294F01332AD07D
:105FA00094F92100012180B203F0E1FB94F91F0074
:105FB000012180B203F0DBFB94F92100002180B2C3
:105FC00003F0D5FB012001F0F3FD4FF48065013DA6
:105FD00017F8011B2046ADB2FFF770FF002DF6D178
:105FE000012001F0E5FD94F921000121BDE8F84010
:105FF00080B203F0BCBB002503F034FC94F91B1005
:1060000002F0A6FF03F02EFC036840219B6898472E
:1060100005F11006B6B203F025FC0368795D9B68B4
:1060200098476B1C9DB2AE42F5D103F01BFC02F009
:1060300096FFB6F5806F00D1F8BD3546DCE700BFAE
:1060400026DA032038B590F91D3001770133044674
:106050000D46C27600F0C98090F91F00012180B280
:1060600003F074FB94F92100012180B203F06EFB70
:1060700094F82230002B00F0A68094F92100012131
:1060800080B203F074FBFEF7AFFE012102F0CEF800
:10609000FEF7AAFE102102F0ABF9FEF7A5FE0021E3
:1060A00002F0D8F8FEF7A0FE02F0ACF894F9200058
:1060B000012180B203F04AFB94F92000012180B253
:1060C00003F055FB012002F081FC94F9200000212F
:1060D00080B203F04CFB0A2002F078FC94F9200017
:1060E000012180B203F043FB2046AE21FFF7FCFE06
:1060F0002046D521FFF7F8FE20468021FFF7F4FE69
:106100002046A821FFF7F0FE20463F21FFF7ECFED6
:106110002046D321FFF7E8FE20460021FFF7E4FEEA
:1061200020464021FFF7E0FE8D212046FFF7DCFEF0
:10613000012D0CBF102114212046FFF7D5FE20466B
:106140002021FFF7D1FE20460021FFF7CDFE20469B
:10615000A121FFF7C9FE2046C821FFF7C5FE204652
:10616000DA21FFF7C1FE20461221FFF7BDFE812193
:106170002046FFF7B9FE012D0CBF9F21CF212046FD
:10618000FFF7B2FED9212046FFF7AEFE012D0CBF6E
:106190002221F1212046FFF7A7FE2046DB21FFF751
:1061A000A3FE20464021FFF79FFE2046A421FFF7D3
:1061B0009BFE2046A621FFF797FE2046AF21BDE8B3
:1061C0003840FFF791BE94F91D00012180B203F021
:1061D000BDFA94F91E00012180B203F0B7FA94F8D9
:1061E0002230002B3FF462AF47E703F03BFB02F0A5
:1061F00079FE5BE72DE9F04F85B01F46BDF9388089
:10620000BDF83C30A8EB0209A7EB010AB9F1000F79
:10621000B8BFC9F10009BAF1000FB8BFCAF1000A4E
:10622000D14583460C46154604DD3A462C46474682
:106230000D469046BC4205DD2A464546904622461C
:106240003C4617463E1BB2B20092A8EB050282EA1A
:10625000E271A1EBE271C6F3C03202FA86F645455F
:10626000B4BF01224FF0FF32019176100292BC427E
:106270001CDCDBF800200393D145D2F81080C7BFA7
:10628000294622462A4621465846C047019A039B82
:10629000B61AB1B236B2002E05DA029A1544009A47
:1062A00056182DB236B2013424B2E0E705B0BDE88D
:1062B000F08F2DE9F347BDF82C800768BDF92890D1
:1062C000CDF800800446FF6916468A461D46B84749
:1062D0002368CDF8008009F1FF323244DF6951466E
:1062E0002B46204612B2B8472368CDF800809F693C
:1062F00032464B4651462046B8476B1E03EB0A0117
:106300002368CDF828809D6932464B4609B2204665
:10631000AC4602B0BDE8F047604737B5013B1344D7
:106320000468BDF8185001951BB2009364690B46D0
:10633000A04703B030BD37B5BDF818500468CDE9AB
:106340000025013B0B4464691BB2A04703B030BD7C
:106350002DE9F347BDF92890BDF82C8005469246FB
:106360000C46CE18B4420BDA2B68CDF800809F693A
:1063700021464B46524628460134B84724B2F1E73D
:1063800002B0BDE8F08713B502680191B0F90E10B4
:106390000091546AB0F90C3000221146A04702B0B7
:1063A00010BD704730B54281C2814FF0FF320024EA
:1063B000054D4261012244600560018181810461D3
:1063C0000283827630BD00BF90C70B002DE9F04FED
:1063D0002DED028B8DB007460491BDF8601005913C
:1063E000BDF864100691B0F90C1004989DF868503F
:1063F000814252DDB7F90E1091424EDD062111FBAC
:106400000504002C49DD02EBC504002C45DD03EB3F
:1064100083030B9393B2079308339BB20891002434
:106420000993052C1CBF2C4B0B9A079E16BF1B19FA
:1064300000239B5C0393049AABB20A9304FB05F31D
:1064400013FA82F31BB204EB020A08EE103AB046CC
:106450000FFA85F90FFA8AFA039BDB072FD5012D76
:106460003B681FD1D3F810B0059B32B25146384675
:10647000D847039B5B0803930A9B01369844099B0A
:10648000B6B2B3421FFA88F8E6D1089B013B01344B
:1064900013F0FF0364B20893C3D10DB0BDEC028BBF
:1064A000BDE8F08F059ACDE9009218EE101AD3F8E6
:1064B00024B00FFA88F24B463846D847D9E7DDE9D1
:1064C00005239342D5D0012D3B6803D1D3F810B0FA
:1064D000069BCAE7069AE6E78CC20B0030B50A298C
:1064E00085B0044607D1027E638A03EBC203638250
:1064F0000023238221E00D291FD0037E0293C38A4B
:106500000193838A0093B0F912200B46B0F9101062
:10651000FFF75CFF207E238A00EB400103EB410381
:10652000A17E1BB20246238239B1B4F90C106FF080
:10653000050505FB00118B42D6DC012005B030BDFE
:10654000018242827047012938BF012101767047DC
:10655000C18281827047407E7047B0F90C0070475D
:10656000B0F90E00704708B5D0F8D00003681B6B77
:106570009847003818BF012008BDF8B506460F46F9
:106580001446C4B1D6F8D00003681B6B984708B90D
:106590000020F8BDD6F8D000FA2C03682546A8BF25
:1065A000FA25DB682A463946984783B2E41A9D42A9
:1065B000A4B2E6D0ECE70120EBE72DE9F84306466C
:1065C000884691461F461D460024D6F8D000036831
:1065D0001B6B9847D0B1002D18DBD6F8D0000368AC
:1065E0001B69984760B1D6F8D00003685B6998478B
:1065F00008F804000134A4B24C4507D03D46ECE74E
:106600000A3D0A202DB202F0E1F9DEE72046BDE89E
:10661000F88370B5044600F1220596220021284631
:1066200005F038FB6168284605F074FBD4F8D0000B
:106630002289036829465E6A0023B047003818BFE4
:10664000012070BD10B50446D0F8D00003681B6B64
:10665000984720B1D4F8D0000368DB6A984701203E
:1066600010BD70B503689B6804469847C8B92046BA
:1066700000F097FA042570B1013D15F0FF050AD02E
:10668000204600F0B5F841F2883002F09FF920462C
:1066900000F087FAEFE7236820469B68BDE870406A
:1066A000184770BD13B504460846019105F03AFB42
:1066B000C0F3072323706070A31C84B201992246A3
:1066C000184605F059FB204402B010BD30B50281D8
:1066D0000A4A0B4DC0E90323039B43610023C0E931
:1066E0000051C0E92F33C0E93133C0E90633C0F8A7
:1066F000CC300384A0F8B83030BD00BFABC00B0075
:10670000D4C90B002DE9F74F164602681BB29769F2
:106710000193012205460C46B847C7B2012F019BE1
:1067200003D0002003B0BDE8F08F04F1010804F1AC
:10673000050A4FF000092A680193D2F818B04146C3
:1067400001222846D847C0B20128EAD118F8012B07
:1067500002F07F01C24501FB07994FEAC717E0D05D
:1067600012F0800F019BE6D1A8EB0404A7B2341B02
:106770002A68013C4C45D2F818A03DBF06F1FF3213
:10678000D21B92B21FFA89F241462846D047C0B2C6
:10679000384480B2C6E700002DE9F041DFF83080D0
:1067A00005460C4616461F463B469622214628467D
:1067B000FFF7A8FF48B12378B6EB131F05D002F00E
:1067C000ABFA414601F0F9FFEEE7BDE8F08100BF0A
:1067D000E4C70B000231C9B209299ABF024B53F832
:1067E00021000248704700BFF0C90B00F5C70B003D
:1067F00010B5E02380F822300146002380F82330D2
:1068000051F8223B04465B690222984723682046E0
:106810001B69BDE81040184700F1BC0230B51346B3
:1068200000F1D00453F8045B8D4209D0A342F9D1A2
:10683000002352F8044B2CB900EB8300C0F8BC10C5
:10684000012003E00133052BF3D1002030BD2DE9F9
:10685000F04F00F122098BB285B0962249460546D9
:10686000FFF750FF0646F0B195F82570009705F147
:10687000BC0A4FF0000805F1260B5AF8044B6CB126
:1068800021680191084605F04DFAB84206D10199F8
:106890003A46584605F04EFA002848D008F101085B
:1068A000B8F1050FE9D100203EE0EA1992F8260080
:1068B00092F827A04AEA002A14220021601D05F060
:1068C000E9F9009BC3F57F44FC34264405EB8808B6
:1068D000A6EB0B06B6B2152ED8F8BC0007F10401E2
:1068E00028BF1326594432464944053005F0B8F90B
:1068F000D8F8BC305E8395F8223003F00603022BF3
:1069000010D18DF80D304FEA1A238DF80E302B6818
:106910008DF80FA040228DF80C205B69042203A99A
:1069200028469847D8F8BC0005B0BDE8F08F95F828
:1069300022B00BF0060BBBF1020FB6D082468346A5
:10694000BAE72DE9F84304460D464FF0000800F180
:1069500022074FF0C009E5B1236884F8229084F83B
:1069600023805B690222394620469847064668B173
:106970004FF4FA730D2239462046FFF70DFF94F8C5
:106980002230D02B02D13046BDE8F883013DEDB274
:10699000E1E72E46F7E7000038B505460846102324
:1069A00000F8023B0C462949FFF77CFE04230370E4
:1069B00002234370AB698BB11B787BB10623437014
:1069C00095F82030012B39D10E23437095F82130F2
:1069D000012B02BF437843F0200343702B691B78DF
:1069E0001BB1437863F07F0343706B691B781BB165
:1069F000437843F040034370012383702C23C3701A
:106A0000E9680B78F3B10430FFF74CFEA96931B1A6
:106A10000B7823B1FFF746FEE969FFF743FE2969CA
:106A20000B780BB1FFF73EFE69690B780BB1FFF7EE
:106A300039FE001BC0B2831E637038BD022BC5D166
:106A40001E23C2E7037143710630DFE703C80B0062
:106A50002DE9F743054610460E469846019205F08B
:106A600061F99DF82C90BDF82870019984B2B9F1B4
:106A7000000F35D102344FEA49033046A4B243F047
:106A800030033C4400F8013BA4B2224604F07F03EB
:106A90007F2A88BF43F080037F2A00F8013B4FEA3A
:106AA000D414F2D8FFF7FEFD0346B9F1000F0CD065
:106AB000B5F8B820120A0270B5F8B8204270B5F8DF
:106AC000B82001320233A5F8B8203A4641461846AC
:106AD00005F0C6F83844801B80B203B0BDE8F083EF
:106AE0000434C8E773B59DF8186000F12205044628
:106AF000CDE9003613460A462946FFF7A9FF236869
:106B000002465B6929462046984710B9002002B02A
:106B100070BD002EFBD04FF4FA7396222946204612
:106B2000FFF7F0FD0428F1D194F822301B09042B63
:106B3000ECD1A38CB4F8B8005BBA01339BB2C31A92
:106B400058425841E3E730B585B0044610461D462B
:106B50000391029205F0E6F8DDE9022183B2009587
:106B60002046FFF7BFFF05B030BD38B51D46822374
:106B70000B70B0F8B8301B0A8B70B0F8B830CB701F
:106B8000B0F8B8300C460133A0F8B8301146201DDB
:106B9000FFF788FD00F8015B001BC0B2831E637025
:106BA00038BD2DE9F0410368DB68044698470028AA
:106BB0004BD004F1220529462046FFF7EDFE23685D
:106BC00082B25B6929462046984700283DD041F2B1
:106BD0007073962229462046FFF794FDC0B2042820
:106BE00033D1638CB3F5087F2FD194F8250010B111
:106BF00040B2BDE8F08104F1BC0704F1D00857F8B9
:106C0000043BF3B1032657F8042C29461379126884
:106C10002046FFF7AAFF236882B25B692946204617
:106C2000984790B14FF4FA73092229462046FFF79E
:106C3000B3FD30B9013E16F0FF06E4D16FF001005C
:106C4000D7E7B845DBD10020D3E74FF0FF30D0E7DE
:106C500010B5C0E90012037210BD1FB504460A2228
:106C6000084601A901F030FCD4E90001237A01AA09
:106C7000FFF769FF04B010BDD0B557EC106B90B0B2
:106C800004460B4600220949684601F035FA3246AF
:106C90003B46694605A801F02FFAD4E90001237AA2
:106CA00005AAFFF750FF10B0D0BD00BF08C80B0009
:106CB000037A0A46D0E90001FFF745BF10B503711A
:106CC0000023C0E90833C0E90A334163026043830B
:106CD000C361036310BD10B50446243000F058FAB8
:106CE00028B104F50C70BDE8104000F051BA10BD99
:106CF00038B504460D462422002104F0CBFFA560E0
:106D0000EB79102B03D0202B06D0002038BD202398
:106D100001202370A070F9E74023F9E78378016927
:106D200043F00403837000F11002806800F0E6BABB
:106D300010B5044680680A462430A16900F050FA74
:106D400020B1A38803F00F0300EB431010BD0378BC
:106D50000BB9FFF7CDBF002070472DE9F74F03783F
:106D6000044688461546002B5DD08278D1075AD557
:106D70001A072DD5C36942699B1A9D4228BF1D463B
:106D80002E464FF0000904F1100B002E00F08F800A
:106D900022786369A0689706C3F3080A4FEA532173
:106DA0001FD5006A0144A068BAF1000F42D1B6F5C0
:106DB000007F3FD3C36A99423CD0B6F5806F52D270
:106DC0000068424600F0D2FC68B34FF4007744E01C
:106DD0009B06D5D583681A894369C3EB42139BB2DE
:106DE000CBE790F8059009EA0109BAF1000F08D144
:106DF000B9F1000F05D15BB951064CBF036A236A94
:106E000023612169A06800F00EFA09EB0001CAE7CE
:106E100021695A4600F00DFA002804DBF1D12378ED
:106E200013F0700F43D1637843F0020363704FF0A7
:106E3000FF303DE0CAF50077B7424FF0000200F1A5
:106E4000240028BF374600F0CBF90028EBD000EB38
:106E50000A013A46404604F0F5FE63693B44B844F3
:106E60006361F61B91E7227892064FEA562A06D410
:106E70000279A2EB0902D2B2924528BF924699420A
:106E80004FEA4A2708D2A06853460068424600F0FD
:106E9000B5FC0028E1D1C6E753448B42F3D9243036
:106EA000019100F075F901990028ECD1BBE7A81B0E
:106EB00003B0BDE8F08F73B501220DF10701D0E9F1
:106EC00004560446FFF749FF01280ABF9DF8070052
:106ED0004FF0FF30C4E9045602B070BD2DE9F04117
:106EE0000278076904460D4662B14069884202D0C3
:106EF00019B921616561012006E0160706D5E3692D
:106F00008B420BD227610020BDE8F081910605D5A8
:106F1000A3681B89B5EB431FECD9F3E7D4F808C08D
:106F20009CF80660431E06F109016E1ECB40CE4060
:106F3000B34200D898B953064CBFDCF82030236A1E
:106F4000236104F11008002ED4D02169A0684246C4
:106F500000F06FF9002806F1FF36F4DCD2E7F61AEC
:106F6000EFE7000038B5037804460BB9012038BDBF
:106F700083785A0723D50121FFF7DAFE054628B9A1
:106F8000637843F0010363700020F0E70378E52B9A
:106F9000F6D023781B0744BFE369C361236A4383A8
:106FA000638C8382094B1B682BB100F116011830EA
:106FB00098472B8B6B82A37823F00403A370A068FF
:106FC000FFF789FE0028DBD0D0E700BF30E60320C2
:106FD00010B50446FFF7C6FF0023237010BD000064
:106FE0002DE9F047037889461907044617465BD513
:106FF00083789A0758D51B0751D46369DB43BB429A
:1070000052D3B84604F1100A6669B8F1000F00F0D7
:107010009180A0684379C6F3080513EA56260ED17D
:107020006DB92169002946D0524600F002F90028C6
:107030003ADB04D12046FFF771FE002834D02169E5
:10704000A06800F0F0F83118A06815B9B8F5007F15
:107050003FD2C5F50076464528BF4646002D36D1BD
:107060006269E3699A4234BF01220522243000F0AC
:10707000B7F8C8B1284432464946354404F0E2FD29
:10708000B5F5007F04D1A068243000F081F858B134
:10709000636933446361B144A8EB0608B4E7C1698E
:1070A000FFF71CFF0028A8D1637843F00103637049
:1070B0004FF0FF3050E0236A3BB92046FFF72EFE29
:1070C0000028F1D023692362B9E72361B7E70122E1
:1070D000CCE7B8F5806FC26A1BD390F804C0ACEB64
:1070E0000606F3B24FEA582E734528BF7346914205
:1070F0004FEA432607D31A448A4282BF4FF0FF3239
:1071000080F82450C262A5684A46286800F02DFC29
:10711000BDE7914202BF4FF0FF3380F82450C362B5
:10712000A3684A46186800F0AAFB0028BCD04FF4B8
:107130000076ADE7E269A378B24204D2E66143F09B
:107140000403A37003E0084A1268002AF7D194F9F7
:107150000230002B02DB3846BDE8F0872046FFF7FF
:1071600001FF0028F7D19FE730E6032013B504465E
:10717000084659B1019104F0D5FD23680199DB68F7
:107180000246204602B0BDE81040184702B010BDCC
:1071900037B50378DA07044620D54368816800F1E3
:1071A0000C021868019200F06AFB019A054618B9B2
:1071B0000025284603B030BD23789B0704D42378EC
:1071C00023F001032370F4E7D4E901301969014485
:1071D000186800F054FB0028F1D1E9E70125E8E741
:1071E00070B583688B4204460E46154609D0FFF7FA
:1071F000CFFF08B9002070BD6B070AD500232370AC
:10720000A660227805F003052046154300F80C5BC4
:10721000F1E7636804F10C021868314600F0A6FA41
:107220000028EBD1E6E783794069023999400844A8
:107230007047012970B505460C46164602D84FF036
:10724000FF3070BDC3698B42F9D3C379202B16D1AF
:107250008169022201EBD41100F50C70FFF7C0FF29
:107260000028ECD004F07F0450F8243023F0704361
:10727000EA699A4226BF336001200020E1E7102B23
:10728000DDD1C1F3072381690222194400F50C7096
:10729000FFF7A6FF0028D2D0E4B230F81430E7E7B9
:1072A000012938B50C46154601D8002038BDC36900
:1072B0008B42FAD3C379202B0FD18169032201EBD2
:1072C000D41100F50C70FFF78BFF0028EDD004F00F
:1072D0007F0440F824500120E8E7102BE5D1C1F3EA
:1072E000072381690322194400F50C70FFF778FF2A
:1072F0000028DAD0E4B220F81450ECE72DE9F3418D
:10730000C4688C4205460E46904601D3012701E031
:107310000C460027EB690134A34202D2C7B9EC68DE
:10732000F4E7A64214D001AA21462846FFF781FFC0
:1073300000280DDBEED0019B002BEBD107B1EC60F8
:107340006FF0704221462846FFF7AAFF074620B992
:107350000027384602B0BDE8F08116B9C8F80040F1
:10736000F7E7224631462846FFF79AFF0028F5D175
:10737000EEE7012370B50022C3604FF0FF330446EF
:10738000C27100F12406806280F82420C362C0F834
:10739000340280F83022C0F838320D46B9B10429E1
:1073A00001D9002070BD11463046FFF719FF0028B3
:1073B000F7D000EB051393F8AE315B06F1D105F180
:1073C0001B0100EB0110D0F80650002DE9D000227F
:1073D00029463046FFF704FF0028E2D0B0F80B3012
:1073E000B3F5007FDDD1037C022BDAD1C389002BFA
:1073F000D7D0417B21714B1E63710023A3710926F5
:107400000123994207D0013ECBD0A2795B00013223
:10741000DBB2A271F5E7C18A01B9416A2161C38972
:107420002B44A361B0F81120228103EB41032362B6
:10743000B0F81110490101F2FF1103EB5123636110
:10744000B0F8132002B9026AE91AA3791144D940AD
:107450004B1CE36140F6F473994202D80C23E371AC
:107460009FE74FF6F473994285BFC36A23621023E6
:107470002023E371012095E700F0CABA00F0ADBA0D
:1074800070B50E4E0D46144600F09AFB3368C01AD4
:107490000B4B984208D900F09BFB0A4B186000F098
:1074A000EBFD00F08DFB306000F092FB80B2401BE2
:1074B000A042D4BF0020012070BD00BF38E60320E9
:1074C000A0860100D8E7032038B5057A04464DB9F7
:1074D000406800F06BFA63682946187D02F047F9AE
:1074E0000123237238BD10B5037A04466BB143689B
:1074F0000121187D02F03BF96068FF21FFF7BCFF16
:10750000606800F067FA0023237210BDF8B50446E6
:107510000D46164600F05CFB87B26068FFF7AEFFD1
:10752000FF2860720ED14FF47A7239462046FFF779
:10753000A7FF0028F1D0552320462370FFF7D3FF83
:107540000020F8BDFE2801D05023F5E760683246E0
:10755000294600F047FA607208B16023ECE76068E2
:10756000FFF78CFF6068FFF789FF0120E9E770B53E
:1075700004460E4600F02CFB85B2324629462046D2
:10758000FFF77EFF30B96068FFF778FFFF28F4D17E
:10759000012070BD0020FCE7F7B5037A0192044694
:1075A0000D460BB9FFF790FF25B14FF496712046B9
:1075B000FFF7DDFF606845F04001FFF75DFF032640
:1075C00001AFB95D6068FFF757FF013EF9D2002DAA
:1075D00060680CBF95218721FFF74EFF6068FFF7B9
:1075E0004DFF0B256068FFF749FF0306607203D566
:1075F000013D15F0FF05F5D103B0F0BD70B50446AF
:107600000D46164637210022FFF7C6FF32462946AF
:107610002046BDE87040FFF7BFBF00002DE9F041F4
:1076200000250572057085724160044690461E462D
:1076300000F0CEFA41460746606800F0BBF9636887
:10764000494A1D720125DA601D822046FFF73CFF82
:1076500063682946187D02F08AF80A256068FF21D0
:10766000013DFFF709FF15F0FF05F7D163682946D3
:10767000187D02F07CF80A25002211462046FFF70B
:107680008BFF0128804618D0013D15F0FF0507D17A
:10769000202320462370FFF726FF0020BDE8F0815D
:1076A0006068FD21FFF7E8FE4FF402786068FFF79D
:1076B000E5FEB8F10108F9D1DEE74FF4D5720821F3
:1076C0002046FFF769FF052814D184F80A800025B9
:1076D000BFB22A4629212046FFF790FF0246D8B1C3
:1076E0004FF4FA6239462046FFF7CAFE0028F0D070
:1076F0004323CEE704256068FFF7C0FE013D15F087
:10770000FF056072F7D1AA2804D10223A3724FF0BB
:107710008045DDE72523BCE7A37A022B18D13A2167
:107720002046FFF739FF08B13723B2E76068FFF75B
:10773000A5FE00F0C000C02804BF0323A372606848
:10774000FFF79CFE6068FFF799FE6068FFF796FE02
:107750002046FFF7C8FE63683079B168B2891A82A3
:107760001872D960012099E790D0030038B5837A68
:10777000032B18BF490215460A4611210446FFF79C
:107780000BFF30B1302323702046FFF7ACFE0025FD
:107790000BE029464FF400722046FFF7B7FE05467E
:1077A0000028F1D02046FFF79EFE284638BD10B5D0
:1077B000837A032B0A4618BF4A0212210446FFF7B8
:1077C000EBFE30B1312320462370FFF78CFE002002
:1077D00010BD0120FCE710B500220C210446FFF784
:1077E000DBFE30B1282320462370FFF77CFE00200B
:1077F00010BD2046FFF777FE0120F9E7F8B50446F3
:1078000016461F46FFF7D3FF68B10025ABB29F4273
:1078100006EB452109D94FF400722046FFF776FEAA
:1078200001350028F2D10020F8BD2046BDE8F8401F
:10783000FFF7D1BF38B5044615464068FFF71CFE78
:107840004FF400726068294600F0E6F86068FF2196
:10785000FFF712FE6068FF21FFF70EFE6068FFF77A
:107860000DFE607200F01F00052806D05723204649
:107870002370FFF738FE002038BD0120FCE770B50B
:10788000837A032B18BF490215460A46182104467D
:10789000FFF782FE064630B1322323702046FFF701
:1078A00022FE00251FE02A46FE212046FFF7C2FFE8
:1078B0000028F3D04FF4FA612046FFF758FE054642
:1078C00008B95A23E9E732460D212046FFF764FE46
:1078D00008B12923E1E76068FFF7D0FD0028F8D15F
:1078E0002046FFF700FE284670BD13B501914FF406
:1078F000FA610446FFF73BFE019A30B95B2323701F
:107900002046FFF7F0FD002005E0FC212046FFF7B0
:1079100091FF0028F4D002B010BD10B5837A032B7C
:107920000A4618BF4A0219210446FFF735FE30B156
:10793000332320462370FFF7D6FD002010BD012021
:10794000FCE738B54FF4FA610446FFF710FE054630
:1079500030B9562323702046FFF7C5FD284638BDB1
:107960006068FD21FFF788FDF5E7F8B50446164687
:107970001F46FFF7D2FF70B10025BD4206EB45213F
:10798000204604D0FFF7B1FF28B10135F5E7BDE887
:10799000F840FFF7D6BF2046FFF7A5FD0020F8BD51
:1079A000014B01221A7070473CE60320011D00685C
:1079B00000F07EBC10B504460175006800F022FCA2
:1079C000207D012101F0C2FE207D0121BDE8104093
:1079D00001F0CDBE006800F051BC0068FF2100F04E
:1079E0002DBD000037B51346074A00920025074C0D
:1079F000006825700A46294600F026FD2378002BF2
:107A0000FCD0002003B030BDA1790B003CE6032080
:107A1000006800F013BD000037B51346064A009217
:107A20000025064C006825702A4600F00DFD2378DD
:107A3000002BFCD003B030BDA1790B003CE6032045
:107A40000022C0E904220160704710B50446008896
:107A500001F0B9FE40F21233A0F10B029A4207D8AE
:107A6000C4E90100E06000F0B3F8A061012010BD9E
:107A70000020FCE710B5044600F0AAF8A369C01A7C
:107A8000074B98420AD9D4E9043293FBF2F3E3603E
:107A900000F09EF80023C4E90433A06110BD00BFCC
:107AA00020A1070010B5836843600446008801F0F8
:107AB0008AFE2369A0601844636920610133636111
:107AC0002046FFF7D7FFD4E90112511AB1F5C87F5C
:107AD00010DCB2F52F7F0DDCE368D31A962B0BDC9C
:107AE000C82902DDB2F52F7F08D1322BCCBF02208E
:107AF000032010BD0020FCE70120FAE70220F8E790
:107B000008B5024B1B689B68019308BD680203001F
:107B100008B5024B1B68DB68019308BD68020300CF
:107B200008B5024B1B681B68019308BD2C020300BB
:107B300008B5024B1B685B68019308BD2C0203006B
:107B400008B5024B1B689B68019308BD2C0203001B
:107B500008B5024B1B68DB68019308BD2C020300CB
:107B600008B5024B1B681B69019308BD2C0203007A
:107B700008B5024B1B685B69019308BD2C0203002A
:107B800008B5024B1B681B6B019308BD2C02030058
:107B900008B5024B1B685B69019308BD6C020300CA
:107BA00008B5024B1B685B68019308BD180203000F
:107BB00008B5024B1B68DB68019308BD180203007F
:107BC00008B5024B1B681B69019308BD180203002E
:107BD00008B5024B1B685B69019308BD18020300DE
:107BE00008B5024B1B689B6D019308BD180203008A
:107BF00008B5024B1B685B6E019308BD18020300B9
:107C000008B5024B1B685B6C019308BD480203007A
:107C100008B5024B1B689B6C019308BD480203002A
:107C200008B5024B1B685B69019308BD6402030041
:107C300008B5024B1B681B6A019308BD6402030070
:107C400008B5024B1B689B6A019308BD64020300E0
:107C500008B5024B1B681B68019308BD3C0203007A
:107C600008B5024B1B68DB68019308BD3C020300AA
:107C700008B5024B1B681B69019308BD3C02030059
:107C800008B5024B1B685B69019308BD3C02030009
:107C900008B5024B1B689B69019308BD3C020300B9
:107CA00008B5024B1B68DB69019308BD3C02030069
:107CB00008B5024B1B681B6A019308BD3C02030018
:107CC00008B5024B1B689B6A019308BD3C02030088
:107CD00008B5024B1B68DB68019308BD280203004E
:107CE00008B5024B1B689B69019308BD280203007D
:107CF00008B5024B1B68DB69019308BD280203002D
:107D000008B5024B1B681B6A019308BD28020300DB
:107D100008B5024B1B685B6A019308BD280203008B
:107D200008B5024B1B689B6A019308BD280203003B
:107D300008B5024B1B68DB6A019308BD28020300EB
:107D400008B5024B1B681B6B019308BD280203009A
:107D500008B5024B1B685B6B019308BD280203004A
:107D600008B5024B1B681B6C019308BD2802030079
:107D700008B5024B1B681B6D019308BD2802030068
:107D800008B5024B1B689B69019308BD38020300CC
:107D900008B5024B1B68DB69019308BD380203007C
:107DA00008B5024B1B681B6A019308BD380203002B
:107DB00008B5024B1B689B6A019308BD380203009B
:107DC00008B5024B1B681B6B019308BD380203000A
:107DD00008B5024B1B689B6B019308BD380203007A
:107DE00008B5024B1B681B68019308BD30020300F5
:107DF00008B5024B1B689B68019308BD3002030065
:107E000008B5024B1B68DB68019308BD3002030014
:107E100008B5024B1B681B69019308BD30020300C3
:107E200008B5024B1B685B69019308BD3002030073
:107E300008B5024B1B68DB69019308BD30020300E3
:107E400008B5024B1B681B6A019308BD3002030092
:107E500008B5024B1B685B6A019308BD3002030042
:107E600008B5024B1B689B6A019308BD30020300F2
:107E700008B5024B1B689B6B019308BD30020300E1
:107E800008B5024B1B68DB6B019308BD3002030091
:107E900008B5024B1B681B6C019308BD3002030040
:107EA00008B5024B1B685B6C019308BD30020300F0
:107EB00008B5024B1B681B68019308BD4C02030008
:107EC00008B5024B1B685B68019308BD4C020300B8
:107ED00008B5024B1B681B69019308BD4C020300E7
:107EE00008B5024B1B685B69019308BD4C02030097
:107EF00008B5024B1B689B69019308BD4C02030047
:107F000008B5024B1B68DB69019308BD4C020300F6
:107F100008B5024B1B681B6A019308BD4C020300A5
:107F200008B5024B1B685B6A019308BD4C02030055
:107F300008B5024B1B685B6B019308BD6002030030
:107F400008B5024B1B681B6D019308BD600203005E
:107F500008B5024B1B681B68019308BD2002030093
:107F600008B5024B1B685B68019308BD2002030043
:107F700008B5024B1B685B69019308BD2002030032
:107F800008B5024B1B689B6D019308BD20020300DE
:107F900008B5034B1B68D3F88830019308BD000077
:107FA0002002030008B5034B1B68D3F894300193FB
:107FB00008BD00002002030008B5024B1B685B6887
:107FC000019308BD4002030008B5024B1B689B6883
:107FD000019308BD4002030008B5024B1B68DB6833
:107FE000019308BD4002030008B5024B1B681B69E2
:107FF000019308BD4002030008B5024B1B685B6992
:10800000019308BD4002030008B5024B1B689B6941
:10801000019308BD4002030008B5024B1B68DB69F1
:10802000019308BD4002030008B5024B1B681B6AA0
:10803000019308BD4002030008B5024B1B681B6B8F
:10804000019308BD4002030008B5024B1B685B6B3F
:10805000019308BD4002030008B5024B1B681B6C6E
:10806000019308BD4002030008B5024B1B685B6C1E
:10807000019308BD4002030008B5024B1B689B68D2
:10808000019308BD4402030008B5024B1B685B69FD
:10809000019308BD4402030008B5024B1B68DB6A6C
:1080A000019308BD4402030008B5024B1B681B6B1B
:1080B000019308BD4402030008B5024B1B68DB6B4B
:1080C000019308BD4402030008B5024B1B681B68FE
:1080D000019308BD1C02030008B5024B1B685B68D6
:1080E000019308BD1C02030008B5024B1B689B6886
:1080F000019308BD1C02030008B5024B1B68DB6836
:10810000019308BD1C02030008B5024B1B681B69E4
:10811000019308BD1C02030008B5024B1B685B6A93
:10812000019308BD1C02030008B5024B1B68DB6B02
:10813000019308BD1C02030008B5024B1B681B6CB1
:10814000019308BD1C02030008B5024B1B685B6C61
:10815000019308BD1C02030008B5024B1B68DB6CD1
:10816000019308BD1C020300002240681146FFF77E
:108170005BBF002240681146FFF766BF40680022DF
:10818000FFF75ABF4068002281F00101FFF744BFAA
:10819000002340681A461946FFF736BF002340689F
:1081A0001A461946FFF728BF002240681146FFF71C
:1081B0001BBF002240681146FFF706BF406800223F
:1081C0000221FFF709BF002340681A46FFF7F4BEFB
:1081D000024B03225A60024A1A60704740E60320AD
:1081E00020CA0B000021FFF75BBE0021FFF750BE45
:1081F00010B5044608462170FFF71AFE002363609D
:10820000204610BD13B504460078FFF7EEFF58B9BD
:10821000207801904FF6FF71FFF7E2FD019802B060
:10822000BDE81040FFF7DEBF02B010BD13B5044635
:1082300000780191FFF7D9FF019948B920780190A2
:10824000FFF7D6FD019802B0BDE81040FFF7CABFA6
:1082500002B010BD13B5044600780191FFF7C5FFC9
:10826000019948B920780190FFF7CAFD019802B042
:10827000BDE81040FFF7B6BF02B010BD0078FFF7B1
:10828000B1BF0000400830B518600024186888426B
:10829000E5B206D90134082C02D040081860F5E791
:1082A0000725024B5B5D137030BD00BF54CA0B0045
:1082B0002DE9F04306468FB000780C46FFF795FF96
:1082C00000281BDB35781422002109A803F0E2FC0A
:1082D0000B23002209A92846ADF82430FFF7B8FD8A
:1082E0009DF82D3013B19DF82C5055B10027B9469B
:1082F000B846012523795DB1C3B100200FB0BDE8B8
:10830000F083DDF830809DF834909DF83570F1E70A
:10831000002B35D1A368434508D18DF820908DF806
:108320002170BDF82020A3899A42E6D00023A168DD
:108330008DF80F300A9804AB0DF10F02FFF7A2FF82
:10834000217985B989B9A36843450ED38DF820906A
:108350008DF82170BDF82020A3899A4205D1049B95
:10836000434502D1C9E70029F9D100230193637B7A
:1083700000939DF80F20237B3078FFF781FDBCE749
:10838000CDE900552B462A460121F5E72DE9F041BC
:1083900088B000230446007802930E461746FFF784
:1083A00024FF054600BB94F800800146142203A870
:1083B00003F070FC0B232A4603A94046ADF80C30AD
:1083C000FFF746FD04988DF8075002AB0DF1070248
:1083D00007FB06F1FFF756FF20789DF80710FFF71F
:1083E00017FD2078FFF7FEFE029808B0BDE8F08187
:1083F00038B5044600780D46FFF7F7FE0346D0B9BE
:10840000616899B10C4A12F8010B854202D0013320
:10841000082BF8D10133DBB20122D9402046FFF707
:10842000B5FF2078BDE83840FFF7DCBE207829464C
:10843000FFF7EEFCF5E738BD54CA0B0008B500782D
:10844000FFF7EEFCC0B208BD30B587B004460A9D08
:1084500000950078FFF704FD3DB9207802A9FFF7E9
:1084600007FD9DF81430DB07F7D407B030BD10B519
:108470000446006818B1FFF72FFE0023236010BDEB
:1084800010B50446FFF7F3FF204610BD10B5094BA9
:10849000094C02221A600020084BA360C4E90000C6
:1084A000FFF75EFD2046064A0649BDE8104001F090
:1084B00001BA00BF54E6032048E603200000FFFF96
:1084C00098DE032081840B002DE9F041931E8CB0CF
:1084D000222B4FF000030D4614468DF82C3027D97F
:1084E00000282ADA2E462D2306F8013B40420A24B2
:1084F0000DF12B074FF001082246014601A803F0B9
:108500008DFB029B0198092BCCBF3722302252FAF7
:1085100083F307F8013908F101080028ECD142463D
:10852000791C304603F08EFB28460CB0BDE8F08184
:108530000A2AD5D018B12E46DAE70A24FAE7302302
:108540008DF82B302E460DF12A074FF00208E6E792
:1085500010B504460068FFF7BFFD204610BD10B5FA
:108560000446006808B1FFF7B7FD0023C4E90133F2
:10857000236010BD38B504460D4600680131FFF791
:10858000B3FD10B1C4E90005012038BD10B5036882
:10859000044623B143688B4201D3012010BD20461D
:1085A000FFF7E8FF0028F9D0A368002BF5D1226877
:1085B0001370F2E737B50D46114601920446FFF7F6
:1085C000E5FF019A28B92046FFF7C9FF204603B00E
:1085D00030BDA2602946206803F034FB2268A368FE
:1085E0000021D154F2E7002313B5C0E9003304465B
:1085F0008360037341B10846019103F093FB019935
:1086000002462046FFF7D6FF204602B010BD38B51F
:10861000054600680C4668B16A688B689A4207D3C1
:10862000096803F077FBA368AB600023A36038BD43
:10863000FFF752FD23682B6063686B60A368AB6033
:108640000023C4E90033F1E7884210B5044605D0A1
:108650000B682BB18A681946FFF7ACFF204610BDA6
:10866000FFF77DFFFAE710B500230446C0E90033A9
:1086700083600373FFF7E8FF204610BD884210B502
:10868000044601D0FFF7C3FF204610BD13B50446D2
:1086900059B10846019103F045FB01990246204675
:1086A000FFF788FF204602B010BDFFF758FFF9E73B
:1086B00002680B46096862B141B9806860B1107800
:1086C0007047986840B1097848427047104603F0F7
:1086D00017BB0029F5D1084670470000F8B59A424B
:1086E0000F461D460C4988BF13461446064684BFF4
:1086F0002C461D46FFF777FFBB68A3420AD33968B3
:10870000AB4294BFC4EB0302C4EB050221443046E4
:10871000FFF750FF3046F8BDABC00B0010B5044664
:10872000006808B1FFF774FA204610BD10B58368E1
:10873000044613B1032201469847204610BD0000AD
:1087400010B5064C002320462360FFF759FA204657
:10875000034A0449BDE8104001F0ACB858E60320D4
:1087600098DE03201D870B00F8B506460D468F18CE
:108770000024BD420CD0336815F8011B9B683046BD
:108780009847031E01DB1C44F3E7002C08BF1C467E
:108790002046F8BD08B5FEF7E9FC08BD03689B68F4
:1087A000184738B50D210546FFF7F8FF0A210446A2
:1087B0002846FFF7F3FF204438BD38B50546FEF7DD
:1087C000D5FC04462846FFF7ECFF204438BD30B501
:1087D0008BB00023012A8DF8243098BF0A2209ACFF
:1087E0000D46B1FBF2F101FB125303F0FF03092B1D
:1087F00094BF30333733DBB2AA4204F8013DEFD9DE
:108800002146FEF7B3FC0BB030BD2DE9F04186B038
:1088100000AF05460E46381D142114463B60FFF795
:108820007BFC13280ED8391D2846FEF79FFC044612
:108830001EB12846FFF7B5FF044420461837BD4651
:10884000BDE8F08100F1080323F00703E846ADEB33
:10885000030D2246411C3B686846FFF75DFC6946F4
:108860002846FEF783FC0446C546E1E7002340683E
:108870001A461946FFF7C0BB014B024A1A607047FF
:108880005CE6032064CA0B0008B50020FFF70CFC6F
:1088900028B1FFF7F9FB80F00100C0B208BD01204C
:1088A000FCE70000FAEE087AB4EEE70AF1EE10FAFF
:1088B00008B511D4F2EE0C7AB4EEE70AF1EE10FA34
:1088C0000ADCDFED067A60EE277A17EE900A02F0F6
:1088D000CFFF034BC3E9000108BD00BF00006145A5
:1088E00070E6032030B593B0CDE90023194B044660
:1088F000D3E90010019B521843EB00031648D0E95E
:108900000010521843EB0003CDE9002324220DEBA5
:108910000200002103F0BEF9002509A96846FFF70F
:108920001BFC1622294603A8029503F0B3F902A9FD
:1089300009A803F03BF902A803F0F4F912AB1844BC
:1089400002A900F8415C2046FFF74DFE204613B017
:1089500030BD00BF70E6032068E6032010B500209C
:10896000FFF73EF90446A0B9FFF7F2FA012810D14B
:108970002046FFF705FB60B9FFF786FF10B9FFF748
:108980007BFBF9E7FFF780FFBDE810400020FFF711
:1089900027B9204610BD1FB5FFF7E0FF10220021C8
:1089A000684603F077F900216846FFF721F900983F
:1089B00005B05DF804FB0000024B1A68024B1A6018
:1089C000704700BF28DE032060E603200021FFF788
:1089D000CFBA10B50446FFF7A9FE204610BD00002F
:1089E0000348044A04490023836000F063BF00BFCA
:1089F00078E6032098DE0320D3890B00014B186032
:108A0000704700BF30DE032008B50B4B43B100F0C8
:108A100083F903681B699847002801DDAFF30080E4
:108A2000064B43B100F0F6F903681B69984700282C
:108A300001DDAFF3008008BD000000000000000071
:108A400008B5FFF7E1FFFFF7C3F8014B186008BD59
:108A5000D8E703200548064A064908B5121A03F06C
:108A6000F1F8054B054A1A6008BD00BF00F4032069
:108A700004F4032048CF0B0000F403201E1C279AA7
:108A800007B5002300931A466FF07701FFF78AFAC3
:108A900003B05DF804FB000007B543880A2B08D03B
:108AA000502B0BD1094B1B684BB103B05DF804EBA5
:108AB0001847FFF7E5FF03B05DF804FB00230093C0
:108AC0001A466FF07701FFF76DFAF4E78CE60320A2
:108AD00010B512480021FFF737FB114B1A68114BF4
:108AE0009A42114B0CBF012200221A7001D0FFF7ED
:108AF000B1FFFFF755F8044603F0D4F80B4B13B160
:108B00002046AFF3008000210848FFF7D5FABDE802
:108B1000104007480021FFF73BBA00BFFD890B005A
:108B200000F403201E1C279A88E6032000000000A2
:108B3000998A0B00704710B51821044600F0BFFE5B
:108B4000204610BDF0B5037D062B8DB00E4600F11A
:108B500004074FF0000412D000F1080515F8011DBC
:108B60000A223046FFF733FEAF42044419D0002CEE
:108B7000F4D02E213046FFF711FE0444EEE72F23F8
:108B80006A4639460A208DF80040FFF749F86846E2
:108B900003F0C8F833680246DB68694630469847F8
:108BA000044620460DB0F0BD10B5054B0446112219
:108BB00040F8043B002103F06DF8204610BD00BFD3
:108BC0008CCA0B000346074A10B543F8042B01F189
:108BD000100251F8044B43F8044B9142F9D10A7842
:108BE0001A7010BD8CCA0B00037D042B04D14068A1
:108BF000003818BF01207047062B07D143683BB9E6
:108C000083682BB9C3681BB90069F1E7002070477E
:108C10000120704710B59DF8084044EA032343EA59
:108C2000024242EA016104234160037510BD000065
:108C300007B5064B0360CB7800938B784A780978A8
:108C4000FFF7E8FF03B05DF804FB00BF8CCA0B0020
:108C500041747047704708B50021007CFFF748F960
:108C600040EAE07008BD08B50121007CFFF740F93B
:108C700040EAE07008BD08B5007CFFF731F920EA52
:108C8000E07008BD08B5007CFFF722F920EAE0702B
:108C900008BD13B50446007C0191FFF721F90028B7
:108CA000019901DC607C20B1207CFFF729F920EAE2
:108CB000E07002B010BD007CFFF72AB910B5142196
:108CC000044600F0FCFD204610BD000010B54FF436
:108CD0007A73044608460021C4E90113044B23605B
:108CE0000123207463741146FFF7E2F8204610BD9B
:108CF000A0CA0B00007C0022FFF7E2B8007CFFF75F
:108D00000FB9FFF7FBBF10B514220446002102F093
:108D1000C1FF204610BD000010B5104C88B003A85C
:108D2000FFF7F1FF2178BFF35B8F11F0010111D143
:108D300020460191FBF7C0F9019958B103AA0848F0
:108D4000FFF7C4FF2046FBF7BCF9064A0649044872
:108D500000F0B0FD024808B010BD00BF90E603204F
:108D600094E6032098DE0320558C0B007047417475
:108D7000704708B5007CFEF7A3FF20EAE07008BD4D
:108D800008B5007CFEF774FF20EAE07008BD08B566
:108D9000007CFEF77DFF40EAE07008BD08B5007C6E
:108DA000FEF76EFF40EAE07008BD007CFEF778BF7A
:108DB00037B5457C04462DB1207C03B0BDE830407A
:108DC000FEF74EBF007C0191FEF77AFF0028019963
:108DD000F2DC284603B030BD10B51421044600F083
:108DE0006EFD204610BD000010B54FF0000C04468B
:108DF000084611464FF47A72C4E901C2044A22605F
:108E00000122207462741A46FEF722FF204610BD2C
:108E1000D0CA0B0013B50E4C2178BFF35B8F11F055
:108E2000010112D120460191FBF746F9019960B189
:108E3000084A094B0948FFF7D7FF2046FBF741F9DD
:108E4000074A0849054800F035FD044802B010BD46
:108E5000A8E60320ACE6032030E70320B4E70320B4
:108E600098DE03206D8D0B007047F8B50646154659
:108E70000C468F18BC4206D0336814F8011B9B685F
:108E800030469847F6E72846F8BD007C0022FEF7FA
:108E900037BF007C0021FEF73BBF007C0021FEF7BE
:108EA0003FBF007C0021FEF743BF007C0021FEF79E
:108EB00047BF10B51421044600F001FD204610BD47
:108EC00010B54FF47A73044608460021C4E9011333
:108ED000034B236020741146FEF742FF204610BD6D
:108EE00000CB0B000023007C1A461946FEF7F0BEAB
:108EF0007FB500221423CDE90122ADF804300B78B0
:108F00008DF808304B680393CB680493007C0B7A90
:108F1000059301A9FEF72CFF07B05DF804FB1FB510
:108F2000003B8DF800104FF06401039118BF01233E
:108F3000694601928DF80830FFF7DAFF05B05DF859
:108F400004FB0123FFF7EBBF007C0022FEF7C8BE45
:108F5000C9B2FFF7F9BF007C0022FEF7C9BE0121AC
:108F6000FFF7F9BF13B503688DF80710DC6B01221A
:108F70004FF0FF330DF10701A04702B010BD10B450
:108F80000368DC6B4FF0FF33A4465DF8044B604789
:108F900013B5134602688DF80710D46B0DF1070165
:108FA0000122A04702B010BD10B54369B3F8862076
:108FB000B3F884309A42044608D06369B3F8842039
:108FC000511CA3F884101344187910BD03681B6961
:108FD00098470028F1D14FF0FF30F6E7704743691A
:108FE0001868C043C00F704770470000064B994295
:108FF00010B500F10C0405D0084600F065FC00280F
:1090000008BF0024204610BD5CCA0B0010B5AC217F
:10901000044600F054FC204610BDAC2100F04FBCCB
:109020002DE9F0414FF0000886B01C46C0F80480DE
:1090300005460E4617464146102202A802F02AFEB7
:10904000631C09D04FF47A73B4FBF3F203FB1244B0
:10905000CDE902285C4304946869102300930068FA
:1090600002AB41F2050240F6FF71FEF789FE0028CF
:1090700007DAFFF759F803686B60002006B0BDE817
:10908000F0816869002300683A463146FEF798FE91
:10909000031EEEDB1846F1E730B587B0044601AD9C
:1090A0006846FFF7C5FD0FCD04340FC42B6823704D
:1090B00007B030BD70B54D69054B04468C3544F89A
:1090C000043B06460FCD0FC42B682370304670BD9D
:1090D0008CCA0B002DE9F0439846036893B00D4607
:1090E0000024DB6A06461746984728466B46224608
:1090F00021460094FEF70CFD0546002863D1009B35
:10910000002B4BD05B69002B48D006A8FFF74CFD25
:10911000009B5C696378022B04D1211D06A8FFF730
:10912000BBFF26E00A2B24D11122294601A802F018
:10913000B1FDA368002B38D004F108030DF1040C35
:10914000183418685968624603C20833A34294462B
:10915000F7D1062301A90CA88DF81430FFF732FDD2
:109160000DF1340CBCE80F0007AC0FC4DCF8003084
:10917000237006A8FFF738FD80B1336807ADD3F838
:109180002090124B0C930FCD0DAC0FC42B682370A5
:109190003A4643460CA93046C84705460098FEF7B4
:1091A000AFFC284613B0BDE8F083E368002BC3D1C1
:1091B0004FF6FF70D4F81090FEF73AFD8145BBD111
:1091C00004F11401AAE72546E8E700BF8CCA0B00AA
:1091D00038B543691A68002A054610DAB3F88620C4
:1091E000B3F884309A420AD103681B699847044651
:1091F00028B92B682846DB6A9847204638BD0120ED
:10920000FCE710B54369B3F88620B3F884309A427E
:10921000044605D06369B3F884201344187910BD5F
:1092200003681B6998470028F4D14FF0FF30F6E738
:10923000F8B543691746B3F88620B3F884309A42EC
:1092400005460E4616D06969B1F88430B1F88640FB
:10925000E41ABC4228BF3C46043322461944304637
:1092600002F0F0FC6A69B2F884302344A2F884303A
:109270002046F8BD03681B6998470028E3D14FF0EA
:10928000FF34F5E742690023A2F884304269A2F86E
:10929000863070472DE9F0411F4603680C46DB6AB3
:1092A0008AB0054616469847237DD5F81480042BCE
:1092B0000CBF02200A2006220121FEF789FDC8F812
:1092C00000006B691B68002B08DA2B682846DB6AF4
:1092D0000024984720460AB0BDE8F0812846FFF7F1
:1092E000D1FFB7B1002303A9F8B20393ADF8103052
:1092F000FEF74EFC0028E8D1686906230093006859
:1093000003AB41F20B0240F6FF71FEF739FD002876
:10931000DBD11C22002103A802F0BCFC237D042B1E
:109320001DD14FF407733046ADF80C30FEF788FCC2
:10933000ADF80E006068FEF77BFC04906B691C22A0
:10934000186803A9FEF72CFD0028BED104340FCC09
:109350006D698C350FC523682B700124BAE740F680
:109360001C233046ADF80C30FEF76AFC05AEADF8B4
:109370000E00231D04F1140718685968324603C211
:109380000833BB421646F7D1D8E7000030B5426932
:10939000B2F886308BB004462BB1B2F884209A42E2
:1093A00001D1FFF76FFF61690868002818DBB1F889
:1093B00086507F2D14D804310823C5F1800229443A
:1093C000FEF7F6FC002813DD6369B3F886200AB9BE
:1093D000A3F884206369B3F886201044A3F88600BC
:1093E0006369B3F88600B3F88430C01A0BB030BD9F
:1093F000FEF79AFE03680B2BF2D0FEF795FE03688A
:109400000B2BEDD020230025CDE90235FEF78CFE95
:1094100003680193084B0949009302AA2B463220A6
:10942000FEF78EFD63691868FEF7B2FC63694FF0C2
:10943000FF321A60D4E700BF27CB0B0020CB0B0014
:1094400010B5436904461868002801DBFEF7A0FC4C
:1094500063694FF0FF321A606069112200218C307D
:1094600002F018FC2046BDE81040FFF70BBF10B516
:10947000002304460160C0F884308830FFF794FB75
:10948000204610BD73B500234FF47A72C0E9013253
:109490000E4A0361026043610446AC200191FAF771
:1094A000FAFD051E05F10C0608D00123C5E90133BC
:1094B000074B01992B603046FFF7D9FF2046C4E9DE
:1094C0000565FFF7DFFE02B070BD00BF5CCB0B008F
:1094D00040CB0B0010B54FF0FF310446FFF7D2FF31
:1094E000204610BD10B504460068002801DBFEF7D9
:1094F0004FFC204610BD0C30FFF7F4BF002240683F
:109500001146FEF771BD002240681146FEF78CBD82
:10951000002240681146FEF797BD40680022FEF722
:109520008BBD4068002281F00101FEF775BD00236C
:1095300040681A461946FEF767BD0022406811468A
:10954000FEF742BD406800220221FEF745BD002320
:1095500040681A46FEF730BD024B04225A60024AA8
:109560001A607047C8E70320A8CB0B0000234068AF
:109570001A46FEF721BD406800220221FEF72CBDED
:10958000002240681146FEF71FBD002240681146C8
:10959000FEF72ABD002340681A461946FEF72CBD87
:1095A000002340681A461946FEF72EBD4068002188
:1095B000FEF752BD40680021FEF756BD406800220C
:1095C00081F00101FEF728BD40680022FEF734BD9E
:1095D000002240681146FEF737BD00224068114660
:1095E000FEF722BD2DE9F04395B014460D4607461F
:1095F000FFF7DAFA00211C220DA8009102F04AFBC5
:1096000040230C9320466B460CAA0021FEF780FAFB
:10961000044600284BD1024601216868FEF7E4FCAD
:109620000221804622466868FEF7DEFC009E8146E5
:109630002146002E3BD0002939D17368022B03D07C
:109640000A2B11D0F669F4E7B8F1000FFAD071696E
:1096500006A8043107ADFFF7EBFA0FCD3C1D0FC490
:109660002B6823704146EDE7B9F1000FEAD0746929
:10967000102201A802F00EFB06238DF8143001AD74
:1096800004F108031834186859682A4603C20833DD
:10969000A3421546F7D101A906A807ADFFF792FA34
:1096A0000FCD3C1D0FC42B6823704946CAE70098B4
:1096B000FEF726FA384615B0BDE8F083024B034AA0
:1096C0001A6000225A607047D0E70320E4CB0B00F9
:1096D000232813B502D9002002B010BDA0F10B035E
:1096E000022B1AD8174C2178BFF35B8F11F00101C0
:1096F0000BD120460191FAF7DFFC019928B11248FD
:10970000FEF776FD2046FAF7DCFC0F4B1878FEF7E3
:1097100097FB0028DFD10120DEE7012809D800F0FF
:10972000A1F80021007CFEF713FB80F00100C0B21D
:10973000D2E709380128EED8FFF76CFB007CFEF772
:10974000B7FAF2E79CDE0320A0DE0320232838B519
:1097500004460D460AD8FF2908D0FFF7B9FF28B103
:1097600029462046BDE83840FEF7EAB938BD38B58D
:1097700004460D46FEF7ECF9FF2810D0062804D861
:109780004D2323FA00F0C30709D42046FFF7A0FFBA
:1097900028B129462046BDE83840FEF7E1B938BD7A
:1097A00010B50446FEF7D4F9031FDBB2012B08D92C
:1097B0002046FFF78DFF20B12046BDE81040FEF7A0
:1097C000D7B9002010BD0D2810B504469CBF0E343B
:1097D000A4B22046FFF77CFF50B103212046FEF7DC
:1097E000A7F9032804D12046BDE81040FEF7C8B908
:1097F000002010BD2DE9F04190461F460724064683
:109800000D46C4F10701B8F1000F12D147FA01F17A
:1098100001F001013046FFF7AAFF01212846FFF7BA
:10982000A6FF00212846FFF7A2FF013CE9D2BDE8D0
:10983000F08147FA04F1EBE738B5202514230446FC
:109840000360856005610649284600F03AF804493E
:109850006060284600F035F8E060204638BD00BF63
:1098600018CC0B0030B50F4D2978BFF35B8F11F08A
:10987000010487B013D12846FAF71EFC78B101A87D
:10988000FFF7DAFF01AA21460748FFF719FB284630
:10989000FAF717FC054A0649034800F00BF802489E
:1098A00007B030BDDCE70320E0E7032098DE0320AB
:1098B000698E0B000B460146184602F0A1B9FAF773
:1098C000EEBBFAF7EABB0000014900F0F9B800BFAF
:1098D00034CC0B007FB500241023CDE9023403689B
:1098E00015469E6912686B46CDE90044B0479DF865
:1098F000043003F00603062B03BF009B2B600120FE
:10990000204604B070BD0098904214BF012006208C
:109910007047000010B5034B0360044600F0CDF81B
:10992000204610BD74CC0B0010B50446FFF7F2FFC3
:1099300020460821FFF7C3FF204610BD2DE9F04166
:109940001F46DDE90834DDF81880984506461546BF
:1099500007D1079900F0B4F818B165710020BDE88F
:10996000F0813946304600F0ABF80028F6D00123EC
:10997000C4F800802571A371F0E738B515461C4680
:1099800000F09EF820B10823E360062325602371D0
:1099900038BD73B505460C4601921E4600F090F89E
:1099A00050B9032E08D82368019A5B6929462046DE
:1099B00002B0BDE87040184702B070BD10B5034B4F
:1099C00003600446FFF7A6FF204610BDD4CC0B0071
:1099D00010B50446FFF7F2FF20460C21FFF76FFF9A
:1099E000204610BDF7B5089F974205460E4614461F
:1099F0000AD0A86802680897156A31462246AC4624
:109A000003B0BDE8F04060471946019300F058F8F4
:109A1000019B0028EDD0062003B0F0BD2DE9F14FE9
:109A20000D461946DDE90A4BDDE90CA681461746CD
:109A3000984600F045F890B1002D3460377109DB8D
:109A400061198A450CBF06210121B171002001B0C6
:109A5000BDE8F08F0235F9D10123B371F6E7544523
:109A600006D15946484600F02BF808B17771EDE76A
:109A7000D9F808000368CDE90CA6CDE90A4BDC69EA
:109A80003A4643462946A44601B0BDE8F04F604738
:109A90002DE9F04107460C4615461E46FFF76DFFBF
:109AA00048B9B86803689F692A4633462146BC46D0
:109AB000BDE8F0416047BDE8F08170470020704785
:109AC000814208B50ED0406803782A2B0CD0496833
:109AD0000B782A2B08BF013102F012F9B0FA80F09E
