:02000002B0004C
:1040000000400B0088530B00000006000C00050266
:084010000401810C0000000016
:0440180058500B00F1
:10401C0009480A49884208B505D0094A824202D0AB
:10402C00121A00F061FF0748074A0021121A00F02B
:10403C0069FF014808BD00BF20E60320F4520B00C5
:10404C008CE603208CE60320EDE7032070B5074EC9
:10405C00074C00F0C9FBA41BA4080025AC4200D1FE
:10406C0070BD56F8043B98470135F7E7C4520B0076
:10407C00E8520B0000F014B808B500F025F8BDE8C4
:10408C00084000F069BB00F045BA00F04BBA00786C
:10409C00B0FA80F0400970470123037070470000AC
:1040AC0008B500F0A9FC4FF4165100F099FC044B34
:1040BC0004484FF0FF321A60BDE8084000F04BB8DE
:1040CC00B4E6032098E6032008B50F4800F070F81A
:1040DC000E4B1860032816D8DFE800F002090D110A
:1040EC0000F08AFC0A49BDE8084000F0CCBA00F0A8
:1040FC0083FC0849F7E700F07FFC0749F3E700F081
:10410C007BFC0649EFE708BD98E60320B4E60320E4
:10411C006C500B0090500B00A0500B00AF500B00DC
:10412C0008B5084B0022C3E90022A2F580329A6040
:10413C00022000F06BF9BDE808400348132100F0A1
:10414C0005B800BF8CE6032098E603200022C0E9E6
:10415C0004220160704710B50446008800F02AFE66
:10416C0040F21233A0F10B029A4207D8C4E90100C5
:10417C00E06000F073F8A061012010BD0020FCE7A6
:10418C0010B5044600F06AF8A369C01A074B9842B0
:10419C000AD9D4E9043293FBF2F3E36000F05EF841
:1041AC000023C4E90433A06110BD00BF20A10700A7
:1041BC0010B5836843600446008800F0FBFD23695A
:1041CC00A060184463692061013363612046FFF7E6
:1041DC00D7FFD4E90112511AB1F5C87F10DCB2F542
:1041EC002F7F0DDCE368D31A962B0BDCC82902DD7C
:1041FC00B2F52F7F08D1322BCCBF0220032010BD8B
:10420C000020FCE70120FAE70220F8E708B5024B92
:10421C001B689B68019308BD6802030008B5024B3C
:10422C001B68DB68019308BD6802030008B5024BEC
:10423C001B685B68019308BD2C02030008B5024B98
:10424C001B681B6B019308BD2C02030008B5024BC5
:10425C001B685B68019308BD1802030008B5024B8C
:10426C001B685B69019308BD1802030008B5024B7B
:10427C001B685B6C019308BD4802030008B5024B38
:10428C001B685B69019308BD6402030008B5024B0F
:10429C001B68DB68019308BD3C02030008B5024BA8
:1042AC001B681B69019308BD3C02030008B5024B57
:1042BC001B685B69019308BD3C02030008B5024B07
:1042CC001B689B69019308BD3C02030008B5024BB7
:1042DC001B68DB69019308BD3C02030008B5024B67
:1042EC001B681B6A019308BD3C02030008B5024B16
:1042FC001B689B6A019308BD3C02030008B5024B86
:10430C001B681B6C019308BD3C02030008B5024BF3
:10431C001B681B6A019308BD2802030008B5024BF9
:10432C001B685B6A019308BD2802030008B5024BA9
:10433C001B689B6A019308BD2802030008B5024B59
:10434C001B68DB6A019308BD2802030008B5024B09
:10435C001B681B6B019308BD2802030008B5024BB8
:10436C001B685B6B019308BD2802030008B5024B68
:10437C001B681B6C019308BD2802030008B5024B97
:10438C001B68DB69019308BD3002030008B5024BC2
:10439C001B681B6A019308BD3002030008B5024B71
:1043AC001B681B68019308BD4C02030008B5024B47
:1043BC001B685B68019308BD4C02030008B5024BF7
:1043CC001B681B69019308BD4C02030008B5024B26
:1043DC001B685B69019308BD4C02030008B5024BD6
:1043EC001B689B69019308BD4C02030008B5024B86
:1043FC001B68DB69019308BD4C02030008B5024B36
:10440C001B681B6A019308BD4C02030008B5024BE4
:10441C001B685B68019308BD2002030008B5034BC1
:10442C001B68D3F88830019308BD000020020300FC
:10443C0008B5034B1B68D3F89430019308BD0000FA
:10444C002002030008B5024B1B685B68019308BD92
:10445C004002030008B5024B1B689B68019308BD22
:10446C004002030008B5024B1B68DB68019308BDD2
:10447C004002030008B5024B1B681B69019308BD81
:10448C004002030008B5024B1B685B69019308BD31
:10449C004002030008B5024B1B689B69019308BDE1
:1044AC004002030008B5024B1B68DB69019308BD91
:1044BC004002030008B5024B1B681B6A019308BD40
:1044CC004002030008B5024B1B681B6B019308BD2F
:1044DC004002030008B5024B1B685B6B019308BDDF
:1044EC004002030008B5024B1B681B6C019308BD0E
:1044FC004002030008B5024B1B685B6C019308BDBE
:10450C004002030008B5024B1B68DB6B019308BD2E
:10451C004402030008B5024B1B681B68019308BDDD
:10452C001C02030008B5024B1B685B68019308BDB5
:10453C001C02030008B5024B1B681B6C019308BDE1
:10454C001C02030008B5024B1B685B6C019308BD91
:10455C001C020300002240681146FFF7ABBF00228B
:10456C0040681146FFF7B6BF40680022FFF7AABFAC
:10457C004068002281F00101FFF794BF00234068DE
:10458C001A461946FFF786BF002340681A4619469B
:10459C00FFF778BF002240681146FFF76BBF00227F
:1045AC0040681146FFF756BF406800220221FFF712
:1045BC0059BF002340681A46FFF744BF024B032241
:1045CC005A60024A1A607047B8E60320C4500B00C8
:1045DC0010B5044608462170FFF7D0FE0023636037
:1045EC00204610BD054B02221A60054B054A9A6005
:1045FC000020C3E90000FFF709BF00BFCCE6032091
:10460C00C0E603200000FFFF024800230360FFF711
:10461C002DBE00BFD0E60320F8B506460D468F1818
:10462C000024BD420CD0336815F8011B9B68304642
:10463C009847031E01DB1C44F3E7002C08BF1C4603
:10464C002046F8BD13B50446084659B1019100F057
:10465C008FFC23680199DB680246204602B0BDE856
:10466C001040184702B010BD03689B68184738B556
:10467C000D210546FFF7F8FF0A2104462846FFF7EF
:10468C00F3FF204438BD38B50546FFF7DBFF044681
:10469C002846FFF7ECFF204438BD30B58BB0002323
:1046AC00012A8DF8243098BF0A2209AC0D46B1FBC3
:1046BC00F2F101FB125303F0FF03092B94BF3033CB
:1046CC003733DBB2AA4204F8013DEFD92146FFF79C
:1046DC00B9FF0BB030BD002340681A461946FFF7EE
:1046EC00D1BE0000014B024A1A607047D4E6032089
:1046FC00F8500B00024B1A68024B1A60704700BF4F
:10470C0020E60320D8E60320014B00229A60704774
:10471C00DCE60320014B1860704700BF24E6032041
:10472C0008B50B4B43B100F067F903681B69984758
:10473C00002801DDAFF30080064B43B100F06CFBA9
:10474C0003681B699847002801DDAFF3008008BDA2
:10475C00000000000000000008B5FFF7E1FFFFF7C4
:10476C007DFD014B186008BD40E703200548064A53
:10477C00064908B5121A00F0B7FB054B054A1A603A
:10478C0008BD00BF00F4032004F40320F0520B001A
:10479C0000F403201E1C279A07B5002300931A4629
:1047AC006FF07701FFF744FE03B05DF804FB0000E7
:1047BC0007B543880A2B08D0502B0BD1094B1B682B
:1047CC004BB103B05DF804EB1847FFF7E5FF03B0FE
:1047DC005DF804FB002300931A466FF07701FFF796
:1047EC0027FEF4E7F0E6032010B512480021FFF78E
:1047FC00A9FE114B1A68114B9A42114B0CBF0122A6
:10480C0000221A7001D0FFF7B1FFFFF71FFD04461D
:10481C0000F080FB0B4B13B12046AFF3008000215E
:10482C000848FFF76FFEBDE8104007480021FFF76E
:10483C00F5BD00BF21470B0000F403201E1C279A76
:10484C00ECE6032000000000BD470B00704710B5DC
:10485C0018210446FFF719FC204610BDF0B5037D66
:10486C00062B8DB00E4600F104074FF0000412D059
:10487C0000F1080515F8011D0A223046FFF70DFF5F
:10488C00AF42044419D0002CF4D02E213046FFF74F
:10489C00EBFE0444EEE72F236A4639460A208DF8D6
:1048AC000040FFF7EBFC684600F062FB3368024601
:1048BC00DB68694630469847044620460DB0F0BD8B
:1048CC0010B5054B0446112240F8043B002100F0C2
:1048DC0019FB204610BD00BF20510B000346074AB0
:1048EC0010B543F8042B01F1100251F8044B43F8B6
:1048FC00044B9142F9D10A781A7010BD20510B006B
:10490C0010B59DF8084044EA032343EA024242EA08
:10491C00016104234160037510BD000007B5064B0F
:10492C000360CB7800938B784A780978FFF7E8FF1F
:10493C0003B05DF804FB00BF20510B0041747047BD
:10494C007047704708B50021007CFFF747FD40EA2F
:10495C00E07008BD08B50121007CFFF73FFD40EA7F
:10496C00E07008BD08B5007CFFF730FD20EAE07070
:10497C0008BD08B5007CFFF721FD20EAE07008BDFA
:10498C0013B50446007C0191FFF720FD0028019926
:10499C0001DC607C20B1207CFFF728FD20EAE07070
:1049AC0002B010BD007CFFF729BD10B514210446E0
:1049BC00FFF76BFB204610BD10B54FF47A7304461D
:1049CC0008460021C4E90113044B23600123207421
:1049DC0063741146FFF7E2FC204610BD34510B0006
:1049EC00007C0022FFF7E2BC10B514220446002123
:1049FC0000F088FA204610BD10B50F4C88B003A803
:104A0C00FFF7F2FF2178BFF35B8F11F001010FD19B
:104A1C0020460191FFF73BFB019948B103AA0748D7
:104A2C00FFF7CAFF2046FFF737FB054800F056FAA0
:104A3C00024808B010BD00BFF4E60320F8E60320DE
:104A4C004D490B0070474174704708B5007CFFF767
:104A5C004DFC20EAE07008BD08B5007CFFF71EFC99
:104A6C0020EAE07008BD08B5007CFFF727FC40EA9F
:104A7C00E07008BD08B5007CFFF718FC40EAE07058
:104A8C0008BD007CFFF722BC37B5457C04462DB130
:104A9C00207C03B0BDE83040FFF7F8BB007C0191EF
:104AAC00FFF724FC00280199F2DC284603B030BD46
:104ABC0010B514210446FFF7E8FA204610BD00009B
:104ACC0010B54FF47A730446084611460022C4E927
:104ADC000123044B2360012320746374FFF70EFC45
:104AEC00204610BD64510B007047F8B506461546BC
:104AFC000C468F18BC4206D0336814F8011B9B6817
:104B0C0030469847F6E72846F8BD007C0022FFF7B0
:104B1C00FDBB007C0021FFF701BC007C0021FFF7EE
:104B2C0005BC007C0021FFF709BC007C0021FFF7CD
:104B3C000DBC10B514210446FFF7A7FA204610BD92
:104B4C0010B54FF47A73044608460021C4E90113EA
:104B5C00034B236020741146FFF708FC204610BD60
:104B6C0094510B00002240681146FFF783BC0022D1
:104B7C0040681146FFF79EBC002240681146FFF7C3
:104B8C00A9BC40680022FFF79DBC4068002281F060
:104B9C000101FFF787BC002340681A461946FFF74E
:104BAC0079BC002240681146FFF754BC40680022D3
:104BBC000221FFF757BC002340681A46FFF742BC9E
:104BCC00024B04225A60024A1A6070470CE7032019
:104BDC00BC510B00002340681A46FFF733BC4068F9
:104BEC0000220221FFF73EBC002240681146FFF76D
:104BFC0031BC002240681146FFF73CBC00234068E2
:104C0C001A461946FFF73EBC002340681A4619465F
:104C1C00FFF740BC40680021FFF764BC40680021EE
:104C2C00FFF768BC4068002281F00101FFF73ABC35
:104C3C0040680022FFF746BC002240681146FFF78F
:104C4C0049BC002240681146FFF734BC2DE9F04303
:104C5C0095B014460D460746FFF732FE00211C2284
:104C6C000DA8009100F04EF940230C9320466B46A2
:104C7C000CAA0021FFF7D2FA044600284BD10246B9
:104C8C0001216868FFF7F6FB02218046224668681E
:104C9C00FFF7F0FB009E81462146002E3BD00029F9
:104CAC0039D17368022B03D00A2B11D0F669F4E7C3
:104CBC00B8F1000FFAD0716906A8043107ADFFF7FF
:104CCC002DFE0FCD3C1D0FC42B6823704146EDE724
:104CDC00B9F1000FEAD07469102201A800F012F9A2
:104CEC0006238DF8143001AD04F10803183418684C
:104CFC0059682A4603C20833A3421546F7D101A9C5
:104D0C0006A807ADFFF7EAFD0FCD3C1D0FC42B68BD
:104D1C0023704946CAE70098FFF778FA384615B071
:104D2C00BDE8F083024B034A1A6000225A607047B8
:104D3C0014E70320F8510B00232813B502D90020E7
:104D4C0002B010BDA0F10B03022B1AD8174C21781E
:104D5C00BFF35B8F11F001010BD120460191FFF7DE
:104D6C0096F9019928B11248FFF732FC2046FFF75B
:104D7C0093F90F4B1878FFF709FB0028DFD10120BE
:104D8C00DEE7012809D800F083F80021007CFFF74A
:104D9C00E5FA80F00100C0B2D2E709380128EED85C
:104DAC0000F03AF8007CFFF799FAF2E71CE70320D1
:104DBC0020E703200D2810B504469CBF0E34A4B286
:104DCC002046FFF7B9FF50B103212046FFF72EFA1A
:104DDC00032804D12046BDE81040FFF72FBA00206D
:104DEC0010BD704738B5044614252A46002100F042
:104DFC0089F825804025074925812846258200F021
:104E0C006BF804496060284600F066F8E0602046C4
:104E1C0038BD00BF2C520B0030B50E4D2978BFF3B6
:104E2C005B8F11F0010487B011D12846FFF72FF9E1
:104E3C0068B101A8FFF7D6FF01AA21460648FFF783
:104E4C003FFE2846FFF728F9044800F047F80248CF
:104E5C0007B030BD28E703202CE70320EF4D0B00F3
:104E6C007047000038B52025142304460360856084
:104E7C0005610649284600F02FF804496060284671
:104E8C0000F02AF8E060204638BD00BF2C520B0021
:104E9C0030B50E4D2978BFF35B8F11F0010487B04C
:104EAC0011D12846FFF7F3F868B101A8FFF7DAFF34
:104EBC0001AA21460648FFF743FE2846FFF7ECF807
:104ECC00044800F00BF8024807B030BD44E703205B
:104EDC0048E703206D4E0B00FFF7D5B800230146C1
:104EEC001A46184600F04CB80A44914200F1FF33C0
:104EFC0000D1704710B511F8014B03F8014F9142E6
:104F0C00F9D110BD02440346934200D1704703F817
:104F1C00011BF9E738B5104B1D68AB6B0446B3B9F0
:104F2C001820FFF7F7FA0246A86320B90B4B0C4880
:104F3C004221FFF7FFFA0B490B4BC0E900130B4B57
:104F4C0083600B23838100210120C2E90401AB6B38
:104F5C0000221C615A6138BD24E603202D520B003F
:104F6C0044520B000E33CDAB34126DE6ECDE050073
:104F7C00034613F8012B002AFBD1181A013870478D
:104F8C002DE9F843DFF8B8800646D8F800001F4634
:104F9C000D46914600F056F8254B1C6834B9254C4B
:104FAC001C60254B13B11B68C4F8883063681F2B39
:104FBC0007DDD8F8000000F047F84FF0FF30BDE8EF
:104FCC00F8834EB3D4F8880088B91C4B23B9D8F8B1
:104FDC00000000F038F8F0E74FF48470FFF79AFA0D
:104FEC000028F4D00023C0E94033C4F8880063687B
:104FFC0040F8239001229A4000EB8301D0F8003155
:10500C001343C0F80031022EC1F8807002BFD0F8F3
:10501C0004311343C0F804316368D8F800005A1CFB
:10502C000233626044F8235000F00EF80020C6E70B
:10503C00E8E703205CE703200000000021450B009B
:10504C0088E6032070477047704700001D400B0036
:10505C0059400B0081400B0085400B000000000004
:10506C004869676820706F6C6C7574696F6E21206D
:10507C00466F726365207369676E616C206163743F
:10508C00697665004869676820706F6C6C75746927
:10509C006F6E21004C6F7720706F6C6C7574696F3C
:1050AC006E21004672657368206169720000000011
:1050BC000000000000000000BF450B00B5450B00D0
:1050CC00AB450B00A1450B0095450B0089450B002A
:1050DC00214C0B00294C0B007D450B0075450B003A
:1050EC006B450B0061450B00594C0B006170700057
:1050FC0025592D256D2D25645425483A254D3A25E5
:10510C0053257A0061736374696D650000000000BB
:10511C000000000069480B0059480B005B480B006D
:10512C0000000000000000004F490B00B7490B00C5
:10513C008D490B0025460B007F490B0051490B0094
:10514C0061490B00B1490B0071490B0049490B0037
:10515C000000000000000000514A0B00BD4A0B008B
:10516C00954A0B0025460B00654A0B00814A0B0043
:10517C00734A0B008F4A0B00534A0B00574A0B0023
:10518C000000000000000000F54A0B003F4B0B0034
:10519C00174B0B00F74A0B001F4B0B00274B0B0058
:1051AC002F4B0B00374B0B000000000000000000E1
:1051BC00C34B0B00B94B0B00AF4B0B00714B0B00EF
:1051CC00E3460B00A34B0B00214C0B00294C0B00AE
:1051DC00974B0B008F4B0B00854B0B007B4B0B0045
:1051EC00594C0B000000000000000000E14B0B00CC
:1051FC00EB4B0B00F54B0B00FF4B0B00094C0B0062
:10520C00154C0B00214C0B00294C0B00314C0B00A6
:10521C003D4C0B00454C0B004F4C0B00594C0B00FC
:10522C00005245454E54206D616C6C6F6320737554
:10523C0063636565646564002F6D6E742F776F72A0
:10524C006B73706163652F776F726B7370616365DD
:10525C002F4743432D31302D706970656C696E6535
:10526C002F6A656E6B696E732D4743432D31302D5C
:10527C00706970656C696E652D34385F3230323010
:10528C00313132345F313630363138303634312FBB
:10529C007372632F6E65776C69622F6E65776C69BC
:1052AC00622F6C6962632F7374646C69622F726114
:1052BC006E642E63000000002D410B00C9450B00ED
:1052CC00F1450B0015460B00F1460B0001470B0096
:1052DC0015470B00CD4B0B00314D0B0000000000AF
:0452EC0000000000BE
:0452F00000000000BA
:1052F40010510B0028E6032000000000000000000D
:105304000000000000000000000000000000000099
:105314000000000000000000000000000000000089
:105324000000000000000000000000000000000079
:105334000000000000000000000000000000000069
:105344000000000000000000000000000000000059
:0C5354000000000000000000ECE7032057
:10536000FFFFFFFF00000102030405060708090A0A
:105370000B0C0D0E0F101112131415161718191A05
:085380001B1C1D1E1F2028004C
:04538800785634120D
:04000003B000401CED
:00000001FF
