:02000002B0004C
:1040000000400B00AC9C0B00000006000C000502F9
:084010000401810C0000000016
:04401800308E0B00DB
:10401C0009480A49884208B505D0094A824202D0AB
:10402C00121A04F045FE0748074A0021121A04F040
:10403C004DFE014808BD00BFA8DC032004980B000E
:10404C0028E1032028E10320EDE7032070B5074E9B
:10405C00074C03F0AFFDA41BA4080025AC4200D113
:10406C0070BD56F8043B98470135F7E7D8970B001D
:10407C00FC970B0000F098B808B500F06DFABDE89D
:10408C00084003F04FBD03F077B903F07DB9000091
:10409C0008B5034A00210C2003F0AAF8FEE700BF84
:1040AC000D6F0B000078B0FA80F0400970470123C7
:1040BC00037070477047037C13F008031EBFC36A7C
:1040CC00406A1B1A002BACBF18466FF000407047BB
:1040DC00704710B510210446FFF7D7FF204610BDDE
:1040EC0010B534210446FFF7D0FF204610BD103028
:1040FC0002F0E6B8103002F004B807B501220DF159
:10410C000701103001F04FFF01280CBF9DF807008C
:10411C004FF0FF3003B05DF804FB103002F05AB9D9
:10412C0007B501228DF8071010300DF1070102F0D0
:10413C0051F903B05DF804FB0EB403B503AB0021D9
:10414C0053F8042B019303F0E0FB02B05DF804EB91
:10415C0003B0704773B5044608462279A36832B1A0
:10416C00A3B90B4902B0BDE8704003F09DBB094AEE
:10417C00267B094D0949647B012E18BF2946CDE9E0
:10418C0000140749FFF7D8FF02B070BD054AEFE7EE
:10419C00558E0B00328F0B00518E0B004D8E0B0089
:1041AC006B8E0B00448E0B002DE9F0438FB003F0A7
:1041BC000FFE4FF4165103F0F9FD03F009FE03F066
:1041CC00FCFD0028F9D0664B66481978664D00F066
:1041DC00D1FD286028B903F0FBFD6449FFF7ACFF63
:1041EC00FEE703F0F5FD6249624E634CDFF8C881CF
:1041FC00FFF7A2FF01210E2004F008F801210E2088
:10420C0004F015F8002333602B6004F58C695B4BCC
:10421C005B49019300238DF80830012701AB0E2276
:10422C00A1F10C00CDF80C80ADF8107002F00EFC72
:10423C00002800F087805348C4F8009002F076F80C
:10424C003946204602F0ACFA0146002875D04D489C
:10425C00214601F0A2FE002874D094F83C3413F0EF
:10426C00700F6FD0484B474A1A6001232B6003F044
:10427C00AFFD4649FFF760FF2B68002BC7D000232A
:10428C004FF47A72CDE902320593414B414A3D49D4
:10429C00019305A844F2022305AC02F04EF80FCCB2
:1042AC003D4E06F110050FC50FCC0FC523682B60D2
:1042BC00029B7360039BB360049BF360337C63B11C
:1042CC0036493046FFF738FFA5F1200002F02EF8F2
:1042DC0003F07EFD3149FFF72FFFB9EE080A03F01A
:1042EC0061FB03F029F810B1002003F02DF8002138
:1042FC00122003F08BFF2A4B2A481A78022101F076
:10430C0033F82848012101F0B0FA0121254801F0C9
:10431C00B1FA244800F05CFF224800F0B5FF02F02F
:10432C00FFFD214B1860214B00221A60204B4FF4EB
:10433C0080521A600FB0BDE8F083204602F030FACC
:10434C00002884D100232B603368002B7FF45FAFEF
:10435C0003F03EFD1749FFF7EFFE012333608BE7B7
:10436C00A8DC0320C4E5032050E60320888E0B0054
:10437C00BE8E0B009CE6032034E10320D08F0B0093
:10438C00A0E5032070E50320A4E60320CF8E0B00EC
:10439C00E48F0B00038F0B0058E60320108F0B00EB
:1043AC00A9DC032018E603203CE6032048E60320A2
:1043BC004CE60320E68E0B0080F0FA022DE9F04F5C
:1043CC002DED028B95B0002391464FF47A72CDE916
:1043DC0008320B93284B294A0793074644F20223D1
:1043EC0088460BA82649274E0BAC10EE10BA10EEDF
:1043FC0090AA01F0A2FF0FCC06F110050FC50FCC4F
:10440C000FC523682B60089B7360099BB3600A9BE4
:10441C00F360337C4BB3584604F050F941EC180B65
:10442C00504604F04BF982468B463A681649CDE962
:10443C000489CDE902AB8DED008B3046FFF77CFE95
:10444C00A5F1200001F072FF03F0C2FCCDE9048954
:10445C00CDE902AB8DED008B3A680B49FFF76CFE92
:10446C0015B0BDEC028BBDE8F08F03F0B1FC074931
:10447C00FFF762FEF4E700BFE48F0B00038F0B0025
:10448C0070E5032058E60320338F0B004E8F0B0092
:10449C002DE9F7432A4C8146204610EE108A10EE87
:1044AC00907A0E46154600F093FE40230122CDE98A
:1044BC000032002280231146204601F08CF8204661
:1044CC000522072101F0CEF9D9F800201D4920461C
:1044DC00FFF732FE0F222046072101F0C3F94046B8
:1044EC0004F0ECF80B46024617492046FFF724FE71
:1044FC0019222046072101F0B5F9384604F0DEF800
:10450C000B46024611492046FFF716FE2046232291
:10451C00072101F0A7F932460D492046FFF70CFEA2
:10452C0020462D22072101F09DF90A492A462046F2
:10453C00FFF702FE204603B0BDE8F04300F0A4BE36
:10454C0018E603206B8F0B007C8F0B00908F0B00F9
:10455C00A48F0B00B58F0B002DE9F04385B003F051
:10456C009AFA0246C317684603F03CFA6946344887
:10457C00344E354F354D364CDFF8D890DFF8E080AF
:10458C0003F04CF9684603F0CDF80B2213232C49A9
:10459C00684603F04BF969462E4803F03FF968462C
:1045AC0003F0C0F82C4800F06BFB2B4886ED000A9A
:1045BC0000F096FB122087ED000A03F064FE274BF7
:1045CC00D9F8001018602B6898422368C8BF28607F
:1045DC009842B8BF2060684603F0EFF8226829685B
:1045EC00D7ED000A96ED000A6846FFF751FF6846C2
:1045FC0003F098F802F094FCD8F80030C01A4EF68C
:10460C006023984219D9D9F80010684603F0D5F800
:10461C0022682968D7ED000A96ED000A6846FFF774
:10462C00CDFE684603F07EF800232B604FF48053D8
:10463C00236002F075FCC8F8000005B0BDE8F083FB
:10464C0008E6032054E6032040E6032048E6032056
:10465C004CE603208CE60320C4E5032044E603204B
:10466C003CE60320254B37B50025254A9A60C3E963
:10467C000055022002F0CCFD22492348234C03F0C4
:10468C009CF82049224803F098F8224B22485D60A0
:10469C004FF47A729A60214A1D611A604FF0FF3113
:1046AC0000F080FD1E4800F043F86423C4F8603429
:1046BC001C4B6560C4F83C54C4F86854C4F870349E
:1046CC00C4F87854A4F87C540123174D84F874343E
:1046DC002978BFF35B8F19400BD128460191FFF766
:1046EC00E1FC019928B1114802F0CAFE2846FFF7F7
:1046FC00DEFC0E4BC4F86C3403B030BDB8E50320BF
:10470C000000FFFF328F0B0008E6032034E103208A
:10471C008CE6032058E6032018E60320E48F0B00F8
:10472C00C4E50320D08F0B0028E103202CE10320EB
:10473C0010B5044603F038FE4FF0FF3320602361C0
:10474C00204610BD13B50B4C2178BFF35B8F11F0D5
:10475C0001010BD120460191FFF7A4FC019928B16E
:10476C00054802F08DFE2046FFF7A1FC024802B07E
:10477C0010BD00BF28E103202CE1032008B5FFF792
:10478C00E1FFBDE8084002F0C1BE07B50190FFF79C
:10479C00D9FF019903B05DF804EB02F0D1BE2DE90D
:1047AC00F04190F91330013305460F4606D1FFF75F
:1047BC00C9FF3946BDE8F04102F088BF0024072646
:1047CC004FF0010895F91300002180B203F02FFD82
:1047DC0095F9110008FA06F1394080B203F027FD73
:1047EC0095F91300012180B203F021FD95F9120017
:1047FC00640080B2E4B203F033FD08B144F001046C
:10480C00013EDFD22046BDE8F08100007FB590F973
:10481C001030013304460E46154613D10179006859
:10482C0003F0BEFB2068036831469B6898472068FC
:10483C00036829469B689847206804B0BDE870401F
:10484C0003F0B9BB90F9133001330CD1164B009324
:10485C0000238DF80430154B029368460123ADF804
:10486C000C30FFF792FF94F91000002180B203F096
:10487C00DEFC06F07F012046FFF791FF294620461B
:10488C00FFF78DFF94F91000012180B203F0CFFCEB
:10489C0094F91330013304D104B0BDE87040FFF734
:1048AC006DBF04B070BD00BFD08F0B0020A10700FE
:1048BC00F8B5DB0002F0070203F03803134343EAB8
:1048CC0081139DF8186080F83C3090F840309DF8CA
:1048DC001C509DF8207066F3471380F84030ED00B3
:1048EC0090F8383007F0070705F0380523F03F0340
:1048FC003D4304461D4380F8385006F00702F22170
:10490C00FFF784FF94F8382002F0070102F0380317
:10491C0043EA411343EAD2122046F521FFF776FF12
:10492C0094F83C2002F0070102F0380343EA4113EB
:10493C0043EA92122046F421BDE8F840FFF766BF27
:10494C0030B590F91030013385B004460D4618D1BE
:10495C000179006803F024FB2068036829469B68F2
:10496C009847206803F027FB21792068012203F087
:10497C0014FB206803685B699847C5B2284605B0EC
:10498C0030BD90F9133001330CD1154B009300233B
:10499C008DF80430134B029368460123ADF80C30AC
:1049AC00FFF7F3FE94F91000002180B203F03FFCF6
:1049BC0045F080012046FFF7F2FE00212046FFF76C
:1049CC00EEFE054694F91000012180B203F02FFC95
:1049DC0094F913300133D1D1FFF7D0FECEE700BFED
:1049EC00D08F0B0020A1070008B5F321FFF7A8FF1B
:1049FC0000F0010008BD000030B590F91030013313
:104A0C0085B004460D461FD10179006803F0C8FA41
:104A1C002068036829469B689847206803F0CBFA06
:104A2C0021792068022203F0B8FA206803685B69D8
:104A3C0098470546206803685B69984740EA05205B
:104A4C0085B2284605B030BD90F9133001330CD136
:104A5C00184B009300238DF80430174B02936846D3
:104A6C000123ADF80C30FFF790FE94F910000021F3
:104A7C0080B203F0DCFB45F080012046FFF78FFE8F
:104A8C0000212046FFF78BFE002105462046FFF74C
:104A9C0086FE40EA052085B294F91000012180B20F
:104AAC0003F0C5FB94F913300133CAD1FFF766FE4E
:104ABC00C7E700BFD08F0B0020A1070008B5FFF798
:104ACC009BFF40BA80B208BD38B588210446FFF779
:104ADC00F5FF8A21A0822046FFF7F0FF8C21E082AF
:104AEC002046FFF7EBFF8E2120832046FFF7E6FFE1
:104AFC00902160832046FFF7E1FF9221A08320469E
:104B0C00FFF7DCFF9421E0832046FFF7D7FF9621C7
:104B1C0020842046FFF7D2FF982160842046FFF7BF
:104B2C00CDFF9A21A0842046FFF7C8FF9C21E0848A
:104B3C002046FFF7C3FF9E2120852046FFF7BEFFCE
:104B4C00A12160852046FFF7FBFEE12184F82C00B3
:104B5C002046FFF7B3FFE321E0852046FFF7F0FE88
:104B6C00E42184F830002046FFF7EAFEE5210546F3
:104B7C002046FFF7E5FE00F00F0343EA05106086C0
:104B8C00E6212046FFF7DCFEE52105462046FFF72F
:104B9C00D7FEC0F3071343EA0510A086E721204691
:104BAC00FFF7CEFE84F8360038BD000030B590F922
:104BBC001030013385B004460D4623D101790068CD
:104BCC0003F0EEF92068036829469B689847206833
:104BDC0003F0F1F921792068032203F0DEF9206853
:104BEC0003685B6998470502206803685B6998470E
:104BFC0028430502206803685B69984705432846EB
:104C0C0005B030BD90F9133001330CD11A4B009321
:104C1C0000238DF80430194B029368460123ADF83C
:104C2C000C30FFF7B2FD94F91000002180B203F0B4
:104C3C00FEFA45F080012046FFF7B1FD0021204629
:104C4C00FFF7ADFD002105022046FFF7A8FD284324
:104C5C00050200212046FFF7A2FD054394F9100040
:104C6C00012180B203F0E3FA94F913300133C6D179
:104C7C00FFF784FDC3E700BFD08F0B0020A1070016
:104C8C0010B5FA210446FFF791FFB0F5000F1FD0C5
:104C9C00A18A9FED117A4B00C1EB2022C3EBE011EE
:104CAC00B4F91630594302FB02F3B4F918201B1364
:104CBC0053439B1303EBE123E36003EB8303803348
:104CCC001B1207EE903AF8EEE77A87EE870A10BDD2
:104CDC009FED020AFBE700BF0000C8420000C07F46
:104CEC0038B50446FFF7CCFFFD212046FFF784FEC4
:104CFC00B0F5004F38D0E168B4F93420A1F5963501
:104D0C00B4F932100905C1EB803305FB123303F5FE
:104D1C008043DA1394F8303094F936106B43DB127D
:104D2C006943891203F500434B439B12B4F92E10CF
:104D3C0003F500134B4303F500539B135343DA1352
:104D4C0094F82C105243D2114A43A3EB221323EABA
:104D5C00E373B3F1C85FA8BF4FF0C8531B1300EE49
:104D6C00103ABAEECB0A38BD9FED010AFBE700BF43
:104D7C000000C07F30B50446017190F91000421C50
:104D8C0085B018D1206803F0D9F8D0212046FFF760
:104D9C00D7FD602842D12046B622E021FFF736FD30
:104DAC004FF4967002F092FE2046FFF71DFE05466A
:104DBC0028B36420F6E7012180B203F038FA94F9A5
:104DCC001000012180B203F021FA94F91300431C66
:104DDC0004D1FFF7B7FC02F05DFBD6E7012180B2EE
:104DEC0003F014FA94F91100012180B203F00EFAC9
:104DFC0094F91200002180B203F008FAC5E72046AE
:104E0C00FFF762FE05232046CDE9015500931A46B3
:104E1C000321FFF74DFD012005B030BD0020FBE75D
:104E2C00F0B5457EBDF81440022D69D0032D00F07D
:104E3C009980012D6CD10589D2432A4412B2002AE3
:104E4C005DDBB0F90850954259DD0029BEBF5B18F7
:104E5C001BB20021B0F90A00CD188542C4BF431A19
:104E6C001BB2002B4BDDC1F3C400DFF820C102EBF9
:104E7C00C01211F00701DBB20CEB02001AD0C1F129
:104E8C000805404EEDB2AB42775D3FBFA5EB030E7C
:104E9C00FF2646FA0EF637401CF80260012C0CBFB8
:104EAC003E43BE43AB420CF8026028D308390B4496
:104EBC00DBB28030072B19D9012C4FF0FF3518BF0E
:104ECC000025EDB200F180011A46083AD2B2072A49
:104EDC0001F8805C01F18001F7D8A3F10802C2F35C
:104EEC00C402013200EBC21003F007033BB1264AA7
:104EFC00D25C0378012C0CBF134393430370F0BDB9
:104F0C004589D2432A44CD180189491B12B209B2F2
:104F1C00002AF4DBB0F90A509542F0DD0029BEBF3F
:104F2C005B181BB20021B0F90870CE18BE42C4BF8A
:104F3C006B1A1BB2002BE2DDD010802510FB051183
:104F4C001248014402F0070001228240012CD2B227
:104F5C000B440CD18B42D2D011F8010B104301F849
:104F6C00010CF7E7CD184189491B09B267E7D24319
:104F7C00D2B28B42C3D011F8010B104001F8010CD6
:104F8C00F7E700BFB2DC0320AADC0320BADC032065
:104F9C00F0B5457EBDF81440022D34D0032D00F041
:104FAC009B80012D37D1D5180289521B12B20029D2
:104FBC00C0F29180B0F90A508D4240F38C80002AE7
:104FCC00BEBF9B181BB20022B0F90870D618BE42A7
:104FDC00C4BFAB1A1BB2002B7DDDC810802510FBA3
:104FEC0005224548024401F0070001218140012CB3
:104FFC00C9B2134475D19A426DD012F8010B084313
:10500C0002F8010CF7E70589C9432944D5184289F0
:10501C00521B09B212B200295DDBB0F908508D4267
:10502C0059DD002ABEBF9B181BB20022B0F90A0042
:10503C00D5188542C4BF831A1BB2002B4BDDC2F3BB
:10504C00C400DFF8B4C001EBC01112F00702DBB2F0
:10505C000CEB01001AD0C2F10805284EEDB2AB42A0
:10506C00775D3FBFA5EB030EFF2646FA0EF63740E1
:10507C001CF80160012C0CBF3E43BE43AB420CF844
:10508C00016028D3083A1344DBB28030072B19D9BE
:10509C00012C4FF0FF3518BF0025EDB200F1800157
:1050AC001A46083AD2B2072A01F8805C01F1800155
:1050BC00F7D8A3F10802C2F3C402013200EBC2100C
:1050CC0003F007033BB10E4AD25C0378012C0CBFF2
:1050DC00134393430370F0BD4589C943294409B276
:1050EC0065E7C943C9B29A42F5D012F8010B0840E2
:1050FC0002F8010CF7E700BFBADC0320B2DC032096
:10510C00AADC032070470000F8B50D1E06461446B5
:10511C001F462DDB00F0B3FBA84229DD002C27DB5A
:10512C00304600F0AFFBA04222DD304600F0A5FB7C
:10513C0002281ED0032825D0012804D13389E2434C
:10514C001A442C4615B2002C2246B8BFE21DD210D0
:10515C00802112FB01550E49012204F007044B5724
:10516C0002FA04F464B297420CBF2343A3434B5599
:10517C00F8BD318972890139E4434D1B14442DB2B9
:10518C0024B2E0E77389013B5B1B25461CB2DAE7CE
:10519C00BADC032010B524210446FEF776FF204626
:1051AC0010BD000038B5402204460D46802100F0A9
:1051BC008BFA064B2360FF2384F8213063774FF67C
:1051CC00FF73E38384F82050204638BD0C900B000D
:1051DC0002484FF48062002103F078BDBADC032052
:1051EC0007B590F8223043B10191FFF7ABFA019962
:1051FC0003B05DF804EB02F069BA0B46817F407F87
:10520C00012203B05DF804EB03F054B838B590F903
:10521C001D30013304460D461DD090F921000121AB
:10522C0080B203F004F894F91F00002180B202F060
:10523C00FEFF94F92100002180B202F0F8FF29460C
:10524C002046FFF7CDFF94F921000121BDE838403D
:10525C0080B202F0ECBF03F0A7F894F91B1002F037
:10526C00A3FE03F0A1F8036800219B68984703F0A4
:10527C009BF8036829469B68984703F095F8BDE8AE
:10528C00384002F098BE0000F8B521210446FFF723
:10529C00BDFF00212046FFF7B9FF7F212046FFF715
:1052AC00B5FF22212046FFF7B1FF00212046FFF772
:1052BC00ADFF07212046FFF7A9FF94F91D30294FB8
:1052CC0001332AD094F92100012180B202F0AFFF02
:1052DC0094F91F00012180B202F0A9FF94F921007A
:1052EC00002180B202F0A3FF012001F009FE4FF46F
:1052FC008065013D17F8011B2046ADB2FFF770FF2A
:10530C00002DF6D1012001F0FBFD94F921000121C3
:10531C00BDE8F84080B202F08ABF002503F044F8E3
:10532C0094F91B1002F040FE03F03EF80368402194
:10533C009B68984705F11006B6B203F035F8036880
:10534C00795D9B6898476B1C9DB2AE42F5D103F01A
:10535C002BF802F030FEB6F5806F00D1F8BD354663
:10536C00DCE700BFBADC032038B590F91D300177BB
:10537C00013304460D46C27600F0C98090F91F0037
:10538C00012180B202F042FF94F92100012180B288
:10539C0002F03CFF94F82230002B00F0A68094F928
:1053AC002100012180B202F042FFFFF7CBF901216D
:1053BC0002F084F8FFF7C6F9102102F061F9FFF74B
:1053CC00C1F9002102F08EF8FFF7BCF902F062F887
:1053DC0094F92000012180B202F018FF94F920000A
:1053EC00012180B202F023FF012002F06FFB94F93F
:1053FC002000002180B202F01AFF0A2002F066FBA6
:10540C0094F92000012180B202F011FF2046AE2158
:10541C00FFF7FCFE2046D521FFF7F8FE2046802141
:10542C00FFF7F4FE2046A821FFF7F0FE20463F21AF
:10543C00FFF7ECFE2046D321FFF7E8FE20460021C3
:10544C00FFF7E4FE20464021FFF7E0FE8D212046C9
:10545C00FFF7DCFE012D0CBF102114212046FFF7B5
:10546C00D5FE20462021FFF7D1FE20460021FFF774
:10547C00CDFE2046A121FFF7C9FE2046C821FFF72B
:10548C00C5FE2046DA21FFF7C1FE20461221FFF7A8
:10549C00BDFE81212046FFF7B9FE012D0CBF9F21D7
:1054AC00CF212046FFF7B2FED9212046FFF7AEFEF2
:1054BC00012D0CBF2221F1212046FFF7A7FE20462B
:1054CC00DB21FFF7A3FE20464021FFF79FFE20467D
:1054DC00A421FFF79BFE2046A621FFF797FE20464E
:1054EC00AF21BDE83840FFF791BE94F91D000121B2
:1054FC0080B202F08BFE94F91E00012180B202F002
:10550C0085FE94F82230002B3FF462AF47E702F09F
:10551C004BFF02F013FD5BE72DE9F04F85B01F4602
:10552C00BDF93880BDF83C30A8EB0209A7EB010AA5
:10553C00B9F1000FB8BFC9F10009BAF1000FB8BF3B
:10554C00CAF1000AD14583460C46154604DD3A469D
:10555C002C4647460D469046BC4205DD2A4645463C
:10556C00904622463C4617463E1BB2B20092A8EB30
:10557C00050282EAE271A1EBE271C6F3C03202FAD3
:10558C0086F64545B4BF01224FF0FF3201917610EB
:10559C000292BC421CDCDBF800200393D145D2F80C
:1055AC001080C7BF294622462A4621465846C04786
:1055BC00019A039BB61AB1B236B2002E05DA029AE2
:1055CC001544009A56182DB236B2013424B2E0E7D5
:1055DC0005B0BDE8F08F2DE9F347BDF82C800768C6
:1055EC00BDF92890CDF800800446FF6916468A461E
:1055FC001D46B8472368CDF8008009F1FF323244CC
:10560C00DF6951462B46204612B2B8472368CDF8C5
:10561C0000809F6932464B4651462046B8476B1E68
:10562C0003EB0A012368CDF828809D6932464B466E
:10563C0009B22046AC4602B0BDE8F047604737B52A
:10564C00013B13440468BDF8185001951BB200933C
:10565C0064690B46A04703B030BD37B5BDF8185090
:10566C000468CDE90025013B0B4464691BB2A047DB
:10567C0003B030BD2DE9F347BDF92890BDF82C805F
:10568C00054692460C46CE18B4420BDA2B68CDF880
:10569C0000809F6921464B46524628460134B84744
:1056AC0024B2F1E702B0BDE8F08713B502680191AE
:1056BC00B0F90E100091546AB0F90C30002211466A
:1056CC00A04702B010BD704730B54281C2814FF087
:1056DC00FF320024054D42610122446005600181C6
:1056EC00818104610283827630BD00BF40950B003E
:1056FC002DE9F04F2DED028B8DB007460491BDF8CE
:10570C0060100591BDF864100691B0F90C10049866
:10571C009DF86850814252DDB7F90E1091424EDD72
:10572C00062111FB0504002C49DD02EBC504002CFD
:10573C0045DD03EB83030B9393B2079308339BB2C2
:10574C00089100240993052C1CBF2C4B0B9A079E27
:10575C0016BF1B1900239B5C0393049AABB20A93EC
:10576C0004FB05F313FA82F31BB204EB020A08EEF6
:10577C00103AB0460FFA85F90FFA8AFA039BDB0749
:10578C002FD5012D3B681FD1D3F810B0059B32B239
:10579C0051463846D847039B5B0803930A9B013656
:1057AC009844099BB6B2B3421FFA88F8E6D1089B1D
:1057BC00013B013413F0FF0364B20893C3D10DB065
:1057CC00BDEC028BBDE8F08F059ACDE9009218EE86
:1057DC00101AD3F824B00FFA88F24B463846D84743
:1057EC00D9E7DDE905239342D5D0012D3B6803D1E0
:1057FC00D3F810B0069BCAE7069AE6E73C900B007C
:10580C0030B50A2985B0044607D1027E638A03EBC2
:10581C00C20363820023238221E00D291FD0037E63
:10582C000293C38A0193838A0093B0F912200B462A
:10583C00B0F91010FFF75CFF207E238A00EB4001CB
:10584C0003EB4103A17E1BB20246238239B1B4F9AA
:10585C000C106FF0050505FB00118B42D6DC012006
:10586C0005B030BD018242827047012938BF012149
:10587C0001767047C18281827047407E7047B0F9D3
:10588C000C007047B0F90E007047042904D800EBE7
:10589C004100B0F8010070470A299BBF01F1FF31AC
:1058AC0000EB41000131C08884BF00EB41008088CF
:1058BC00704710B50446243000F064FE28B104F59E
:1058CC000C70BDE8104000F05DBE10BD411E00F133
:1058DC000A030020420842EAC01011F8012F52FAC4
:1058EC0080F08B42C0B2F5D1704700002DE9F04733
:1058FC00064610F8013B202BFAD06A4D8E6000242E
:10590C00335DC3B12F2B16D05C2B02D10020BDE828
:10591C00F087A3F12200C0B21D2803D825FA00F0AD
:10592C00C007F3D403F0BF003C28EFD0203B5E2B24
:10593C00ECD80134E4E733191846074610F8015B3C
:10594C00202DFAD02F2DF8D017604CB113F8012D63
:10595C002E2A01D0202A01D1013CF6E7FF2CD5DC00
:10596C004FF02033C1F811304C60C1F80D304B6151
:10597C004FF0000816F808302E2B01D0202B02D146
:10598C0008F10108F6E7B8FA88F04009651E6B1CAF
:10599C0002D0735D2E2B14D14FF0000907274A4615
:1059AC00CA464FF0080EA04568DA16F80830202BCE
:1059BC0003D02E2B07D1A84512D0002008F10108E6
:1059CC00F1E7013DE3E7222B08D07C2B06D0A3F1B5
:1059DC002A0CBCF1050F0AD82D2B12D0A8455BD18F
:1059EC000A2F4AD00A2708224FF0100EE6E7A3F13F
:1059FC003A0CBCF1050FF1D9A3F15B0CBCF1020F11
:105A0C00ECD9A3F1210CBCF15D0FE7D8A845E7D088
:105A1C00BA4230D8A3F1610CBCF1190F1AD8203B53
:105A2C004EEA0909DBB25FFA89F902F1010C5FFA5F
:105A3C008CFC0A44BCF1060F537301D881F80CC0DE
:105A4C006246BBE7A84518DCA8460A2708224FF097
:105A5C00100EB2E7A3F1410CBCF1190F98BF4EEA3E
:105A6C000A0AE2E70B7B0120087019447E234B7372
:105A7C0031238B734BE70A2FE4D100204B7B202B77
:105A8C003FF444AF0028EDD01AEA090F18BF4FF0CD
:105A9C00020981F800903AE7BA42ECD800205F2363
:105AAC00C3E700BF010100312DE9F84391F80C90D8
:105ABC0006460C4602257E2701F10D086168A26896
:105ACC006B189BB21144914206D012F8010B03EBF8
:105ADC00431343409BB2F6E7B9F1030F28BF4FF0D5
:105AEC00030909F10402D2B203F00F01A018013A24
:105AFC000929D2B294BF30313731914541734FEA05
:105B0C001313F1D104EB090300215F73304600F04D
:105B1C002AFB0121304600F007FB014628B97078BA
:105B2C00B0FA80F04009BDE8F88303786BB1C37A12
:105B3C001B07EED40B22404603F0AAF80028E8D14C
:105B4C000135ADB2642DB9D1EDE70120EBE70000D2
:105B5C002DE9F04F2DED028B8BB00D4606930B7893
:105B6C00079013F0700F174605D100200BB0BDEC59
:105B7C00028BBDE8F08F079B1B78002BF5D1536887
:105B8C00059313789C071FBF059B0C330D22B3FBA9
:105B9C00F2F31ABF0133DBB2012300212846039331
:105BAC0000F0E1FA07F10D034FF0000B08EE103A8C
:105BBC00DA465C465E46CDF810B0D9466B690121D9
:105BCC002846C3F34F1800F0AFFA0346002871D1F2
:105BDC006B78002BC9D1069B9A05C6D503F003033D
:105BEC00013B012BC1D8049B002C08BF43460493F6
:105BFC00039B9C42C0F0F180B9F1000F40F00A8188
:105C0C00049B2846590100F0AEFA0028ADD0039B46
:105C1C0003F1FF395FFA89F94E464FF0000A4FF055
:105C2C000F08002E00F00D810021284600F07CFAB0
:105C3C000446002899D0AA6892F824304E4543F0C7
:105C4C0001030CBF46F0400BB34682F8243080F8B9
:105C5C0000B080F80B8080F80CA007F10D00FFF766
:105C6C0035FE84F81AA0607384F81BA00BF01F0398
:105C7C000D22013BD7F808C05343002205999942E5
:105C8C0040F2D0801CF80310042A5FFA82FE02F165
:105C9C00010000F2CD8004EB4202A2F801100D28A5
:105CAC0003F101030246E9D1013EF6B2B9E74FF028
:105CBC00010983E70278E52A00D07AB90499002C0F
:105CCC0008BF4146049103998C423CBF0134E4B2B5
:105CDC00002A80D0E52A05D100266FE703998C4273
:105CEC0038BF00242E2AF7D0D97A0F294AD116BBF7
:105CFC0012F040063FF462AF02F01F0693F80DB0AD
:105D0C00B2460D220AF1FF3802FB08F8059A42450B
:105D1C00E2D9A2EB08020892002202EB08010991D9
:105D2C001846D1B2FFF7B1FD08998A420DD100286F
:105D3C0018BF002642E70AF1FF3A5FFA8AFA524589
:105D4C00CAD15A7B5A45DCD0C6E7FF28C4D85FFAC3
:105D5C0080FEAEF141011929B9689CBF0EF12000FB
:105D6C005FFA80FE08460999415CA1F1410CBCF137
:105D7C00190F9CBF2031C9B27145ADD101320D2A2A
:105D8C00CBD11BE70807A7D45EB1BAF1010F7FF4A2
:105D9C00ECAE1846FFF79AFD58457FF4E6AEB146D7
:105DAC000EE018EE101A0B22184602F071FF0028B4
:105DBC007FF404AF97F8009019F001097FF477AFE6
:105DCC00069B19053FF5D1AE069B0798CDF80090C0
:105DDC004246294600F00AFAC8E60021284600F09F
:105DEC00A3F9A0B96B78002B7FF4BFAE284600F066
:105DFC0087F800283FF4B9AEAB681B79012B3FF64E
:105E0C00FBAE039B1034E4B2A342EFD8F4E60134AA
:105E1C00E4B2EDE639462846FFF746FE00287FF44B
:105E2C00EFAEA2E614BF4FF0FF31002189B22BE791
:105E3C00BEF10A0F94BF04EB420204EB40029180C6
:105E4C002DE731462846D5F8148000F06DF904464C
:105E5C0000283FF48AAE2022314602F037FFD7F8F3
:105E6C000D302360D7F811306360B7F815302381FB
:105E7C00FB7DA3723B7803F0180323730F4B1B6855
:105E8C009BB104F10E0104F110009847238A638240
:105E9C002383E389E382AA6892F8243043F0010358
:105EAC00C8F34F1882F824308EE72123237428235B
:105EBC0063740823A673E373E8E700BFA0E603202E
:105ECC0038B504460D462422002102F0FFFEA560E1
:105EDC00EB79102B03D0202B06D0002038BD2023CB
:105EEC0001202370A070F9E74023F9E7837801695A
:105EFC0043F00403837000F11002806800F0F8BBDB
:105F0C002DE9F041017811F02005044603D000265C
:105F1C003046BDE8F0814269174B9A42F7D2FFF741
:105F2C00E5FF06460028F2D02169A06800F075FB59
:105F3C000746A06805223946243000F04BFB80460A
:105F4C000028E4D029464FF4007202F0BFFE012570
:105F5C00A3681A79AA4209D918684246E91900F0CF
:105F6C00A6FE0028D3D00135EDB2F1E7636903EB4F
:105F7C0042236361CCE700BF00FE1F0010B504464E
:105F8C0080680A462430A16900F024FB20B1A38864
:105F9C0003F00F0300EB431010BD03780BB9FFF7B0
:105FAC008FBF002070472DE9F74F037804468846D1
:105FBC001546002B5DD08278D1075AD51A072DD5FE
:105FCC00C36942699B1A9D4228BF1D462E464FF05D
:105FDC00000904F1100B002E00F08F802278636909
:105FEC00A0689706C3F3080A4FEA53211FD5006A2D
:105FFC000144A068BAF1000F42D1B6F5007F3FD33F
:10600C00C36A99423CD0B6F5806F52D200684246C2
:10601C0000F0C4FD68B34FF4007744E09B06D5D57F
:10602C0083681A894369C3EB42139BB2CBE790F8A0
:10603C00059009EA0109BAF1000F08D1B9F1000F76
:10604C0005D15BB951064CBF036A236A23612169F0
:10605C00A06800F0E2FA09EB0001CAE721695A4690
:10606C0000F0E1FA002804DBF1D1237813F0700F73
:10607C0043D1637843F0020363704FF0FF303DE08F
:10608C00CAF50077B7424FF0000200F1240028BF98
:10609C00374600F09FFA0028EBD000EB0A013A4695
:1060AC00404602F005FE63693B44B8446361F61B4D
:1060BC0091E7227892064FEA562A06D40279A2EB8F
:1060CC000902D2B2924528BF924699424FEA4A271A
:1060DC0008D2A06853460068424600F0A7FD00288D
:1060EC00E1D1C6E753448B42F3D92430019100F03F
:1060FC0049FA01990028ECD1BBE7A81B03B0BDE815
:10610C00F08F73B501220DF10701D0E90456044656
:10611C00FFF749FF01280ABF9DF807004FF0FF3039
:10612C00C4E9045602B070BD37B5436913F4F07F6F
:10613C000446C3F3431500D099B901220DF10701B0
:10614C002046FFF730FF40B2012802D0002003B0F8
:10615C0030BD63691F33A0686361303000EB4510BC
:10616C00F5E72033F7E72DE9F0410278076904469B
:10617C000D4662B14069884202D019B9216165614E
:10618C00012006E0160706D5E3698B420BD2276186
:10619C000020BDE8F081910605D5A3681B89B5EBFD
:1061AC00431FECD9F3E7D4F808C09CF80660431EF3
:1061BC0006F109016E1ECB40CE40B34200D898B90F
:1061CC0053064CBFDCF82030236A236104F110081D
:1061DC00002ED4D02169A068424600F024FA002891
:1061EC0006F1FF36F4DCD2E7F61AEFE7F8B50F4606
:1061FC0004461546002124221E4602F067FDB868AD
:10620C00A060A58005F00F053B6AE3606A0100EB16
:10621C00451595F83B301F0744D403F01703237042
:10622C0095F83B1011F0180F04BF43F008032370CE
:10623C009DF81830E37006F00303012B2CD0022BD1
:10624C0028D07BBB71052DD40123A370A1788B07BB
:10625C0004D52378DF0625D4DD0723D4B31123F02E
:10626C007F0306F008052B430B43A370C36AA3619D
:10627C008318B3F84420B3F84A1041EA024172057E
:10628C0013D559B9A37843F00403A370730410D445
:10629C000120F8BD0323D8E70223D6E700F063FA08
:1062AC000028EFD100202070F3E72162DB6CE36162
:1062BC00ECE7E1692046FFF756FF0028E8D1F1E74B
:1062CC0038B5037804460BB9012038BD83785A07DA
:1062DC0023D50121FFF752FE054628B9637843F018
:1062EC00010363700020F0E70378E52BF6D02378E8
:1062FC001B0744BFE369C361236A4383638C8382B6
:10630C00094B1B682BB100F11601183098472B8BE9
:10631C006B82A37823F00403A370A068FFF7C9FA7B
:10632C000028DBD0D0E700BFA0E6032010B5044660
:10633C00FFF7C6FF0023237010BDF0B593B01F46C6
:10634C00002309930378019206460C4613B10020F2
:10635C0013B0F0BD0B7813F0700FF8D013782F2B0F
:10636C0012D1019A13782F2B02D101320192F8E746
:10637C00A1681BB93046FFF710FEE9E709A8FFF743
:10638C009FFD0028E3D009AC019801AA03A9FFF7EF
:10639C00ADFA0028DBD0019B1B789BB1002303AA2C
:1063AC0021463046FFF7D4FB0028D0D035460FCD20
:1063BC0009AC0FC40FCD0FC42B6823603046FFF718
:1063CC00B5FFE0E73B4603AA21463046FFF7C0FB8A
:1063DC00BEE700002DE9F04703788946190704460B
:1063EC0017465BD583789A0758D51B0751D4636938
:1063FC00DB43BB4252D3B84604F1100A6669B8F1CC
:10640C00000F00F09180A0684379C6F3080513EAE9
:10641C0056260ED16DB92169002946D0524600F09E
:10642C0002F900283ADB04D12046FFF75FFD002873
:10643C0034D02169A06800F0F0F83118A06815B9C3
:10644C00B8F5007F3FD2C5F50076464528BF4646D5
:10645C00002D36D16269E3699A4234BF01220522CC
:10646C00243000F0B7F8C8B12844324649463544C8
:10647C0002F01EFCB5F5007F04D1A068243000F0BA
:10648C0081F858B1636933446361B144A8EB0608E1
:10649C00B4E7C169FFF767FE0028A8D1637843F021
:1064AC00010363704FF0FF3050E0236A3BB9204684
:1064BC00FFF71CFD0028F1D023692362B9E72361A3
:1064CC00B7E70122CCE7B8F5806FC26A1BD390F80E
:1064DC0004C0ACEB0606F3B24FEA582E734528BF46
:1064EC00734691424FEA432607D31A448A4282BF2D
:1064FC004FF0FF3280F82450C262A5684A462868E3
:10650C0000F04BFCBDE7914202BF4FF0FF3380F827
:10651C002450C362A3684A46186800F0C8FB0028E0
:10652C00BCD04FF40076ADE7E269A378B24204D256
:10653C00E66143F00403A37003E0084A1268002AE2
:10654C00F7D194F90230002B02DB3846BDE8F08716
:10655C002046FFF7B5FE0028F7D19FE7A0E6032001
:10656C0013B50446084659B1019102F0EDFB2368BE
:10657C000199DB680246204602B0BDE8104018477E
:10658C0002B010BD37B50378DA07044620D543684E
:10659C00816800F10C021868019200F088FB019AE6
:1065AC00054618B90025284603B030BD23789B0753
:1065BC0004D4237823F001032370F4E7D4E90130E9
:1065CC0019690144186800F072FB0028F1D1E9E761
:1065DC000125E8E770B583688B4204460E461546E4
:1065EC0009D0FFF7CFFF08B9002070BD6B070AD5A3
:1065FC0000232370A660227805F00305204615437E
:10660C0000F80C5BF1E7636804F10C021868314682
:10661C0000F0C4FA0028EBD1E6E78379406902392F
:10662C00994008447047012970B505460C4616463A
:10663C0002D84FF0FF3070BDC3698B42F9D3C379D8
:10664C00202B16D18169022201EBD41100F50C70BC
:10665C00FFF7C0FF0028ECD004F07F0450F8243082
:10666C0023F07043EA699A4226BF33600120002070
:10667C00E1E7102BDDD1C1F3072381690222194414
:10668C0000F50C70FFF7A6FF0028D2D0E4B230F86A
:10669C001430E7E7012938B50C46154601D800201F
:1066AC0038BDC3698B42FAD3C379202B0FD18169D2
:1066BC00032201EBD41100F50C70FFF78BFF0028BF
:1066CC00EDD004F07F0440F824500120E8E7102BB3
:1066DC00E5D1C1F3072381690322194400F50C703D
:1066EC00FFF778FF0028DAD0E4B220F81450ECE77A
:1066FC002DE9F341C4688C4205460E46904601D301
:10670C00012701E00C460027EB690134A34202D2B9
:10671C00C7B9EC68F4E7A64214D001AA2146284672
:10672C00FFF781FF00280DDBEED0019B002BEBD196
:10673C0007B1EC606FF0704221462846FFF7AAFFC4
:10674C00074620B90027384602B0BDE8F08116B9DB
:10675C00C8F80040F7E7224631462846FFF79AFF73
:10676C000028F5D1EEE773B505460C4601AA214683
:10677C002846FFF758FF061E10DB0022214628464C
:10678C00FFF788FF50B1EB68A34224BF04F1FF343C
:10679C00EC60019C002EE9D102B070BD0020FBE73B
:1067AC00012370B50022C3604FF0FF330446C27161
:1067BC0000F12406806280F82420C362C0F8340201
:1067CC0080F83022C0F838320D46B9B1042901D90D
:1067DC00002070BD11463046FFF7FCFE0028F7D0B4
:1067EC0000EB051393F8AE315B06F1D105F11B01FB
:1067FC0000EB0110D0F80650002DE9D000222946FC
:10680C003046FFF7E7FE0028E2D0B0F80B30B3F5C6
:10681C00007FDDD1037C022BDAD1C389002BD7D0CA
:10682C00417B21714B1E63710023A3710926012347
:10683C00994207D0013ECBD0A2795B000132DBB28A
:10684C00A271F5E7C18A01B9416A2161C3892B4460
:10685C00A361B0F81120228103EB41032362B0F84D
:10686C001110490101F2FF1103EB51236361B0F8E0
:10687C00132002B9026AE91AA3791144D9404B1CBE
:10688C00E36140F6F473994202D80C23E3719FE75D
:10689C004FF6F473994285BFC36A236210232023F9
:1068AC00E371012095E700F0CBBA00F0AEBA00001E
:1068BC0070B50E4E0D46144600F02AFB3368C01A14
:1068CC000B4B984208D900F02BFB0A4B186000F0D8
:1068DC002BFD00F01DFB306000F022FB80B2401B52
:1068EC00A042D4BF0020012070BD00BFA8E6032049
:1068FC00A086010040E7032038B5057A04464DB95F
:10690C00406800F06BFA63682946187D01F08FFC33
:10691C000123237238BD10B5037A04466BB143686A
:10692C000121187D01F083FC6068FF21FFF7BBFF9C
:10693C00606800F067FA0023237210BDF8B50446B6
:10694C000D46164600F0ECFA87B26068FFF7ADFF13
:10695C00FF2860720ED14FF47A7239462046FFF749
:10696C00A7FF0028F1D0552320462370FFF7D3FF53
:10697C000020F8BDFE2801D05023F5E760683246B0
:10698C00294600F047FA607208B16023ECE76068B2
:10699C00FFF78BFF6068FFF788FF0120E9E770B510
:1069AC0004460E4600F0BCFA85B232462946204613
:1069BC00FFF77EFF30B96068FFF777FFFF28F4D14F
:1069CC00012070BD0020FCE7F7B5037A0192044664
:1069DC000D460BB9FFF790FF25B14FF49671204689
:1069EC00FFF7DDFF606845F04001FFF75CFF032611
:1069FC0001AFB95D6068FFF756FF013EF9D2002D7B
:106A0C0060680CBF95218721FFF74DFF6068FFF789
:106A1C004CFF0B256068FFF748FF0306607203D537
:106A2C00013D15F0FF05F5D103B0F0BD70B504467E
:106A3C000D46164637210022FFF7C6FF324629467F
:106A4C002046BDE87040FFF7BFBF00002DE9F041C4
:106A5C0000250572057085724160044690461E46FD
:106A6C0000F05EFA41460746606800F0BBF96368C7
:106A7C00494A1D720125DA601D822046FFF73CFF52
:106A8C0063682946187D01F0D2FB0A256068FF2156
:106A9C00013DFFF708FF15F0FF05F7D163682946A4
:106AAC00187D01F0C4FB0A25002211462046FFF791
:106ABC008BFF0128804618D0013D15F0FF0507D14A
:106ACC00202320462370FFF726FF0020BDE8F0812D
:106ADC006068FD21FFF7E7FE4FF402786068FFF76E
:106AEC00E4FEB8F10108F9D1DEE74FF4D5720821C4
:106AFC002046FFF769FF052814D184F80A80002589
:106B0C00BFB22A4629212046FFF790FF0246D8B192
:106B1C004FF4FA6239462046FFF7CAFE0028F0D03F
:106B2C004323CEE704256068FFF7BFFE013D15F057
:106B3C00FF056072F7D1AA2804D10223A3724FF08B
:106B4C008045DDE72523BCE7A37A022B18D13A2137
:106B5C002046FFF739FF08B13723B2E76068FFF72B
:106B6C00A4FE00F0C000C02804BF0323A372606819
:106B7C00FFF79BFE6068FFF798FE6068FFF795FED5
:106B8C002046FFF7C8FE63683079B168B2891A8273
:106B9C001872D960012099E790D0030038B5837A38
:106BAC00032B18BF490215460A4611210446FFF76C
:106BBC000BFF30B1302323702046FFF7ACFE0025CD
:106BCC000BE029464FF400722046FFF7B7FE05464E
:106BDC000028F1D02046FFF79EFE284638BD10B5A0
:106BEC00837A032B0A4618BF4A0212210446FFF788
:106BFC00EBFE30B1312320462370FFF78CFE0020D2
:106C0C0010BD0120FCE710B500220C210446FFF753
:106C1C00DBFE30B1282320462370FFF77CFE0020DA
:106C2C0010BD2046FFF777FE0120F9E7F8B50446C2
:106C3C0016461F46FFF7D3FF68B10025ABB29F4243
:106C4C0006EB452109D94FF400722046FFF776FE7A
:106C5C0001350028F2D10020F8BD2046BDE8F840EF
:106C6C00FFF7D1BF38B5044615464068FFF71BFE49
:106C7C004FF400726068294600F0E6F86068FF2166
:106C8C00FFF711FE6068FF21FFF70DFE6068FFF74C
:106C9C000CFE607200F01F00052806D0572320461A
:106CAC002370FFF738FE002038BD0120FCE770B5DB
:106CBC00837A032B18BF490215460A46182104464D
:106CCC00FFF782FE064630B1322323702046FFF7D1
:106CDC0022FE00251FE02A46FE212046FFF7C2FFB8
:106CEC000028F3D04FF4FA612046FFF758FE054612
:106CFC0008B95A23E9E732460D212046FFF764FE16
:106D0C0008B12923E1E76068FFF7CFFD0028F8D12F
:106D1C002046FFF700FE284670BD13B501914FF4D5
:106D2C00FA610446FFF73BFE019A30B95B232370EE
:106D3C002046FFF7F0FD002005E0FC212046FFF780
:106D4C0091FF0028F4D002B010BD10B5837A032B4C
:106D5C000A4618BF4A0219210446FFF735FE30B126
:106D6C00332320462370FFF7D6FD002010BD0120F1
:106D7C00FCE738B54FF4FA610446FFF710FE054600
:106D8C0030B9562323702046FFF7C5FD284638BD81
:106D9C006068FD21FFF787FDF5E7F8B50446164658
:106DAC001F46FFF7D2FF70B10025BD4206EB45210F
:106DBC00204604D0FFF7B1FF28B10135F5E7BDE857
:106DCC00F840FFF7D6BF2046FFF7A5FD0020F8BD21
:106DDC00014B01221A707047ACE60320011D0068BC
:106DEC0000F0AEBB10B504460175006800F052FB14
:106DFC00207D012101F00AFA207D0121BDE810401F
:106E0C0001F015BA006800F081BB0068FF2100F0AA
:106E1C005DBC000037B51346074A00920025074CAD
:106E2C00006825700A46294600F056FC2378002B92
:106E3C00FCD0002003B030BDDD6D0B00ACE60320B0
:106E4C00006800F043BC000037B51346064A0092B8
:106E5C000025064C006825702A4600F03DFC23787E
:106E6C00002BFCD003B030BDDD6D0B00ACE6032075
:106E7C0008B5024B1B689B68019308BD68020300B0
:106E8C0008B5024B1B68DB68019308BD6802030060
:106E9C0008B5024B1B685B68019308BD2C0203000C
:106EAC0008B5024B1B689B68019308BD2C020300BC
:106EBC0008B5024B1B68DB68019308BD2C0203006C
:106ECC0008B5024B1B681B69019308BD2C0203001B
:106EDC0008B5024B1B685B69019308BD2C020300CB
:106EEC0008B5024B1B681B6B019308BD2C020300F9
:106EFC0008B5024B1B685B68019308BD18020300C0
:106F0C0008B5024B1B68DB68019308BD180203002F
:106F1C0008B5024B1B681B69019308BD18020300DE
:106F2C0008B5024B1B685B69019308BD180203008E
:106F3C0008B5024B1B689B6D019308BD180203003A
:106F4C0008B5024B1B685B6E019308BD1802030069
:106F5C0008B5024B1B685B6C019308BD480203002B
:106F6C0008B5024B1B685B69019308BD6402030002
:106F7C0008B5024B1B68DB68019308BD3C0203009B
:106F8C0008B5024B1B681B69019308BD3C0203004A
:106F9C0008B5024B1B685B69019308BD3C020300FA
:106FAC0008B5024B1B689B69019308BD3C020300AA
:106FBC0008B5024B1B68DB69019308BD3C0203005A
:106FCC0008B5024B1B681B6A019308BD3C02030009
:106FDC0008B5024B1B689B6A019308BD3C02030079
:106FEC0008B5024B1B681B6C019308BD3C020300E7
:106FFC0008B5024B1B68DB68019308BD280203002F
:10700C0008B5024B1B689B69019308BD280203005D
:10701C0008B5024B1B68DB69019308BD280203000D
:10702C0008B5024B1B681B6A019308BD28020300BC
:10703C0008B5024B1B685B6A019308BD280203006C
:10704C0008B5024B1B689B6A019308BD280203001C
:10705C0008B5024B1B68DB6A019308BD28020300CC
:10706C0008B5024B1B681B6B019308BD280203007B
:10707C0008B5024B1B685B6B019308BD280203002B
:10708C0008B5024B1B681B6C019308BD280203005A
:10709C0008B5024B1B681B6D019308BD2802030049
:1070AC0008B5024B1B681B68019308BD3002030036
:1070BC0008B5024B1B689B68019308BD30020300A6
:1070CC0008B5024B1B68DB68019308BD3002030056
:1070DC0008B5024B1B681B69019308BD3002030005
:1070EC0008B5024B1B685B69019308BD30020300B5
:1070FC0008B5024B1B68DB69019308BD3002030025
:10710C0008B5024B1B681B6A019308BD30020300D3
:10711C0008B5024B1B685B6A019308BD3002030083
:10712C0008B5024B1B689B6A019308BD3002030033
:10713C0008B5024B1B689B6B019308BD3002030022
:10714C0008B5024B1B68DB6B019308BD30020300D2
:10715C0008B5024B1B681B6C019308BD3002030081
:10716C0008B5024B1B685B6C019308BD3002030031
:10717C0008B5024B1B681B68019308BD4C02030049
:10718C0008B5024B1B685B68019308BD4C020300F9
:10719C0008B5024B1B681B69019308BD4C02030028
:1071AC0008B5024B1B685B69019308BD4C020300D8
:1071BC0008B5024B1B689B69019308BD4C02030088
:1071CC0008B5024B1B68DB69019308BD4C02030038
:1071DC0008B5024B1B681B6A019308BD4C020300E7
:1071EC0008B5024B1B685B6A019308BD4C02030097
:1071FC0008B5024B1B685B6B019308BD6002030072
:10720C0008B5024B1B681B68019308BD20020300E4
:10721C0008B5024B1B685B68019308BD2002030094
:10722C0008B5024B1B685B69019308BD2002030083
:10723C0008B5024B1B689B6D019308BD200203002F
:10724C0008B5034B1B68D3F88830019308BD0000C8
:10725C002002030008B5034B1B68D3F8943001934C
:10726C0008BD00002002030008B5024B1B685B68D8
:10727C00019308BD4002030008B5024B1B689B68D4
:10728C00019308BD4002030008B5024B1B68DB6884
:10729C00019308BD4002030008B5024B1B681B6933
:1072AC00019308BD4002030008B5024B1B685B69E3
:1072BC00019308BD4002030008B5024B1B689B6993
:1072CC00019308BD4002030008B5024B1B68DB6943
:1072DC00019308BD4002030008B5024B1B681B6AF2
:1072EC00019308BD4002030008B5024B1B681B6BE1
:1072FC00019308BD4002030008B5024B1B685B6B91
:10730C00019308BD4002030008B5024B1B681B6CBF
:10731C00019308BD4002030008B5024B1B685B6C6F
:10732C00019308BD4002030008B5024B1B689B6823
:10733C00019308BD4402030008B5024B1B685B694E
:10734C00019308BD4402030008B5024B1B68DB6ABD
:10735C00019308BD4402030008B5024B1B681B6B6C
:10736C00019308BD4402030008B5024B1B68DB6B9C
:10737C00019308BD4402030008B5024B1B681B684F
:10738C00019308BD1C02030008B5024B1B685B6827
:10739C00019308BD1C02030008B5024B1B689B68D7
:1073AC00019308BD1C02030008B5024B1B681B6946
:1073BC00019308BD1C02030008B5024B1B685B6AF5
:1073CC00019308BD1C02030008B5024B1B681B6C23
:1073DC00019308BD1C02030008B5024B1B685B6CD3
:1073EC00019308BD1C02030008B5024B1B68DB6C43
:1073FC00019308BD1C020300002240681146FFF7F0
:10740C006BBF002240681146FFF776BF4068002230
:10741C00FFF76ABF4068002281F00101FFF754BFFB
:10742C00002340681A461946FFF746BF0023406800
:10743C001A461946FFF738BF002240681146FFF77D
:10744C002BBF002240681146FFF716BF4068002290
:10745C000221FFF719BF002340681A46FFF704BF4B
:10746C00024B03225A60024A1A607047B0E60320AE
:10747C0078950B000021FFF773BE0021FFF768BE63
:10748C0010B5044608462170FFF732FE00236360F6
:10749C00204610BD13B504460078FFF7EEFF58B92F
:1074AC00207801904FF6FF71FFF7FAFD019802B0BA
:1074BC00BDE81040FFF7DEBF02B010BD13B50446A7
:1074CC0000780191FFF7D9FF019948B92078019014
:1074DC00FFF7EEFD019802B0BDE81040FFF7CABF00
:1074EC0002B010BD13B5044600780191FFF7C5FF3B
:1074FC00019948B920780190FFF7E2FD019802B09C
:10750C00BDE81040FFF7B6BF02B010BD0078FFF722
:10751C00B1BF0000400830B51860002418688842DC
:10752C00E5B206D90134082C02D040081860F5E702
:10753C000725024B5B5D137030BD00BFAC950B0093
:10754C002DE9F04306468FB000780C46FFF795FF07
:10755C0000281BDB35781422002109A801F0B6FBAA
:10756C000B23002209A92846ADF82430FFF7D0FDE3
:10757C009DF82D3013B19DF82C5055B10027B9460C
:10758C00B846012523795DB1C3B100200FB0BDE829
:10759C00F083DDF830809DF834909DF83570F1E77C
:1075AC00002B35D1A368434508D18DF820908DF878
:1075BC002170BDF82020A3899A42E6D00023A1684F
:1075CC008DF80F300A9804AB0DF10F02FFF7A2FFF4
:1075DC00217985B989B9A36843450ED38DF82090DC
:1075EC008DF82170BDF82020A3899A4205D1049B07
:1075FC00434502D1C9E70029F9D100230193637BEC
:10760C0000939DF80F20237B3078FFF799FDBCE7A2
:10761C00CDE900552B462A460121F5E72DE9F0412D
:10762C0088B000230446007802930E461746FFF7F5
:10763C0024FF054600BB94F800800146142203A8E1
:10764C0001F044FB0B232A4603A94046ADF80C304D
:10765C00FFF75EFD04988DF8075002AB0DF10702A1
:10766C0007FB06F1FFF756FF20789DF80710FFF790
:10767C002FFD2078FFF7FEFE029808B0BDE8F081E0
:10768C0038B5044600780D46FFF7F7FE0346D0B92F
:10769C00616899B10C4A12F8010B854202D0013392
:1076AC00082BF8D10133DBB20122D9402046FFF779
:1076BC00B5FF2078BDE83840FFF7DCBE20782946BE
:1076CC00FFF706FDF5E738BDAC950B0008B5007863
:1076DC00FFF706FDC0B208BD30B587B004460A9D61
:1076EC0000950078FFF71CFD3DB9207802A9FFF743
:1076FC001FFD9DF81430DB07F7D407B030BD000038
:10770C00054B02221A60054B054A9A600020C3E91A
:10771C000000FFF77DBD00BFC4E60320B8E60320E0
:10772C000000FFFF10B504460068FFF72DFE204651
:10773C0010BD10B50446006808B1FFF725FE002304
:10774C00C4E90133236010BD38B504460D4600680A
:10775C000131FFF721FE10B1C4E90005012038BD4D
:10776C0010B50368044623B143688B4201D3012052
:10777C0010BD2046FFF7E8FF0028F9D0A368002BC6
:10778C00F5D122681370F2E737B50D461146019218
:10779C000446FFF7E5FF019A28B92046FFF7C9FF19
:1077AC00204603B030BDA2602946206801F080FA63
:1077BC002268A3680021D154F2E7002313B5C0E975
:1077CC00003304468360037341B10846019101F014
:1077DC00BBFA019902462046FFF7D6FF204602B0BD
:1077EC0010BD38B5054600680C4668B16A688B68F0
:1077FC009A4207D3096801F09FFAA368AB60002393
:10780C00A36038BDFFF7C0FD23682B6063686B6015
:10781C00A368AB600023C4E90033F1E7884210B5DC
:10782C00044601D0FFF7DDFF204610BDF8B59A42A3
:10783C000F461D460C4988BF13461446064684BFA6
:10784C002C461D46FFF7B9FFBB68A3420AD3396823
:10785C00AB4294BFC4EB0302C4EB05022144304697
:10786C00FFF792FF3046F8BD328F0B000248002321
:10787C000360FFF76DBB00BFC8E60320F8B50646F2
:10788C000D468F180024BD420CD0336815F8011B2F
:10789C009B6830469847031E01DB1C44F3E7002C21
:1078AC0008BF1C462046F8BD08B5FEF759FE08BDBA
:1078BC0003689B68184738B50D210546FFF7F8FF9C
:1078CC000A2104462846FFF7F3FF204438BD30B5A3
:1078DC008BB00023012A8DF8243098BF0A2209AC02
:1078EC000D46B1FBF2F101FB125303F0FF03092B20
:1078FC0094BF30333733DBB2AA4204F8013DEFD9E1
:10790C002146FEF72DFE0BB030BD2DE9F04186B0BF
:10791C0000AF05460E46381D142114463B60FFF798
:10792C004BFD13280ED8391D2846FEF719FE0446C8
:10793C001EB12846FFF7BFFF044420461837BD464A
:10794C00BDE8F08100F1080323F00703E846ADEB36
:10795C00030D2246411C3B686846FFF72DFD694626
:10796C002846FEF7FDFD0446C546E1E700234068C6
:10797C001A461946FFF798BC014B024A1A60704729
:10798C00CCE60320B4950B0008B50020FFF7E4FC0F
:10799C0028B1FFF7D1FC80F00100C0B208BD012076
:1079AC00FCE70000FAEE087AB4EEE70AF1EE10FA02
:1079BC0008B511D4F2EE0C7AB4EEE70AF1EE10FA37
:1079CC000ADCDFED067A60EE277A17EE900A01F0FA
:1079DC00FFF8034BC3E9000108BD00BF000061457F
:1079EC00E0E6032030B593B0CDE90023194B0446F3
:1079FC00D3E90010019B521843EB00031648D0E961
:107A0C000010521843EB0003CDE9002324220DEBA8
:107A1C000200002101F05AF9002509A96846FFF778
:107A2C00E3FC1622294603A8029501F04FF902A99E
:107A3C0009A801F001F902A801F086F912AB18446B
:107A4C0002A900F8415C2046FFF7B7FE204613B0B0
:107A5C0030BD00BFE0E60320D8E6032010B50020BF
:107A6C00FFF766FA0446A0B9FFF7CAFB012810D14C
:107A7C002046FFF7DDFB60B9FFF786FF10B9FFF773
:107A8C0053FCF9E7FFF780FFBDE810400020FFF73B
:107A9C004FBA204610BD1FB5FFF7E0FF10220021A2
:107AAC00684601F013F900216846FFF749FA00987F
:107ABC0005B05DF804FB0000024B1A68024B1A601B
:107ACC00704700BFBCE00320D0E603200021FFF785
:107ADC00A7BB0000014B00229A607047E8E6032028
:107AEC00014B1860704700BFC0E0032008B50B4B7A
:107AFC0043B100F06DF903681B699847002801DD5C
:107B0C00AFF30080064B43B100F012FC03681B6915
:107B1C009847002801DDAFF3008008BD000000008D
:107B2C000000000008B5FFF7E1FFFFF7F9F9014B82
:107B3C00186008BD40E703200548064A064908B509
:107B4C00121A01F0B5F8054B054A1A6008BD00BFC2
:107B5C0000F4032004F4032000980B0000F403202D
:107B6C001E1C279A07B5002300931A466FF0770165
:107B7C00FFF770FB03B05DF804FB000007B543880A
:107B8C000A2B08D0502B0BD1094B1B684BB103B0FF
:107B9C005DF804EB1847FFF7E5FF03B05DF804FB55
:107BAC00002300931A466FF07701FFF753FBF4E7BD
:107BBC00FCE6032010B512480021FFF70DFC114B19
:107BCC001A68114B9A42114B0CBF012200221A70F9
:107BDC0001D0FFF7B1FFFFF78BF9044601F07EF8F7
:107BEC000B4B13B12046AFF3008000210848FFF780
:107BFC00BBFBBDE8104007480021FFF721BB00BFCD
:107C0C00ED7A0B0000F403201E1C279AF8E60320E3
:107C1C0000000000897B0B00704710B5182104464A
:107C2C00FCF733FA204610BDF0B5037D062B8DB062
:107C3C000E4600F104074FF0000412D000F10805C5
:107C4C0015F8011D0A223046FFF741FEAF420444ED
:107C5C0019D0002CF4D02E213046FFF729FE044415
:107C6C00EEE72F236A4639460A208DF80040FFF7CD
:107C7C0077F9684601F068F833680246DB686946B4
:107C8C0030469847044620460DB0F0BD10B5054B64
:107C9C000446112240F8043B002101F017F820465D
:107CAC0010BD00BFDC950B000346074A10B543F826
:107CBC00042B01F1100251F8044B43F8044B914290
:107CCC00F9D10A781A7010BDDC950B0010B59DF82F
:107CDC00084044EA032343EA024242EA01610423D6
:107CEC004160037510BD000007B5064B0360CB78EF
:107CFC0000938B784A780978FFF7E8FF03B05DF8BA
:107D0C0004FB00BFDC950B00417470477047704753
:107D1C0008B50021007CFFF74BFA40EAE07008BD83
:107D2C0008B50121007CFFF743FA40EAE07008BD7A
:107D3C0008B5007CFFF734FA20EAE07008BD08B5FE
:107D4C00007CFFF725FA20EAE07008BD13B5044665
:107D5C00007C0191FFF724FA0028019901DC607C7A
:107D6C0020B1207CFFF72CFA20EAE07002B010BDA5
:107D7C00007CFFF72DBA10B514210446FCF785F9E9
:107D8C00204610BD10B54FF47A7304460846002106
:107D9C00C4E90113044B236001232074637411465E
:107DAC00FFF7E6F9204610BDF0950B00007C002291
:107DBC00FFF7E6B9007CFFF713BAFFF7FBBF10B56E
:107DCC0014220446002100F081FF204610BD000063
:107DDC0010B50F4C88B003A8FFF7F1FF2178BFF363
:107DEC005B8F11F001010FD120460191FCF75AF97C
:107DFC00019948B103AA0748FFF7C4FF2046FCF7D6
:107E0C0056F9054800F03EFF024808B010BD00BF0F
:107E1C0000E7032004E70320197D0B007047417431
:107E2C00704708B5007CFFF7D3F820EAE07008BD76
:107E3C0008B5007CFFF7A4F820EAE07008BD08B58F
:107E4C00007CFFF7ADF840EAE07008BD08B5007C97
:107E5C00FFF79EF840EAE07008BD007CFFF7A8B879
:107E6C0037B5457C04462DB1207C03B0BDE83040CD
:107E7C00FFF77EB8007C0191FFF7AAF80028019962
:107E8C00F2DC284603B030BD10B514210446FCF7D3
:107E9C00FCF8204610BD000010B54FF47A73044670
:107EAC00084611460022C4E90123044B2360012338
:107EBC0020746374FFF794F8204610BD20960B00D5
:107ECC007047F8B5064615460C468F18BC4206D0CE
:107EDC00336814F8011B9B6830469847F6E7284630
:107EEC00F8BD007C0022FFF79BB8007C0021FFF757
:107EFC009FB8007C0021FFF7A3B8007C0021FFF79E
:107F0C00A7B8007C0021FFF7ABB810B514210446CC
:107F1C00FCF7BBF8204610BD10B54FF47A7304463D
:107F2C0008460021C4E90113034B23602074114659
:107F3C00FFF7A6F8204610BD50960B000023007CDE
:107F4C001A461946FFF754B87FB500221423CDE921
:107F5C000122ADF804300B788DF808304B68039390
:107F6C00CB680493007C0B7A059301A9FFF790F87A
:107F7C0007B05DF804FB1FB5003B8DF800104FF007
:107F8C006401039118BF0123694601928DF80830F2
:107F9C00FFF7DAFF05B05DF804FB0123FFF7EBBF39
:107FAC00007C0022FFF72CB8C9B2FFF7F9BF007CA8
:107FBC000022FFF72DB80121FFF7F9BF002240681E
:107FCC001146FFF769B9002240681146FFF784B9E2
:107FDC00002240681146FFF78FB940680022FFF776
:107FEC0083B94068002281F00101FFF76DB90023CD
:107FFC0040681A461946FFF75FB9002240681146DF
:10800C00FFF73AB9406800220221FFF73DB900237F
:10801C0040681A46FFF728B9024B04225A60024AFC
:10802C001A60704718E7032078960B00002340680D
:10803C001A46FFF719B9406800220221FFF724B94C
:10804C00002240681146FFF717B90022406811461C
:10805C00FFF722B9002340681A461946FFF724B9E6
:10806C00002340681A461946FFF726B940680021DC
:10807C00FFF74AB940680021FFF74EB9406800226B
:10808C0081F00101FFF720B940680022FFF72CB9FD
:10809C00002240681146FFF72FB9002240681146B4
:1080AC00FFF71AB92DE9F04395B014460D46074673
:1080BC00FFF7ECFD00211C220DA8009100F006FE3C
:1080CC0040230C9320466B460CAA0021FEF7D8FEE9
:1080DC00044600284BD1024601216868FFF7DCF802
:1080EC000221804622466868FFF7D6F8009E81463A
:1080FC002146002E3BD0002939D17368022B03D0C6
:10810C000A2B11D0F669F4E7B8F1000FFAD07169B7
:10811C0006A8043107ADFFF7E7FD0FCD3C1D0FC4DA
:10812C002B6823704146EDE7B9F1000FEAD0746972
:10813C00102201A800F0CAFD06238DF8143001AD01
:10814C0004F108031834186859682A4603C2083326
:10815C00A3421546F7D101A906A807ADFFF7A4FD68
:10816C000FCD3C1D0FC42B6823704946CAE70098FD
:10817C00FEF77EFE384615B0BDE8F083024B034A8D
:10818C001A6000225A60704720E70320B4960B0057
:10819C00232813B502D9002002B010BDA0F10B03A7
:1081AC00022B1AD8174C2178BFF35B8F11F0010109
:1081BC000BD120460191FBF775FF019928B11248AC
:1081CC00FFF75EF92046FBF772FF0F4B1878FEF7AE
:1081DC0097FF0028DFD10120DEE7012809D800F045
:1081EC00E3F80021007CFEF743FF80F00100C0B2F1
:1081FC00D2E709380128EED800F09AF8007CFEF797
:10820C00DFFEF2E728E103202CE10320232838B518
:10821C0004460D460AD8FF2908D0FFF7B9FF28B14C
:10822C0029462046BDE83840FEF73ABE38BD38B581
:10823C0004460D46FEF73CFEFF2810D0062804D855
:10824C004D2323FA00F0C30709D42046FFF7A0FF03
:10825C0028B129462046BDE83840FEF731BE38BD6E
:10826C0010B50446FEF724FE031FDBB2012B08D920
:10827C002046FFF78DFF20B12046BDE81040FEF7E9
:10828C0027BE002010BD0D2810B504469CBF0E342F
:10829C00A4B22046FFF77CFF50B103212046FEF725
:1082AC00F7FD032804D12046BDE81040FEF718BEA8
:1082BC00002010BD2DE9F04190461F4607240646CC
:1082CC000D46C4F10701B8F1000F12D147FA01F1C4
:1082DC0001F001013046FFF7AAFF01212846FFF704
:1082EC00A6FF00212846FFF7A2FF013CE9D2BDE81A
:1082FC00F08147FA04F1EBE77047000038B504460B
:10830C0014252A46002100F0E1FC25804025074970
:10831C0025812846258200F06BF8044960602846C8
:10832C0000F066F8E060204638BD00BFE8960B0010
:10833C0030B50E4D2978BFF35B8F11F0010487B077
:10834C0011D12846FBF7AEFE68B101A8FFF7D6FFA6
:10835C0001AA21460648FFF79FFD2846FBF7A7FE1A
:10836C00044800F08FFC024807B030BD28E703201A
:10837C002CE7032005830B007047000038B520253F
:10838C00142304460360856005610649284600F005
:10839C002FF804496060284600F02AF8E060204677
:1083AC0038BD00BFE8960B0030B50E4D2978BFF3F1
:1083BC005B8F11F0010487B011D12846FBF772FED8
:1083CC0068B101A8FFF7DAFF01AA21460648FFF7BA
:1083DC00A3FD2846FBF76BFE044800F053FC024853
:1083EC0007B030BD44E7032048E7032085830B002A
:1083FC00FBF749BE81F0004102E000BF83F000436F
:10840C0030B54FEA41044FEA430594EA050F08BF23
:10841C0090EA020F1FBF54EA000C55EA020C7FEAE7
:10842C00645C7FEA655C00F0E2804FEA5454D4EB64
:10843C005555B8BF6D420CDD2C4480EA020281EA2E
:10844C00030382EA000083EA010180EA020281EA66
:10845C000303362D88BF30BD11F0004F4FEA0131B8
:10846C004FF4801C4CEA113102D0404261EB4101C7
:10847C0013F0004F4FEA03334CEA133302D052424D
:10848C0063EB430394EA050F00F0A780A4F1010409
:10849C00D5F1200E0DDB02FA0EFC22FA05F2801843
:1084AC0041F1000103FA0EF2801843FA05F3594129
:1084BC000EE0A5F120050EF1200E012A03FA0EFCA8
:1084CC0028BF4CF0020C43FA05F3C01851EBE371D2
:1084DC0001F0004507D54FF0000EDCF1000C7EEBEF
:1084EC0000006EEB0101B1F5801F1BD3B1F5001F2D
:1084FC000CD349085FEA30004FEA3C0C04F101044C
:10850C004FEA445212F5800F80F09A80BCF1004F74
:10851C0008BF5FEA500C50F1000041EB045141EAF6
:10852C00050130BD5FEA4C0C404141EB0101013CBF
:10853C0028BFB1F5801FE9D291F0000F04BF0146AE
:10854C000020B1FA81F308BF2033A3F10B03B3F180
:10855C0020020CDA0C3208DD02F1140CC2F10C0210
:10856C0001FA0CF021FA02F10CE002F11402D8BF6E
:10857C00C2F1200C01FA02F120FA0CFCDCBF41EA3A
:10858C000C019040E41AA2BF01EB0451294330BD09
:10859C006FEA04041F3C1CDA0C340EDC04F11404E6
:1085AC00C4F1200220FA04F001FA02F340EA0300BD
:1085BC0021FA04F345EA030130BDC4F10C04C4F103
:1085CC00200220FA02F001FA04F340EA03002946E3
:1085DC0030BD21FA04F0294630BD94F0000F83F42D
:1085EC00801306BF81F480110134013D4EE77FEA10
:1085FC00645C18BF7FEA655C29D094EA050F08BF5C
:10860C0090EA020F05D054EA000C04BF194610463C
:10861C0030BD91EA030F1EBF0021002030BD5FEA80
:10862C00545C05D14000494128BF41F0004130BDA8
:10863C0014F580043CBF01F5801130BD01F00045FC
:10864C0045F0FE4141F470014FF0000030BD7FEA6F
:10865C00645C1ABF194610467FEA655C1CBF0B466A
:10866C00024650EA013406BF52EA033591EA030F81
:10867C0041F4002130BD00BF90F0000F04BF002179
:10868C00704730B54FF4806404F132044FF00005AC
:10869C004FF0000150E700BF90F0000F04BF002125
:1086AC00704730B54FF4806404F1320410F000458B
:1086BC0048BF40424FF000013EE700BF42004FEA86
:1086CC00E2014FEA31014FEA02701FBF12F07F4303
:1086DC0093F07F4F81F06051704732F07F4208BFBA
:1086EC00704793F07F4F04BF41F40021704730B5C1
:1086FC004FF4607401F0004521F000411CE700BF0D
:10870C0050EA010208BF704730B54FF000050AE08F
:10871C0050EA010208BF704730B511F0004502D590
:10872C00404261EB41014FF4806404F132045FEA92
:10873C00915C3FF4D8AE4FF003025FEADC0C18BF3B
:10874C0003325FEADC0C18BF033202EBDC02C2F12D
:10875C00200300FA03FC20FA02F001FA03FE40EABF
:10876C000E0021FA02F11444BDE600BF70B54FF0C3
:10877C00FF0C4CF4E06C1CEA11541DBF1CEA1355A1
:10878C0094EA0C0F95EA0C0F00F0DEF82C4481EA09
:10879C00030621EA4C5123EA4C5350EA013518BF29
:1087AC0052EA033541F4801143F4801338D0A0FB16
:1087BC0002CE4FF00005E1FB02E506F00042E0FBC3
:1087CC0003E54FF00006E1FB03569CF0000F18BFC9
:1087DC004EF0010EA4F1FF04B6F5007F64F5407471
:1087EC0004D25FEA4E0E6D4146EB060642EAC62104
:1087FC0041EA55514FEAC52040EA5E504FEACE2E71
:10880C00B4F1FD0C88BFBCF5E06F1ED8BEF1004F73
:10881C0008BF5FEA500E50F1000041EB045170BDEF
:10882C0006F0004646EA010140EA020081EA030133
:10883C00B4EB5C04C2BFD4EB0C0541EA045170BD2F
:10884C0041F480114FF0000E013C00F3AB8014F1A9
:10885C00360FDEBF002001F0004170BDC4F10004F2
:10886C00203C35DA0C341BDC04F11404C4F1200573
:10887C0000FA05F320FA04F001FA05F240EA0200CE
:10888C0001F0004221F0004110EBD37021FA04F604
:10889C0042EB06015EEA430E08BF20EAD37070BDBE
:1088AC00C4F10C04C4F1200500FA04F320FA05F01D
:1088BC0001FA04F240EA020001F0004110EBD3701F
:1088CC0041F100015EEA430E08BF20EAD37070BD8F
:1088DC00C4F1200500FA05F24EEA020E20FA04F368
:1088EC0001FA05F243EA020321FA04F001F0004117
:1088FC0021FA04F220EA020000EBD3705EEA430E88
:10890C0008BF20EAD37070BD94F0000F0FD101F0B6
:10891C000046400041EB010111F4801F08BF013CEF
:10892C00F7D041EA060195F0000F18BF704703F02D
:10893C000046520043EB030313F4801F08BF013DB4
:10894C00F7D043EA0603704794EA0C0F0CEA135570
:10895C0018BF95EA0C0F0CD050EA410618BF52EA2A
:10896C004306D1D181EA030101F000414FF0000030
:10897C0070BD50EA410606BF1046194652EA43063E
:10898C0019D094EA0C0F02D150EA013613D195EAB2
:10899C000C0F05D152EA03361CBF104619460AD1FA
:1089AC0081EA030101F0004141F0FE4141F4700104
:1089BC004FF0000070BD41F0FE4141F4780170BDF4
:1089CC0070B54FF0FF0C4CF4E06C1CEA11541DBF59
:1089DC001CEA135594EA0C0F95EA0C0F00F0A7F85B
:1089EC00A4EB050481EA030E52EA03354FEA013188
:1089FC0000F088804FEA03334FF0805545EA13139B
:108A0C0043EA12634FEA022245EA111545EA106562
:108A1C004FEA00260EF000419D4208BF964244F1F9
:108A2C00FD0404F5407402D25B084FEA3202B61A18
:108A3C0065EB03055B084FEA32024FF480104FF4EC
:108A4C00002CB6EB020E75EB030E22BFB61A754660
:108A5C0040EA0C005B084FEA3202B6EB020E75EBF3
:108A6C00030E22BFB61A754640EA5C005B084FEA5B
:108A7C003202B6EB020E75EB030E22BFB61A754628
:108A8C0040EA9C005B084FEA3202B6EB020E75EB33
:108A9C00030E22BFB61A754640EADC0055EA060EF4
:108AAC0018D04FEA051545EA16754FEA06164FEA37
:108ABC00C30343EA52734FEAC2025FEA1C1CC0D1E3
:108ACC0011F4801F0BD141EA00014FF000004FF070
:108ADC00004CB6E711F4801F04BF01430020B4F131
:108AEC00FD0C88BFBCF5E06F3FF6AFAEB5EB030CE9
:108AFC0004BFB6EB020C5FEA500C50F1000041EBE6
:108B0C00045170BD0EF0004E4EEA113114EB5C04B2
:108B1C00C2BFD4EB0C0541EA045170BD41F4801185
:108B2C004FF0000E013C90E645EA060E8DE60CEA8D
:108B3C00135594EA0C0F08BF95EA0C0F3FF43BAFAA
:108B4C0094EA0C0F0AD150EA01347FF434AF95EA61
:108B5C000C0F7FF425AF104619462CE795EA0C0F45
:108B6C0006D152EA03353FF4FDAE1046194622E712
:108B7C0050EA410618BF52EA43067FF4C5AE50EAEC
:108B8C0041047FF40DAF52EA43057FF4EBAE12E7DC
:108B9C004A0011D212F5001211D20DD56FF4787370
:108BAC00B3EB62520ED44FEAC12343F0004343EAC5
:108BBC00505323FA02F070474FF00000704750EA10
:108BCC00013002D14FF0FF3070474FF0000070477A
:108BDC0007EE900AF5EEC07AF1EE10FA01D400F02F
:108BEC000BB8F1EE677A08B517EE900A00F004F8AE
:108BFC00404261EB410108BDD0B5FFF75FFD0C4B66
:108C0C00002206460F46FFF7B1FDFFF7C1FF0446F1
:108C1C00FFF732FD074B0022FFF7A8FD02460B467B
:108C2C0030463946FFF7EAFBFFF7B2FF2146D0BDCD
:108C3C000000F03D0000F04110B50C46416903699D
:108C4C00826986B001F26C710491016803914168EC
:108C5C00029181680191C1680091074903EB4303BC
:108C6C000B44064902EB42020A4420460449FEF733
:108C7C009BFB204606B010BD1E970B0009970B00FE
:108C8C00E9960B00002301461A46184600F064B81A
:108C9C0010B501390244904201D1002005E003785F
:108CAC0011F8014FA34201D0181B10BD0130F2E79F
:108CBC000A44914200F1FF3300D1704710B511F80E
:108CCC00014B03F8014F9142F9D110BD0244034608
:108CDC00934200D1704703F8011BF9E738B5104BEC
:108CEC001D68AB6B0446B3B91820FEF745FB024672
:108CFC00A86320B90B4B0C484221FEF765FB0B49CE
:108D0C000B4BC0E900130B4B83600B2383810021B9
:108D1C000120C2E90401AB6B00221C615A6138BD11
:108D2C00C0E0032042970B0059970B000E33CDABDC
:108D3C0034126DE6ECDE0500034611F8012B03F846
:108D4C00012B002AF9D17047034613F8012B002A96
:108D5C00FBD1181A013870472DE9F843DFF8B880B9
:108D6C000646D8F800001F460D46914600F056F80E
:108D7C00254B1C6834B9254C1C60254B13B11B6862
:108D8C00C4F8883063681F2B07DDD8F8000000F0AA
:108D9C0047F84FF0FF30BDE8F8834EB3D4F88800A5
:108DAC0088B91C4B23B9D8F8000000F038F8F0E76C
:108DBC004FF48470FEF7E0FA0028F4D00023C0E9E9
:108DCC004033C4F88800636840F8239001229A402D
:108DDC0000EB8301D0F800311343C0F80031022EB0
:108DEC00C1F8807002BFD0F804311343C0F80431CD
:108DFC006368D8F800005A1C0233626044F82350B0
:108E0C0000F00EF80020C6E7E8E703205CE703203B
:108E1C000000000085730B0024E1032070477047AD
:108E2C00704700001D400B0059400B0081400B00A7
:108E3C0085400B000000000064656661756C742051
:108E4C00004D5342004C5342003C535049536574FF
:108E5C0074696E67732064656661756C743E003C62
:108E6C0053504953657474696E6773202573257567
:108E7C00202573204D4F444525753E00424D45201D
:108E8C0032383020646964206E6F7420696E6974A6
:108E9C0069616C697A6520636F72726563746C7951
:108EAC002E2020506C656173652072657365742E7D
:108EBC000A00424D45203238302072756E6E696E54
:108ECC00670A00755344206361726420696E69748B
:108EDC0069616C697A65642E0A004361726420666C
:108EEC0061696C65642C206F72206E6F74207072D7
:108EFC006573656E740A007465737446696C652ECF
:108F0C006373760054696D652C2054656D702C204C
:108F1C00507265732C204D6F697374482C204D6F03
:108F2C006973744C200A0025732C2025302E326670
:108F3C002C2025302E32662C2025692C20256920EA
:108F4C000A006572726F72206F70656E696E6720B1
:108F5C007465737446696C652E637376200A002001
:108F6C0020202054696D652069733A2025730A000E
:108F7C0054656D70657261747572653A2025302E7A
:108F8C0032660A0020202048756D69646974793A4C
:108F9C002025302E32660A004D6F69737475726528
:108FAC002048693A2025690A004D6F6973747572FF
:108FBC0065204C6F3A2025690A0000000000000073
:108FCC000000000061410B00C1400B00DF400B00B2
:108FDC000000000000000000DD400B00ED400B0025
:108FEC002D410B0027410B00C3400B0007410B0028
:108FFC0001410B00FB400B000000000000000000D2
:10900C0011510B00A1510B000D580B0089780B006E
:10901C0015510B0025550B009D4F0B002D4E0B00D1
:10902C00E3550B0081560B00B7560B00D3560B00C3
:10903C0000000000003E5B4F5B3E3E6B4F6B3E1CE6
:10904C003E7C3E1C183C7E3C181C577D571C1C5EFD
:10905C007F5E1C00183C1800FFE7C3E7FF001824D4
:10906C001800FFE7DBE7FF30483A060E262979297E
:10907C0026407F050507407F05253F5A3CE73C5AB3
:10908C007F3E1C1C08081C1C3E7F14227F22145F90
:10909C005F005F5F06097F017F006689956A6060EB
:1090AC0060606094A2FFA29408047E040810207EE5
:1090BC00201008082A1C08081C2A08081E1010106A
:1090CC00100C1E0C1E0C30383E3830060E3E0E06B0
:1090DC00000000000000005F000000070007001403
:1090EC007F147F14242A7F2A1223130864623649C2
:1090FC005620500008070300001C224100004122AA
:10910C001C002A1C7F1C2A08083E080800807030AE
:10911C00000808080808000060600020100804021D
:10912C003E5149453E00427F400072494949462123
:10913C0041494D331814127F1027454545393C4A97
:10914C0049493141211109073649494936464949AE
:10915C00291E0000140000004034000000081422F6
:10916C004114141414140041221408020159090664
:10917C003E415D594E7C1211127C7F494949363E65
:10918C00414141227F4141413E7F494949417F094B
:10919C000909013E414151737F0808087F00417F56
:1091AC0041002040413F017F081422417F40404054
:1091BC00407F021C027F7F0408107F3E4141413EEC
:1091CC007F090909063E4151215E7F09192946266E
:1091DC004949493203017F01033F4040403F1F2072
:1091EC0040201F3F4038403F631408146303047849
:1091FC0004036159494D43007F4141410204081069
:10920C0020004141417F04020102044040404040A3
:10921C00000307080020545478407F284444383811
:10922C0044444428384444287F3854545418000883
:10923C007E090218A4A49C787F0804047800447D5D
:10924C0040002040403D007F1028440000417F40FA
:10925C00007C047804787C0804047838444444384E
:10926C00FC1824241818242418FC7C08040408482E
:10927C005454542404043F44243C4040207C1C207F
:10928C0040201C3C4030403C44281028444C9090DA
:10929C00907C4464544C4400083641000000770034
:1092AC0000004136080002010204023C2623263C41
:1092BC001EA1A161123A4040207A385454555921CC
:1092CC0055557941215454784121555478402054B6
:1092DC005579400C1E527212395555555939545402
:1092EC00545939555454580000457C410002457D71
:1092FC00420001457C40F0292429F0F0282528F073
:10930C007C545545002054547C547C0A097F4932C6
:10931C00494949323248484832324A4848303A4141
:10932C0041217A3A42402078009DA0A07D394444E6
:10933C0044393D4040403D3C24FF2424487E494371
:10934C00662B2FFC2F2BFF0929F620C0887E0903E2
:10935C0020545479410000447D413048484A323809
:10936C004040227A007A0A0A727D0D19317D262935
:10937C00292F28262929292630484D40203808082D
:10938C00080808080808382F10C8ACBA2F10283461
:10939C00FA00007B000008142A142222142A140854
:1093AC00AA005500AAAA55AA55AA000000FF001051
:1093BC001010FF00141414FF001010FF00FF101009
:1093CC00F010F0141414FC001414F700FF0000FF4C
:1093DC0000FF1414F404FC141417101F10101F10A9
:1093EC001F1414141F00101010F0000000001F10A8
:1093FC001010101F10101010F010000000FF1010B3
:10940C0010101010101010FF10000000FF140000BE
:10941C00FF00FF00001F10170000FC04F4141417C9
:10942C0010171414F404F40000FF00F714141414AF
:10943C00141414F700F7141414171410101F101F21
:10944C00141414F4141010F010F000001F101F006E
:10945C0000001F14000000FC140000F010F01010AD
:10946C00FF10FF141414FF141010101F0000000044
:10947C00F010FFFFFFFFFFF0F0F0F0F0FFFFFF0038
:10948C0000000000FFFF0F0F0F0F0F38444438444B
:10949C007C2A2A3E147E02020606027E027E0263AB
:1094AC00554941633844443C04407E201E2006024A
:1094BC007E020299A5E7A5991C2A492A1C4C720127
:1094CC00724C304A4D4D303048784830BC625A4668
:1094DC003D3E494949007E0101017E2A2A2A2A2A59
:1094EC0044445F444440514A444040444A51400043
:1094FC0000FF0103E080FF000008086B6B083612C8
:10950C00362436060F090F0600001818000000104C
:10951C0010003040FF0101001F01011E00191D1732
:10952C0012003C3C3C3C000000000000000000002D
:10953C000000000000000000000000000D580B00AF
:10954C0089780B009D400B0025550B004B560B00EA
:10955C0067560B00E3550B0081560B00B7560B00FA
:10956C00D3560B00000000000000000063740B00D9
:10957C0059740B004F740B0045740B0039740B00BD
:10958C002D740B0079800B0081800B0021740B0073
:10959C0019740B000F740B0005740B00B1800B00D9
:1095AC0000081018202830386170700025592D25BE
:1095BC006D2D25645425483A254D3A2553257A00BE
:1095CC0061736374696D65000000000000000000A9
:1095DC00357C0B00257C0B00277C0B000000000069
:1095EC00000000001B7D0B00837D0B00597D0B00E0
:1095FC0089780B004B7D0B001D7D0B002D7D0B0026
:10960C007D7D0B003D7D0B00157D0B0000000000E7
:10961C0000000000297E0B00957E0B006D7E0B0078
:10962C0089780B003D7E0B00597E0B004B7E0B00A6
:10963C00677E0B002B7E0B002F7E0B0000000000C2
:10964C0000000000CD7E0B00177F0B00EF7E0B009F
:10965C00CF7E0B00F77E0B00FF7E0B00077F0B000D
:10966C000F7F0B0000000000000000001B800B00AF
:10967C0011800B0007800B00C97F0B0079790B0060
:10968C00FB7F0B0079800B0081800B00EF7F0B00C0
:10969C00E77F0B00DD7F0B00D37F0B00B1800B004D
:1096AC00000000000000000039800B0043800B001C
:1096BC004D800B0057800B0061800B006D800B0000
:1096CC0079800B0081800B0089800B0095800B004A
:1096DC009D800B00A7800B00B1800B0000252E3362
:1096EC007320252E337325336420252E32643A25BE
:1096FC002E32643A252E32642025640A0053756E8E
:10970C004D6F6E5475655765645468754672695330
:10971C0061744A616E4665624D61724170724D6151
:10972C00794A756E4A756C4175675365704F6374F1
:10973C004E6F764465635245454E54206D616C6C9A
:10974C006F6320737563636565646564002F6D6E6C
:10975C00742F776F726B73706163652F776F726B99
:10976C0073706163652F4743432D31302D706970E1
:10977C00656C696E652F6A656E6B696E732D4743F8
:10978C00432D31302D706970656C696E652D3438E0
:10979C005F32303230313132345F3136303631383D
:1097AC00303634312F7372632F6E65776C69622F8C
:1097BC006E65776C69622F6C6962632F7374646C6D
:1097CC0069622F72616E642E6300000071460B009B
:1097DC006D740B000D770B0079780B0085790B00FD
:1097EC00C57A0B00E17A0B0025800B0089810B00F8
:0497FC000000000069
:049800000000000064
:10980400763C000103070F1F3F7F0080C0E0F0F8A3
:10981400FCFE00000000000000000000000000004A
:109824000000000000000000000000000000000034
:109834000000000000000000000000000000000024
:109844000000000000000000000000000000000014
:109854000080808000000000000000000000000084
:109864000000008080C0C000000000000000000074
:1098740000000000000000000000000000000000E4
:1098840000000000000000000000000000000000D4
:1098940000000000000000000000000000000000C4
:1098A40000000000000080C0E0F0F8FCF8E00000D8
:1098B4000000000000000000000000000000008024
:1098C4008080808000808000000000808080808014
:1098D40000FFFFFF00000000808080800000808087
:1098E400000080FFFF8080008080008080808000F6
:1098F40080800000000000808000008C8E840000C6
:1099040080F8F8F88000000000000000000000006B
:109914000000F0F0F0F0F0F0F0F0F0F0F0F0E0E043
:10992400C08000E0FCFEFFFFFF7FFFFFFFFFFF00A2
:1099340000000000000000000000000000FEFFC75F
:109944000101010183FFFF00007CFEC70101010149
:1099540083FFFFFF0038FEC78301010183C7FFFFB8
:10996400000001FFFF010100FFFF070101010000EA
:109974007FFF80000000FFFF7F0000FFFFFF00006B
:1099840001FFFFFF010000000000000000000000D4
:109994000000030F3F7F7FFFFFFFFFFFFFFFE7C7CD
:1099A400C78F8F9FBFFFFFC3C0F0FFFFFFFFFFFC08
:1099B400FCFCFCFCFCFCFCF8F8F0F0E0C00001034B
:1099C4000303030301030300000000010303030373
:1099D4000101030100000001030303030101030368
:1099E4000000000303000000030300000000000067
:1099F400000103030303030100000001030100004D
:109A0400000303010000000000000000000000004B
:109A1400000000000080C0E0F0F9FFFFFFFFFF3FFF
:109A24001F0F87C7F7FFFF1F1F3DFCF8F8F8F87CEE
:109A34007DFFFFFFFFFFFFFFFF7F3F0F0700303079
:109A44000000000000000000000000000000000012
:109A5400000000000000FEFEFC000000000000000A
:109A6400000000000000000000000000000000E012
:109A7400C0000000000000000000000030300000C2
:109A840000000000000000000000000000000000D2
:109A9400000000C0FEFFFFFFFFFFFFFFFFFF7F7F0F
:109AA4003F1F0F071F7FFFFFF8F8FFFFFFFFFFFEB9
:109AB400F8E0000000010000000000000000FEFECD
:109AC400000000FCFEFC0C06060EFCF80000F0F89A
