:02000002B0004C
:1040000000400B0098570B00000006000C00050252
:084010000401810C0000000016
:0440180098540B00AD
:10401C0009480A49884208B505D0094A824202D0AB
:10402C00121A01F081F90748074A0021121A01F00F
:10403C0089F9014808BD00BF28E6032004570B008E
:10404C0094E6032094E60320EDE7032070B5074EB9
:10405C00074C00F0D5FDA41BA4080025AC4200D1F0
:10406C0070BD56F8043B98470135F7E7D0560B0066
:10407C00F8560B0000F014B808B500F029F8BDE8AC
:10408C00084000F075BD00F049BC00F04FBC007852
:10409C00B0FA80F0400970470123037070470000AC
:1040AC0008B500F0B5FE4FF4165100F0A5FE00F077
:1040BC00AFFE054900F0EFFC044800F068F8BDE8DD
:1040CC000840024800F09CB8AC540B00A0E603205A
:1040DC0037B5124D002400F09BFE114900F0C8FCCE
:1040EC0022462146FF232846009400F035FA284644
:1040FC0000F086F8642000F00FFD2346FF222146D5
:10410C002846009400F028FA284600F079F864203C
:10411C0003B0BDE8304000F0FFBC00BFA0E60320B8
:10412C00B2540B0010B5094B0022C3E90022A2F5D2
:10413C0080329A60022000F065FBBDE81040044814
:10414C0002230622012100F049B800BF94E60320A7
:10415C00A0E6032038B50446C0680D4608B100F04F
:10416C00E5FBA379062B0CBF0420032010FB05F004
:10417C0080B2A08000F0D2FBE06028B1A2880021C0
:10418C0001F0E0F8658038BDA0806080FBE710B5D9
:10419C0004460121C07901F019F8E079002101F001
:1041AC0026F80123237010BD37B5037805460C465D
:1041BC001BB1C079002101F009F82B78EC715BB1CF
:1041CC00A0B20121019001F001F80198002103B087
:1041DC00BDE8304001F00BB803B030BD70B5002520
:1041EC00044616468371C0E9035505700572FFF746
:1041FC00B1FF20463146FFF7D7FF204670BD0000C7
:10420C00C368002B00F0A4812DE9F04F8379023BA9
:10421C00DBB2042B9CBFBF4A52F8234085B0054645
:10422C0088BF322400F00EFA2B69C01AA042F9D3D1
:10423C00B94CAE88D4F800351BB9D4F86035002BD6
:10424C007EDBB64CD4F8003523B9D4F86035002B9E
:10425C00C0F26E81B24CD4F80035002B00F04481D2
:10426C00EB79B04AB04C1268190102EB0313575C9E
:10427C00AE495B78D1F8FC2042F08072C1F8FC208A
:10428C00226803F01F0343EA471301273A432260D5
:10429C00A988D5F80C80D4F804909F40002944D00C
:1042AC004FF0000E72464FF0A04118F801CB0820D9
:1042BC00802663689B1A462BFBD96268D1F80835B7
:1042CC001CEA060F43EA0703C1F808352FD06368D0
:1042DC009B1A282BFBD9D1F80C35013843EA07037C
:1042EC004FEA5606C1F80C35E3D1AB880EF1010E3E
:1042FC001FFA8EFE7345D8D84FF4307103FB01F1D1
:10430C0063689B1A462BFBD96368A3EB09098945A3
:10431C00C0F0E4804FF4967000F08CF9A988D5F8C1
:10432C000C80D4F804900029BAD10A46E8E76368F7
:10433C009B1A112BCFD863689B1A112BF7D9CAE79C
:10434C00D4F86435002BBFF67CAFD4F86835002B5D
:10435C00BFF677AFD4F86C35002BBFF672AF3601D1
:10436C00331D1846009300F0D9FA00283FF478AFBB
:10437C00AB88002B00F0ED80EA68013B12FA83F762
:10438C0002F1FF3E002348F2060248F20D011EF82E
:10439C0001CF1CF0800F0CBF93468B461CF0400FD6
:1043AC000CBF16460E461CF0200F0CBF90468846DC
:1043BC0003F10109CDF80880019603F102081FFAF8
:1043CC0089F9019E20F813B01FFA88F820F81960BB
:1043DC00029E20F8186003F103081CF0100F1FFA5E
:1043EC0088F80CBF93468B4620F818B003F10408EC
:1043FC001CF0080F1FFA88F80CBF93468B4620F868
:10440C0018B003F105081CF0040F1FFA88F80CBF54
:10441C0093468B4620F818B003F1080A03F10608FE
:10442C0007339BB21CF0020F1FFA88F80CBF93469F
:10443C008B46CDF80CA01CF0010F20F818B015BF5E
:10444C0020F8131020F813201FFA8AF3BDF80C3053
:10445C0077459CD1591C023389B29BB249005B0051
:10446C004FF400474752009AC7522E4B56081F680C
:10447C0000221423C4F80425C4F80C25C4F808350C
:10448C00C4F81425C4F81025C4F82005C4F8246514
:10449C00C4F82825C4F82C25EB7907EB031C1B0169
:1044AC000121FE5C9CF8013003F01F0343EA461324
:1044BC00C4F86035C4F80015C4F81021A160D4F814
:1044CC001031002BFBD000234FF0FF32C4F8103119
:1044DC00C4F80035C4F8602500F028FA00F0B2F8F2
:1044EC00286105B0BDE8F08FD4F86035002BBFF61D
:1044FC00B7AED4F86435002BBFF6B2AED4F868353D
:10450C00002BBFF6ADAED4F86C35002BBFF6A8AEC1
:10451C0025E700BFB4540B0000C00140001002405E
:10452C0000200240B4E60320001000E000ED00E0A3
:10453C00D4F86435002BBFF68DAED4F86835002B5B
:10454C00BFF688AED4F86C35002BBFF683AE06E709
:10455C0070470423022183E770B544889DF81050FE
:10456C008C4222D9047A44B112FB04F214FB03F3FB
:10457C0014FB05F4120A1B0A250AC668807901EBA4
:10458C00410102387418062810D8DFE800F0040F37
:10459C0008040F04040073546270A57005E0FE2A31
:1045AC0028BFFE2272546570A37070BD7254637084
:1045BC00F3E7000008B500F015F8014B186008BDD2
:1045CC00B4E6032008B5024B1B689B68019308BD39
:1045DC006802030008B5024B1B68DB68019308BD39
:1045EC006802030008B5024B1B681B68019308BDE9
:1045FC002C02030008B5024B1B689B68019308BD95
:10460C002C02030008B5024B1B68DB68019308BD44
:10461C002C02030008B5024B1B681B69019308BDF3
:10462C002C02030008B5024B1B685B68019308BDA4
:10463C001802030008B5024B1B68DB68019308BD28
:10464C001802030008B5024B1B681B69019308BDD7
:10465C001802030008B5024B1B685B69019308BD87
:10466C001802030008B5024B1B685B6C019308BD74
:10467C004802030008B5024B1B685B69019308BD37
:10468C006402030008B5024B1B68DB68019308BD8C
:10469C003C02030008B5024B1B681B69019308BD63
:1046AC003C02030008B5024B1B685B69019308BD13
:1046BC003C02030008B5024B1B689B69019308BDC3
:1046CC003C02030008B5024B1B68DB69019308BD73
:1046DC003C02030008B5024B1B681B6A019308BD22
:1046EC003C02030008B5024B1B689B6A019308BD92
:1046FC003C02030008B5024B1B681B6C019308BD00
:10470C003C02030008B5024B1B681B6A019308BDF1
:10471C002802030008B5024B1B685B6A019308BDB5
:10472C002802030008B5024B1B689B6A019308BD65
:10473C002802030008B5024B1B68DB6A019308BD15
:10474C002802030008B5024B1B681B6B019308BDC4
:10475C002802030008B5024B1B685B6B019308BD74
:10476C002802030008B5024B1B681B6C019308BDA3
:10477C002802030008B5024B1B68DB69019308BDD6
:10478C003002030008B5024B1B681B6A019308BD7D
:10479C003002030008B5024B1B681B68019308BD6F
:1047AC004C02030008B5024B1B685B68019308BD03
:1047BC004C02030008B5024B1B681B69019308BD32
:1047CC004C02030008B5024B1B685B69019308BDE2
:1047DC004C02030008B5024B1B689B69019308BD92
:1047EC004C02030008B5024B1B68DB69019308BD42
:1047FC004C02030008B5024B1B681B6A019308BDF1
:10480C004C02030008B5024B1B685B68019308BDA2
:10481C002002030008B5024B1B685B69019308BDBD
:10482C002002030008B5034B1B68D3F888300193B2
:10483C0008BD00002002030008B5034B1B68D3F829
:10484C009430019308BD00002002030008B5024B10
:10485C001B685B68019308BD4002030008B5024B5E
:10486C001B689B68019308BD4002030008B5024B0E
:10487C001B68DB68019308BD4002030008B5024BBE
:10488C001B681B69019308BD4002030008B5024B6D
:10489C001B685B69019308BD4002030008B5024B1D
:1048AC001B689B69019308BD4002030008B5024BCD
:1048BC001B68DB69019308BD4002030008B5024B7D
:1048CC001B681B6A019308BD4002030008B5024B2C
:1048DC001B681B6B019308BD4002030008B5024B1B
:1048EC001B685B6B019308BD4002030008B5024BCB
:1048FC001B681B6C019308BD4002030008B5024BFA
:10490C001B685B6C019308BD4002030008B5024BA9
:10491C001B68DB6B019308BD4402030008B5024B16
:10492C001B681B68019308BD1C02030008B5024BF1
:10493C001B685B68019308BD1C02030008B5024BA1
:10494C001B681B6C019308BD1C02030008B5024BCD
:10495C001B685B6C019308BD1C02030000224068BD
:10496C001146FFF7ABBF002240681146FFF7B6BFF8
:10497C0040680022FFF7AABF4068002281F00101C5
:10498C00FFF794BF002340681A461946FFF786BF0D
:10499C00002340681A461946FFF778BF002240688A
:1049AC001146FFF76BBF002240681146FFF756BF58
:1049BC00406800220221FFF759BF002340681A46C5
:1049CC00FFF744BF024B03225A60024A1A60704739
:1049DC00B8E60320D0540B0010B5044608462170ED
:1049EC00FFF7C8FE00236360204610BD054B022272
:1049FC001A60054B054A9A600020C3E90000FFF7D6
:104A0C0001BF00BFCCE60320C0E603200000FFFF7F
:104A1C00024800230360FFF725BE00BFD0E6032049
:104A2C00F8B506460D468F180024BD420CD03368ED
:104A3C0015F8011B9B6830469847031E01DB1C448C
:104A4C00F3E7002C08BF1C462046F8BD13B50446FE
:104A5C00084659B1019100F0ABFC23680199DB6861
:104A6C000246204602B0BDE81040184702B010BD07
:104A7C0008B5FFF7EBFF08BD03689B68184738B50E
:104A8C000D210546FFF7F8FF0A2104462846FFF7DB
:104A9C00F3FF204438BD38B50546FFF7D7FF044671
:104AAC002846FFF7ECFF204438BD30B58BB000230F
:104ABC00012A8DF8243098BF0A2209AC0D46B1FBAF
:104ACC00F2F101FB125303F0FF03092B94BF3033B7
:104ADC003733DBB2AA4204F8013DEFD92146FFF788
:104AEC00B5FF0BB030BD002340681A461946FFF7DE
:104AFC00CDBE0000014B024A1A607047D4E6032079
:104B0C0004550B00024B1A68024B1A60704700BF29
:104B1C0028E60320D8E603200021FFF77BBE000027
:104B2C00014B00229A607047DCE60320014B1860B1
:104B3C00704700BF2CE6032008B50B4B43B100F0C7
:104B4C0067F903681B699847002801DDAFF3008003
:104B5C00064B43B100F080FB03681B6998470028A3
:104B6C0001DDAFF3008008BD000000000000000074
:104B7C0008B5FFF7E1FFFFF76DFD014B186008BDAD
:104B8C0040E703200548064A064908B5121A00F00A
:104B9C00CBFB054B054A1A6008BD00BF00F403208F
:104BAC0004F4032000570B0000F403201E1C279A6A
:104BBC0007B5002300931A466FF07701FFF73CFE10
:104BCC0003B05DF804FB000007B543880A2B08D03E
:104BDC00502B0BD1094B1B684BB103B05DF804EBA8
:104BEC001847FFF7E5FF03B05DF804FB00230093C3
:104BFC001A466FF07701FFF71FFEF4E7F0E603208B
:104C0C0010B512480021FFF7A1FE114B1A68114B89
:104C1C009A42114B0CBF012200221A7001D0FFF7EF
:104C2C00B1FFFFF7FFFC044600F094FB0B4B13B1F4
:104C3C002046AFF3008000210848FFF767FEBDE86F
:104C4C00104007480021FFF7EDBD00BF394B0B00AA
:104C5C0000F403201E1C279AECE603200000000041
:104C6C00D54B0B00704710B518210446FFF70DFA11
:104C7C00204610BDF0B5037D062B8DB00E4600F11D
:104C8C0004074FF0000412D000F1080515F8011DBF
:104C9C000A223046FFF709FFAF42044419D0002C1A
:104CAC00F4D02E213046FFF7E7FE0444EEE72F2325
:104CBC006A4639460A208DF80040FFF7DBFC68464F
:104CCC0000F076FB33680246DB686946304698474D
:104CDC00044620460DB0F0BD10B5054B044611221C
:104CEC0040F8043B002100F02DFB204610BD00BF16
:104CFC002C550B000346074A10B543F8042B01F161
:104D0C00100251F8044B43F8044B9142F9D10A7844
:104D1C001A7010BD2C550B0010B59DF8084044EAD4
:104D2C00032343EA024242EA016104234160037512
:104D3C0010BD000007B5064B0360CB7800938B7851
:104D4C004A780978FFF7E8FF03B05DF804FB00BF71
:104D5C002C550B00417470477047704708B5002103
:104D6C00007CFFF737FD40EAE07008BD08B5012173
:104D7C00007CFFF72FFD40EAE07008BD08B5007C11
:104D8C00FFF720FD20EAE07008BD08B5007CFFF7B6
:104D9C0011FD20EAE07008BD13B50446007C0191BA
:104DAC00FFF710FD0028019901DC607C20B1207C0C
:104DBC00FFF718FD20EAE07002B010BD007CFFF791
:104DCC0019BD10B514210446FFF75FF9204610BD3C
:104DDC0010B54FF47A73044608460021C4E9011358
:104DEC00044B23600123207463741146FFF7D2FC3B
:104DFC00204610BD40550B00007C0022FFF7D2BCB2
:104E0C0010B514220446002100F09CFA204610BD77
:104E1C0010B50F4C88B003A8FFF7F2FF2178BFF351
:104E2C005B8F11F001010FD120460191FFF72FF993
:104E3C00019948B103AA0748FFF7CAFF2046FFF7BC
:104E4C002BF9054800F06AFA024808B010BD00BF03
:104E5C00F4E60320F8E60320654D0B00704741741F
:104E6C00704708B5007CFFF73DFC20EAE07008BDF8
:104E7C0008B5007CFFF70EFC20EAE07008BD08B511
:104E8C00007CFFF717FC40EAE07008BD08B5007C19
:104E9C00FFF708FC40EAE07008BD007CFFF712BC8D
:104EAC0037B5457C04462DB1207C03B0BDE83040BD
:104EBC00FFF7E8BB007C0191FFF714FC0028019977
:104ECC00F2DC284603B030BD10B514210446FFF7C0
:104EDC00DCF8204610BD000010B54FF47A73044680
:104EEC00084611460022C4E90123044B2360012328
:104EFC0020746374FFF7FEFB204610BD70550B0049
:104F0C007047F8B5064615460C468F18BC4206D0BD
:104F1C00336814F8011B9B6830469847F6E728461F
:104F2C00F8BD007C0022FFF7EDBB007C0021FFF7F1
:104F3C00F1BB007C0021FFF7F5BB007C0021FFF7E3
:104F4C00F9BB007C0021FFF7FDBB10B51421044612
:104F5C00FFF79BF8204610BD10B54FF47A7304464A
:104F6C0008460021C4E90113034B23602074114649
:104F7C00FFF7F8FB204610BDA0550B00002240683F
:104F8C001146FFF77BBC002240681146FFF796BC28
:104F9C00002240681146FFF7A1BC40680022FFF7D1
:104FAC0095BC4068002281F00101FFF77FBC002313
:104FBC0040681A461946FFF771BC0022406811463A
:104FCC00FFF74CBC406800220221FFF74FBC0023C6
:104FDC0040681A46FFF73ABC024B04225A60024A58
:104FEC001A6070470CE70320C8550B00002340687B
:104FFC001A46FFF72BBC406800220221FFF736BC93
:10500C00002240681146FFF729BC00224068114677
:10501C00FFF734BC002340681A461946FFF736BC2C
:10502C00002340681A461946FFF738BC4068002137
:10503C00FFF75CBC40680021FFF760BC40680022B1
:10504C0081F00101FFF732BC40680022FFF73EBC43
:10505C00002240681146FFF741BC0022406811460F
:10506C00FFF72CBC2DE9F04395B014460D460746CE
:10507C00FFF732FE00211C220DA8009100F062F90E
:10508C0040230C9320466B460CAA0021FFF7A2FA92
:10509C00044600284BD1024601216868FFF7EEFB5D
:1050AC000221804622466868FFF7E8FB009E814695
:1050BC002146002E3BD0002939D17368022B03D036
:1050CC000A2B11D0F669F4E7B8F1000FFAD0716928
:1050DC0006A8043107ADFFF72DFE0FCD3C1D0FC404
:1050EC002B6823704146EDE7B9F1000FEAD07469E3
:1050FC00102201A800F026F906238DF8143001AD1A
:10510C0004F108031834186859682A4603C2083396
:10511C00A3421546F7D101A906A807ADFFF7EAFD92
:10512C000FCD3C1D0FC42B6823704946CAE700986D
:10513C00FFF748FA384615B0BDE8F083024B034A36
:10514C001A6000225A60704714E7032004560B00C3
:10515C00232813B502D9002002B010BDA0F10B0317
:10516C00022B1AD8174C2178BFF35B8F11F0010179
:10517C000BD120460191FEF78AFF019928B1124804
:10518C00FFF72AFC2046FEF787FF0F4B1878FFF736
:10519C00F9FA0028DFD10120DEE7012809D800F058
:1051AC0097F80021007CFFF7D5FA80F00100C0B21F
:1051BC00D2E709380128EED800F04EF8007CFFF752
:1051CC0089FAF2E71CE7032020E70320232838B5EF
:1051DC0004460D460AD8FF2908D0FFF7B9FF28B1BD
:1051EC0029462046BDE83840FFF704BA38BD38B52B
:1051FC0004460D46FFF706FAFF2810D0062804D8FF
:10520C004D2323FA00F0C30709D42046FFF7A0FF73
:10521C0028B129462046BDE83840FFF7FBB938BD18
:10522C007047000038B5044614252A46002100F0CA
:10523C0089F825804025074925812846258200F0DC
:10524C006BF804496060284600F066F8E060204680
:10525C0038BD00BF38560B0030B50E4D2978BFF362
:10526C005B8F11F0010487B011D12846FEF70FFFB8
:10527C0068B101A8FFF7D6FF01AA21460648FFF73F
:10528C002BFE2846FEF708FF044800F047F80248BA
:10529C0007B030BD28E703202CE703202D520B006C
:1052AC007047000038B52025142304460360856040
:1052BC0005610649284600F02FF80449606028462D
:1052CC0000F02AF8E060204638BD00BF38560B00CD
:1052DC0030B50E4D2978BFF35B8F11F0010487B008
:1052EC0011D12846FEF7D3FE68B101A8FFF7DAFF0B
:1052FC0001AA21460648FFF72FFE2846FEF7CCFEF2
:10530C00044800F00BF8024807B030BD44E7032016
:10531C0048E70320AD520B00FEF7B5BE0023014653
:10532C001A46184600F04CB80A44914200F1FF337B
:10533C0000D1704710B511F8014B03F8014F9142A1
:10534C00F9D110BD02440346934200D1704703F8D3
:10535C00011BF9E738B5104B1D68AB6B0446B3B9AC
:10536C001820FFF7DBFA0246A86320B90B4B0C4858
:10537C004221FFF7E3FA0B490B4BC0E900130B4B2F
:10538C0083600B23838100210120C2E90401AB6BF4
:10539C0000221C615A6138BD2CE6032039560B00E3
:1053AC0050560B000E33CDAB34126DE6ECDE05001F
:1053BC00034613F8012B002AFBD1181A0138704749
:1053CC002DE9F843DFF8B8800646D8F800001F46F0
:1053DC000D46914600F056F8254B1C6834B9254C07
:1053EC001C60254B13B11B68C4F8883063681F2BF5
:1053FC0007DDD8F8000000F047F84FF0FF30BDE8AB
:10540C00F8834EB3D4F8880088B91C4B23B9D8F86C
:10541C00000000F038F8F0E74FF48470FFF77EFAE4
:10542C000028F4D00023C0E94033C4F88800636836
:10543C0040F8239001229A4000EB8301D0F8003110
:10544C001343C0F80031022EC1F8807002BFD0F8AF
:10545C0004311343C0F804316368D8F800005A1CB7
:10546C000233626044F8235000F00EF80020C6E7C7
:10547C00E8E703205CE703200000000029490B004B
:10548C0090E6032070477047704700001D400B00EA
:10549C0059400B0081400B0085400B0000000000C0
:1054AC005365747570002E002C010000180000006C
:1054BC00F40100002C01000050000000000000006E
:1054CC0000000000C7490B00BD490B00B3490B009D
:1054DC00A9490B009D490B0091490B0039500B0059
:1054EC0041500B0085490B007D490B0073490B00A3
:1054FC0069490B0071500B006170700025592D2506
:10550C006D2D25645425483A254D3A2553257A00AE
:10551C0061736374696D6500000000000000000099
:10552C00814C0B00714C0B00734C0B000000000005
:10553C0000000000674D0B00CF4D0B00A54D0B007C
:10554C002D4A0B00974D0B00694D0B00794D0B004C
:10555C00C94D0B00894D0B00614D0B000000000084
:10556C0000000000694E0B00D54E0B00AD4E0B0039
:10557C002D4A0B007D4E0B00994E0B008B4E0B00F1
:10558C00A74E0B006B4E0B006F4E0B000000000083
:10559C00000000000D4F0B00574F0B002F4F0B005E
:1055AC000F4F0B00374F0B003F4F0B00474F0B00BB
:1055BC004F4F0B000000000000000000DB4F0B0001
:1055CC00D14F0B00C74F0B00894F0B00F34A0B0058
:1055DC00BB4F0B0039500B0041500B00AF4F0B0071
:1055EC00A74F0B009D4F0B00934F0B0071500B00FE
:1055FC000000000000000000F94F0B0003500B00EE
:10560C000D500B0017500B0021500B002D500B00B0
:10561C0039500B0041500B0049500B0055500B00FA
:10562C005D500B0067500B0071500B00005245454C
:10563C004E54206D616C6C6F63207375636365658C
:10564C00646564002F6D6E742F776F726B7370616D
:10565C0063652F776F726B73706163652F4743437C
:10566C002D31302D706970656C696E652F6A656EB1
:10567C006B696E732D4743432D31302D7069706506
:10568C006C696E652D34385F3230323031313234E2
:10569C005F313630363138303634312F7372632FF8
:1056AC006E65776C69622F6E65776C69622F6C69B9
:1056BC0062632F7374646C69622F72616E642E6303
:1056CC000000000031410B00C1450B00D1490B001B
:1056DC00F9490B001D4A0B00014B0B00114B0B0041
:1056EC002D4B0B00E54F0B0049510B000000000047
:0456FC0000000000AA
:0457000000000000A5
:105704001C550B0030E603200000000000000000E0
:105714000000000000000000000000000000000085
:105724000000000000000000000000000000000075
:105734000000000000000000000000000000000065
:105744000000000000000000000000000000000055
:105754000000000000000000000000000000000045
:0C5764000000000000000000ECE7032043
:10577000FFFFFFFF00000102030405060708090AF6
:105780000B0C0D0E0F101112131415161718191AF1
:085790001B1C1D1E1F20280038
:0457980078563412F9
:04000003B000401CED
:00000001FF
