:02000002B0004C
:1040000000400B008C6F0B00000006000C00050246
:084010000401810C0000000016
:04401800746C0B00B9
:1040200009480A49884208B505D0094A824202D0A7
:10403000121A02F06DFD0748074A0021121A02F019
:1040400075FD014808BD00BF14E60320F46E0B00A7
:1040500084E6032084E60320EDE7032070B5074ED5
:10406000074C00F085FCA41BA4080025AC4200D13D
:1040700070BD56F8043B98470135F7E7CC6E0B004E
:10408000F06E0B0000F022B808B500F041F8BDE872
:10409000084000F025BC00F0CBBA00F0D1BA00789F
:1040A000B0FA80F0400970470123037070470EB4E6
:1040B00003B503AB002153F8042B019300F09FFBE1
:1040C00002B05DF804EB03B07047000008B500F0E3
:1040D00057FD4FF4165100F047FD00F04DF9074B26
:1040E00000211860052000F029FF054B00221A600E
:1040F000044A00231360044A136008BDACE60320A1
:10410000A4E60320A8E6032090E6032000000000B8
:104110002DE9F04F6A4D6B4C6B4FDFF8C491DFF81F
:10412000C4816A4E002385B005202B6023703B605C
:1041300000F015FFC9F8000000F016F94FF0010A71
:10414000C8F8000000F010F9D8F80030C01A632851
:1041500016D82378A3B9052000F001FF306040B9DC
:10416000D9F800302BB184F800A000F0FDF83860D9
:10417000E8E7C9F8000000F0F7F8C8F80000E1E748
:1041800033685BB923784BB100F0EEF83B68C01A96
:104190002860052000F0E3FE3060F1E74C4C2A680F
:1041A0002368DFF844B11344236000F0E5F8DBF83E
:1041B0000030C01A47F23053984267D92068DFF8C0
:1041C0002CA1444D02F034F933A3D3E9002302F0CB
:1041D000C3FA02F047FCCAF8000002F03BF99FED79
:1041E000301B41EC100B00F04BFFDAF8000059ECEB
:1041F000108B02F02FF92CA3D3E9002306460F46BB
:104200004046494602F07EF93246804689463B46A2
:104210003046394602F076F925A3D3E9002302F0AF
:1042200071F902460B464046494601F0B3FF2A4B5E
:104230008046894600223046394602F063F902463C
:104240000B464046494601F0A7FF1BA3D3E90023D4
:1042500001F0A2FF02F006FC286000F091FC064687
:10426000DAF8000002F0F6F8CDE90201286802F061
:10427000F1F8CDE90001194922683046FFF717FF30
:104280000023236000F078F8CBF8000005B0BDE80B
:10429000F08F00BFAFF3008000000000804F12419C
:1042A00000000000000008409A9999999999F13FFF
:1042B0006666666666660E40D7A3703D0AD7E33F22
:1042C00094E6032098E60320A0E60320B0E603204E
:1042D000A4E6032090E6032000408040886C0B0099
:1042E000B4E603209CE60320ACE60320A8E6032006
:1042F000044B0022C3E90022A2F580329A6002201A
:1043000000F012B984E6032008B5024B1B689B68D5
:10431000019308BD6802030008B5024B1B68DB6807
:10432000019308BD6802030008B5024B1B689B6837
:10433000019308BD2C02030008B5024B1B68DB6823
:10434000019308BD2C02030008B5024B1B685B6992
:10435000019308BD2C02030008B5024B1B685B6883
:10436000019308BD1802030008B5024B1B681B69C6
:10437000019308BD1802030008B5024B1B685B6976
:10438000019308BD1802030008B5024B1B685B6C63
:10439000019308BD4802030008B5024B1B685B6926
:1043A000019308BD6402030008B5024B1B68DB687B
:1043B000019308BD3C02030008B5024B1B681B6952
:1043C000019308BD3C02030008B5024B1B685B6902
:1043D000019308BD3C02030008B5024B1B689B69B2
:1043E000019308BD3C02030008B5024B1B68DB6962
:1043F000019308BD3C02030008B5024B1B681B6A11
:10440000019308BD3C02030008B5024B1B689B6A80
:10441000019308BD3C02030008B5024B1B681B6CEE
:10442000019308BD3C02030008B5024B1B681B6AE0
:10443000019308BD2802030008B5024B1B685B6AA4
:10444000019308BD2802030008B5024B1B689B6A54
:10445000019308BD2802030008B5024B1B68DB6A04
:10446000019308BD2802030008B5024B1B681B6BB3
:10447000019308BD2802030008B5024B1B685B6B63
:10448000019308BD2802030008B5024B1B681B6C92
:10449000019308BD2802030008B5024B1B68DB69C5
:1044A000019308BD3002030008B5024B1B681B6A6C
:1044B000019308BD3002030008B5024B1B681B685E
:1044C000019308BD4C02030008B5024B1B685B68F2
:1044D000019308BD4C02030008B5024B1B681B6921
:1044E000019308BD4C02030008B5024B1B685B69D1
:1044F000019308BD4C02030008B5024B1B689B6981
:10450000019308BD4C02030008B5024B1B68DB6930
:10451000019308BD4C02030008B5024B1B681B6ADF
:10452000019308BD4C02030008B5024B1B685B6891
:10453000019308BD2002030008B5034B1B68D3F8A4
:104540008830019308BD00002002030008B5034B2A
:104550001B68D3F89430019308BD000020020300CB
:1045600008B5024B1B685B68019308BD400203005D
:1045700008B5024B1B689B68019308BD400203000D
:1045800008B5024B1B68DB68019308BD40020300BD
:1045900008B5024B1B681B69019308BD400203006C
:1045A00008B5024B1B685B69019308BD400203001C
:1045B00008B5024B1B689B69019308BD40020300CC
:1045C00008B5024B1B68DB69019308BD400203007C
:1045D00008B5024B1B681B6A019308BD400203002B
:1045E00008B5024B1B681B6B019308BD400203001A
:1045F00008B5024B1B685B6B019308BD40020300CA
:1046000008B5024B1B681B6C019308BD40020300F8
:1046100008B5024B1B685B6C019308BD40020300A8
:1046200008B5024B1B68DB6B019308BD4402030015
:1046300008B5024B1B681B68019308BD1C020300F0
:1046400008B5024B1B685B68019308BD1C020300A0
:1046500008B5024B1B685B6A019308BD1C0203008E
:1046600008B5024B1B68DB6B019308BD1C020300FD
:1046700008B5024B1B681B6C019308BD1C020300AC
:1046800008B5024B1B685B6C019308BD1C0203005C
:10469000002240681146FFF79BBF00224068114688
:1046A000FFF7A6BF40680022FFF79ABF40680022CC
:1046B00081F00101FFF784BF002340681A461946C4
:1046C000FFF776BF002340681A461946FFF768BF18
:1046D000002240681146FFF75BBF00224068114688
:1046E000FFF746BF406800220221FFF749BF0023C1
:1046F00040681A46FFF734BF024B03225A60024A51
:104700001A607047B8E60320B46C0B0010B504467D
:1047100008462170FFF7C0FE00236360204610BDED
:10472000054B02221A60054B054A9A600020C3E936
:104730000000FFF7F9BE00BFCCE60320C0E603206F
:104740000000FFFF024800230360FFF71DBE00BF0B
:10475000D0E60320F8B506460D468F180024BD426A
:104760000CD0336815F8011B9B6830469847031E30
:1047700001DB1C44F3E7002C08BF1C462046F8BDB3
:1047800013B50446084659B1019102F005FA2368B1
:104790000199DB680246204602B0BDE81040184788
:1047A00002B010BD03689B68184738B50D21054657
:1047B000FFF7F8FF0A2104462846FFF7F3FF2044DD
:1047C00038BD30B58BB00023012A8DF8243098BF56
:1047D0000A2209AC0D46B1FBF2F101FB125303F0C2
:1047E000FF03092B94BF30333733DBB2AA4204F8FE
:1047F000013DEFD92146FFF7C3FF0BB030BD2DE9D6
:10480000F04186B000AF05460E46381D142114460F
:104810003B60FFF71DFF13280ED8391D2846FFF710
:10482000AFFF04461EB12846FFF7BFFF04442046F1
:104830001837BD46BDE8F08100F1080323F00703F7
:10484000E846ADEB030D2246411C3B686846FFF786
:10485000FFFE69462846FFF793FF0446C546E1E799
:10486000002340681A461946FFF79ABE014B024AD8
:104870001A607047D4E60320E86C0B00024B1A68FC
:10488000024B1A60704700BF14E60320D8E60320ED
:10489000014B00229A607047DCE60320014B186050
:1048A000704700BF1CE6032008B50B4B43B100F076
:1048B00067F903681B699847002801DDAFF30080A2
:1048C000064B43B100F07AFB03681B699847002848
:1048D00001DDAFF3008008BD000000000000000013
:1048E00008B5FFF7E1FFFFF747FD014B186008BD72
:1048F00040E703200548064A064908B5121A02F0A7
:1049000007F9054B054A1A6008BD00BF00F40320F3
:1049100004F40320F06E0B0000F403201E1C279A01
:1049200007B5002300931A466FF07701FFF70EFEDC
:1049300003B05DF804FB000007B543880A2B08D0DC
:10494000502B0BD1094B1B684BB103B05DF804EB46
:104950001847FFF7E5FF03B05DF804FB0023009361
:104960001A466FF07701FFF7F1FDF4E7F0E6032058
:1049700010B512480021FFF783FE114B1A68114B46
:104980009A42114B0CBF012200221A7001D0FFF78E
:10499000B1FFFFF7E1FC044602F0D0F80B4B13B176
:1049A0002046AFF3008000210848FFF739FEBDE83C
:1049B000104007480021FFF7BFBD00BF9D480B0016
:1049C00000F403201E1C279AECE6032000000000E0
:1049D00039490B00704710B518210446FFF75DFBFD
:1049E000204610BDF0B5037D062B8DB00E4600F1BC
:1049F00004074FF0000412D000F1080515F8011D5E
:104A00000A223046FFF7DDFEAF42044419D0002CE5
:104A1000F4D02E213046FFF7C5FE0444EEE72F23E5
:104A20006A4639460A208DF80040FFF7B5FC684613
:104A300002F0B2F833680246DB68694630469847B0
:104A4000044620460DB0F0BD10B5054B04461122BA
:104A500040F8043B002102F069F8204610BD00BF79
:104A6000106D0B000346074A10B543F8042B01F103
:104A7000100251F8044B43F8044B9142F9D10A78E3
:104A80001A7010BD106D0B0010B59DF8084044EA77
:104A9000032343EA024242EA0161042341600375B1
:104AA00010BD000007B5064B0360CB7800938B78F0
:104AB0004A780978FFF7E8FF03B05DF804FB00BF10
:104AC000106D0B00417470477047704708B50021A6
:104AD000007CFFF711FD40EAE07008BD08B5012138
:104AE000007CFFF709FD40EAE07008BD08B5007CD6
:104AF000FFF7FAFC20EAE07008BD08B5007CFFF77C
:104B0000EBFC20EAE07008BD13B50446007C01917F
:104B1000FFF7EAFC0028019901DC607C20B1207CD1
:104B2000FFF7F2FC20EAE07002B010BD007CFFF756
:104B3000F3BC10B514210446FFF7AFFA204610BDB0
:104B400010B54FF47A73044608460021C4E90113F6
:104B5000044B23600123207463741146FFF7ACFCFF
:104B6000204610BD246D0B00007C0022FFF7ACBC7A
:104B700010B514220446002101F0D8FF204610BDD4
:104B800010B50F4C88B003A8FFF7F2FF2178BFF3F0
:104B90005B8F11F001010FD120460191FFF77FFAE1
:104BA000019948B103AA0748FFF7CAFF2046FFF75B
:104BB0007BFA054801F0A6FF024808B010BD00BF0F
:104BC000F4E60320F8E60320C94A0B00704741745D
:104BD000704708B5007CFFF717FC20EAE07008BDBD
:104BE00008B5007CFFF7E8FB20EAE07008BD08B5D7
:104BF000007CFFF7F1FB40EAE07008BD08B5007CDF
:104C0000FFF7E2FB40EAE07008BD007CFFF7ECBB79
:104C100037B5457C04462DB1207C03B0BDE830405B
:104C2000FFF7C2BB007C0191FFF7EEFB0028019962
:104C3000F2DC284603B030BD10B514210446FFF75E
:104C40002CFA204610BD000010B54FF47A730446CC
:104C5000084611460022C4E90123044B23600123C6
:104C600020746374FFF7D8FB204610BD546D0B0011
:104C70007047F8B5064615460C468F18BC4206D05C
:104C8000336814F8011B9B6830469847F6E72846BE
:104C9000F8BD007C0022FFF7C7BB007C0021FFF7B6
:104CA000CBBB007C0021FFF7CFBB007C0021FFF7CE
:104CB000D3BB007C0021FFF7D7BB10B514210446FD
:104CC000FFF7EBF9204610BD10B54FF47A73044698
:104CD00008460021C4E90113034B236020741146E8
:104CE000FFF7D2FB204610BD846D0B000022406808
:104CF0001146FFF74DBC002240681146FFF768BC23
:104D0000002240681146FFF773BC40680022FFF79D
:104D100067BC4068002281F00101FFF751BC00230D
:104D200040681A461946FFF743BC00224068114606
:104D3000FFF71EBC406800220221FFF721BC0023C0
:104D400040681A46FFF70CBC024B04225A60024A24
:104D50001A6070470CE70320AC6D0B00002340681D
:104D60001A46FFF7FDBB406800220221FFF708BC8E
:104D7000002240681146FFF7FBBB00224068114645
:104D8000FFF706BC002340681A461946FFF708BC27
:104D9000002340681A461946FFF70ABC4068002104
:104DA000FFF72EBC40680021FFF732BC40680022AC
:104DB00081F00101FFF704BC40680022FFF710BC3E
:104DC000002240681146FFF713BC002240681146DC
:104DD000FFF7FEBB2DE9F04395B014460D4607469C
:104DE000FFF732FE00211C220DA8009101F09EFE6B
:104DF00040230C9320466B460CAA0021FFF78CFA47
:104E0000044600284BD1024601216868FFF7C0FB29
:104E10000221804622466868FFF7BAFB009E814661
:104E20002146002E3BD0002939D17368022B03D0D4
:104E30000A2B11D0F669F4E7B8F1000FFAD07169C6
:104E400006A8043107ADFFF72DFE0FCD3C1D0FC4A2
:104E50002B6823704146EDE7B9F1000FEAD0746981
:104E6000102201A801F062FE06238DF8143001AD76
:104E700004F108031834186859682A4603C2083335
:104E8000A3421546F7D101A906A807ADFFF7EAFD31
:104E90000FCD3C1D0FC42B6823704946CAE700980C
:104EA000FFF732FA384615B0BDE8F083024B034AEB
:104EB0001A6000225A60704714E70320E86D0B0067
:104EC000232813B502D9002002B010BDA0F10B03B6
:104ED000022B1AD8174C2178BFF35B8F11F0010118
:104EE0000BD120460191FFF7DAF8019928B1124859
:104EF000FFF70CFC2046FFF7D7F80F4B1878FFF7A9
:104F0000D3FA0028DFD10120DEE7012809D800F01C
:104F100091F80021007CFFF7AFFA80F00100C0B2E9
:104F2000D2E709380128EED800F048F8007CFFF7F6
:104F300063FAF2E71CE7032020E70320232838B5B3
:104F400004460D460AD8FF2908D0FFF7B9FF28B15B
:104F500029462046BDE83840FFF7E6B938BD10B510
:104F60000446FFF7E9F9031FDBB2012B08D92046FD
:104F7000FFF7A6FF20B12046BDE81040FFF7E4B9D7
:104F8000002010BD7047000038B5044614252A469D
:104F9000002101F0CBFD25804025074925812846C9
:104FA000258200F06BF804496060284600F066F83E
:104FB000E060204638BD00BF1C6E0B0030B50E4DC2
:104FC0002978BFF35B8F11F0010487B011D1284617
:104FD000FFF765F868B101A8FFF7D6FF01AA2146DF
:104FE0000648FFF731FE2846FFF75EF8044801F057
:104FF00089FD024807B030BD28E703202CE70320D5
:10500000854F0B007047000038B520251423044657
:105010000360856005610649284600F02FF80449C1
:105020006060284600F02AF8E060204638BD00BFE6
:105030001C6E0B0030B50E4D2978BFF35B8F11F05D
:10504000010487B011D12846FFF729F868B101A8FB
:10505000FFF7DAFF01AA21460648FFF735FE28468A
:10506000FFF722F8044801F04DFD024807B030BDBB
:1050700044E7032048E7032005500B00FFF70BB877
:10508000F8B52DED028B57EC106B55EC114B00F081
:10509000CBF8634BB0EE408AF0EE608A93F90030B3
:1050A00001332AD022462B462046294601F0C4FC73
:1050B00018BB32463B463046394601F0BDFC00285D
:1050C00044D1002200233046394601F083FCD8B198
:1050D000002200232046294601F07CFC00283DD117
:1050E00045EC104B00F010FF38B120462946002255
:1050F000002301F079FC00285CD1B0EE480AF0EE04
:10510000680ABDEC028BF8BDB0EE480AF0EE680A02
:1051100000F0FAFE58B351EC180B0022002301F006
:1051200059FC0028E9D047EC106B00F0EDFE002898
:10513000E3D045EC104B00F0E7FE0028DDD0FFF790
:105140008FFA22239FED2E8B0360D6E72046294657
:105150000022002301F03EFC0028CED09FED2A8BD8
:10516000B0EE480AF0EE680ABDEC028BF8BD47ECE1
:10517000106B00F0C9FE0028CDD045EC104B00F0BC
:10518000C3FE0028C7D053EC182B18EE100A19469E
:1051900001F052FC20BBFFF763FA034622221A609B
:1051A000304639460022002301F01EFC48B99FED2D
:1051B000188BA2E7FFF754FA21239FED178B0360AA
:1051C0009BE745EC104B00F0B3FE224651EC100B70
:1051D0002B4601F0FFFB0028E9D19FED0F8B8CE7F8
:1051E000FFF73EFA002200232121016010461946F4
:1051F00001F0B2FA41EC180B7FE700BFAFF300807B
:105200000000000000000000000000000000F03F6F
:10521000000000000000F07F000000000000F0FF30
:1052200018E60320000000002DE9F04F57EC116B49
:105230002DED0C8B27F0004A5AEA060287B03DD0CC
:1052400055EC104B724925F00048884510EE102AA5
:10525000A9462CDC11EE103ABB4636D08A4526DC36
:105260006B498A4521D0B9F1000F39DB002100914B
:10527000002B51D1664B9A4500F0A280654B9A45B0
:1052800000F0B080BBF1804F00F0C084624B9B45C2
:1052900042D1B9F1000F3FDB45EC104B07B0BDEC3C
:1052A0000C8BBDE8F04F00F059BD002BDBD008F1AE
:1052B000404808F5801858EA020309D19FED500BC9
:1052C00007B0BDEC0C8BBDE8F08F0CB9C245C7DD53
:1052D000524807B0BDEC0C8BBDE8F04F00F020BE8B
:1052E0004F498A4500F38580A1F154718A450FDD4D
:1052F0004FEA2A51A1F2FF31142940F39B84C1F1F6
:10530000340123FA01F000FA01F1994200F0ED8432
:1053100000210091002BB1D045EC104B029200F01F
:10532000E9FD029A5ABBB8F1000F04D0394B29F0BD
:1053300040429A4223D1BBF1000F07DA53EC102B05
:105340003449002001F008FA41EC100BB9F1000FCC
:10535000B6DA009B08F1404808F5801858EA0303C4
:1053600040F08D8453EC102B1046194600F012FFCC
:1053700002460B4601F0F0F941EC100BA0E7009A51
:105380004FEAD973013B0493134335D0254B9A451B
:105390004CDD03F104739A45234B40F3DB839845BE
:1053A00040F36083BBF1000F40F3608316A3D3E9A1
:1053B00000231046194601F0A5F841EC100B7FE7D9
:1053C00008F1404303F5801313433FF477AF164BC6
:1053D000984540F37A83BBF1000FC0F2478347EC56
:1053E000106B6DE7BBF1000FC0F21A8445EC104B57
:1053F00066E7022100913BE722462B46B4E700BF57
:10540000000000000000F03F9C7500883CE4377EFF
:105410000000F07F0000F03F0000E03F206E0B0036
:10542000FFFF3F430000E041FFFFEF3FE44B09EA8D
:105430000303002253B951EC100BE24B01F062F868
:1054400041EC100B10EE908A6FF034024FEA2853B3
:10545000A3F2FF339A18DC4B0592C8F3130848F007
:105460007F54984544F4401407DDD84B984540F3E9
:10547000148401320592A4F580149FEDB96B9FED61
:10548000BA7B53EC162BB0EE47CAF0EE67CA002584
:10549000B0EE47DAF0EE67DA5BEC10ABA3465046AD
:1054A000594643EC1A2B00F075FE53EC1A2B80463C
:1054B00089465046594600F06FFE02460B460020D2
:1054C000C34901F049F941EC1B0B404653EC1B2B3F
:1054D000494601F017F841EC180B0A460146CDE9A0
:1054E00002120021029164104BEC19AB44F00054FD
:1054F000DDE902AB04F500230020591904460D46EE
:1055000002460B465046594600F0FCFF02460B4649
:105510004046494600F03EFE53EC1A2B8046894631
:105520002046294600F036FE02460B4651EC190B88
:1055300000F030FE52465B4600F0E4FF02460B46A8
:105540004046494600F026FE53EC1B2B00F0DAFFE4
:1055500053EC182B41EC190B51EC180B00F0D2FF57
:1055600083A3D3E9002304460D4600F0CBFF82A3BA
:10557000D3E9002300F010FE22462B4600F0C2FFC4
:105580007FA3D3E9002300F007FE22462B4600F05C
:10559000B9FF7DA3D3E9002300F0FEFD22462B4690
:1055A00000F0B0FF7AA3D3E9002300F0F5FD224616
:1055B0002B4600F0A7FF78A3D3E9002300F0ECFD11
:1055C0002246804689462B462046294600F09AFF0F
:1055D00002460B464046494600F094FF52460446B8
:1055E0000D465B4651EC180B00F0D6FD53EC192B21
:1055F00000F088FF22462B4600F0CEFD5246804642
:1056000089465B465046594600F07CFF02460B46F1
:1056100043EC1A2B6F4B002200F0BEFD42464B4676
:1056200000F0BAFD00240D4622462B46504659464E
:1056300000F068FF674B82468B46002220462946D1
:1056400000F0A8FD53EC1A2B00F0A4FD02460B4617
:105650004046494600F09EFD53EC182B00F052FFE7
:1056600022462B4604460D4651EC190B00F04AFF2A
:1056700002460B462046294600F08EFD80468946AC
:1056800042464B465046594600F086FD44A3D3E9B6
:105690000023002004460D4600F034FF524641EC42
:1056A000190B5B462046294600F074FD02460B4666
:1056B0004046494600F06EFD3BA3D3E9002300F0CD
:1056C00021FF02460B462046294614461D4638A3B4
:1056D000D3E9002300F016FF02460B462046294678
:1056E00000F05AFD53EC1D2B00F056FD8046059846
:1056F000894600F09DFE424682468B464B4651EC61
:10570000190B00F049FD53EC1C2B00F045FD5246EF
:105710005B4600F041FD52465B46002004460D46C4
:1057200000F038FD53EC1C2B00F034FD53EC192B2A
:1057300000F030FD02460B464046494600F02AFD87
:10574000009B049A013B134382468B4640F0B6818E
:105750009FED197BB0EE478AF0EE678A3CE000BF10
:10576000000000000000F03F00000000000000000A
:10577000EF4E454A287ECA3F65DBC9934A86CD3F36
:1057800001411DA96074D13F4D268F515555D53F1C
:10579000FFAB6FDBB66DDB3F033333333333E33FB4
:1057A000000000E009C7EE3FFD033ADC09C7EE3F09
:1057B000F5015B14E02F3EBE000000000000F0BFCA
:1057C0000000F07F000040438E98030079B60B0084
:1057D0000000F03F000008400023CDE9006700937F
:1057E000DDE90089304642464B46394600F0D2FC9E
:1057F00022462B4600F086FE32463B4606460F46C2
:105800005046594600F07EFE02460B463046394669
:1058100000F0C2FC42464B4606460F46204629464B
:1058200000F070FE04460D462B46304639462246AF
:1058300000F0B2FCC24B9942804689468A4640F34A
:10584000188101F13F4303F5E003034340F0078271
:10585000A3A3D3E900233046394600F09DFC02465D
:105860000B46404649469046994622462B4600F054
:1058700091FC02460B464046494601F0D3F8002809
:1058800040F0ED81CAF30A534FF48012A3F2FE33C5
:1058900042FA03F35344AB49C3F30A52A2F2FF3274
:1058A00041FA02FCC3F3130141F48011C2F1140266
:1058B00041FA02F2002023EA0C01BAF1000F009233
:1058C0000B46024602DA00994942009120462946D9
:1058D00000F060FC009B1B05029302460B46044649
:1058E0000D463046394600F057FC89464FF0000817
:1058F0007DA3D3E900234046494600F003FE22463B
:105900002B4682468B464046494600F043FC024601
:105910000B463046394600F03DFC75A3D3E9002321
:1059200000F0F0FD74A3D3E9002304460D46404681
:10593000494600F0E7FD02460B462046294600F0A6
:105940002BFC06460F4632463B465046594600F071
:1059500023FC52465B4604460D4600F01BFC024603
:105960000B463046394600F015FC224680468946F3
:105970002B462046294600F0C5FD61A3D3E900234C
:1059800006460F4600F0BEFD5FA3D3E9002300F0FA
:1059900001FC32463B4600F0B5FD5DA3D3E9002390
:1059A00000F0FAFB32463B4600F0ACFD5AA3D3E9C7
:1059B000002300F0EFFB32463B4600F0A3FD58A366
:1059C000D3E9002300F0E8FB32463B4600F09AFDA5
:1059D00002460B462046294600F0DCFB06460F46F1
:1059E00032463B462046294600F08CFD02460B46D7
:1059F0003046394616461F4600224FF0804300F0DD
:105A0000C9FB02460B463046394600F0A5FE424629
:105A100006460F464B462046294600F073FD424697
:105A20004B4600F0B9FB02460B463046394600F0C3
:105A3000B1FB22462B4600F0ADFB02460B46002090
:105A4000414900F0A7FB029A0B461344B3F5801FAF
:105A5000C0F24381194653EC182B00F053FD41EC82
:105A6000100B2DE4BBF1000FFFF6A0AC9FED2E0B49
:105A700026E4DFF8DCC021F00043634540F3E78013
:105A8000324B0B4403430AD122462B4600F082FBE3
:105A900032463B4600F0BCFF00283FF4F3AE24A39F
:105AA000D3E9002351EC180B00F02CFD20A3D3E91F
:105AB000002300F027FD41EC100B01E49FED1E7B5D
:105AC000B0EE478AF0EE678A86E6BBF1000FCDDACA
:105AD00007F1004300EE106A00EE903AFFF7F0BBCA
:105AE000FE822B654715973C00000000432EE63FE1
:105AF000EF39FAFE422EE63F396CA80C615C20BEFD
:105B0000D0A4BE726937663EF16BD2C541BDBB3EC3
:105B10002CDE25AF6A56113F93BDBE166CC1663FA1
:105B20003E5555555555C53F00000000000000008A
:105B300059F3F8C21F6EA501000000000000F03FFD
:105B4000FFFF8F40FFFF0F000000F03F00346F3F6A
:105B5000FFCB9040984585DB7D4B98453FF722ACC5
:105B600051EC100B7A4B002200F014FB68A3D3E930
:105B7000002304460D4600F0C5FC67A3D3E90023CB
:105B800082468B462046294600F0BCFC714B41EC16
:105B9000180B00222046294600F0B4FC02460B46B2
:105BA0005FA1D1E9000100F0F5FA22462B4600F092
:105BB000A9FC02460B460020674900F0EBFA22469A
:105BC000804689462B462046294600F09BFC02462B
:105BD0000B464046494600F095FC53A3D3E9002309
:105BE00000F090FC02460B4651EC180B00F0D2FA84
:105BF0008046894642464B465046594600F0CCFA0C
:105C0000002052465B4604460D4691E522462B464F
:105C10002046294600F076FC41EC100BFFF750BB04
:105C20004B49002022462B4600F096FD41EC100B1C
:105C3000FFF746BB002B44D1C1F114014AFA01F031
:105C400000FA01F151455AD00093FFF717BB424AC1
:105C500093425BDCDDE900120291009146E634A339
:105C6000D3E9002351EC180B00F04CFC30A3D3E92E
:105C7000002300F047FC41EC100BFFF721BB009B19
:105C8000012B7FF41DAB10EE901A10EE102A01F1DB
:105C9000004343EC102BFFF713BB9FED277BB0EEC7
:105CA00047CAF0EE67CA9FED267BB0EE47DAF0EE0A
:105CB00067DA9FED257B4FF4802553EC172BFFF718
:105CC000EBBB45EC104B009200F014F9009A002A4F
:105CD0007FF492AB0092FFF726BB41EC100B0098CB
:105CE00000F0C2F951EC100BB5E600F00100C0F174
:105CF00002010091002B3FF4C1AAFFF70DBB00F099
:105D00000100C0F102030093FFF7B8BA1B15BBE511
:105D1000000000604715F73F44DF5DF80BAE543ECE
:105D2000555555555555D53FFE822B654715F73FBF
:105D30009C7500883CE4377E0000004003B8E23FD9
:105D400006D0CF43EBFD4C3E000000000000F83FC2
:105D50000000F03F0000D03F0000E03F2DE9F0419F
:105D6000634A55EC104BAA4300F09F80002D10EEC3
:105D700010CA2B4654DD291563D0C3F31303A1F2D7
:105D8000FF37C90743F4801304D45B0003EBDC73D3
:105D90004FEA4C0C4FEADC72002602EB43037F1003
:105DA0004FEA4C0C4FF0160E34464FF40012A11877
:105DB000994202DC5B1A8C1816445B00BEF1010E9E
:105DC00003EBDC734FEA52024FEA4C0CEFD17546FD
:105DD00020204FF000420AE044D04FEADC71013845
:105DE00001EB43034FEA4C0C4FEA520243D0A3426B
:105DF00002EB0E01F0DD002901EB020E0ADBA046EA
:105E00001B1B614588BF03F1FF33ACEB010C15444C
:105E10004446E2E7BEF1000FF1DB04F10108EFE7D1
:105E200025F00042224338D0002D4ED129464FEABA
:105E3000DC22153913464FEA4C5C002AF7D0D60213
:105E400050D400205B00DD02044600F10100F9D5CA
:105E50001A4663460CFA00FCC0F12000C340091B3F
:105E600013438AE76145B8D8002901EB020ED1DB64
:105E700098460023C9E753EA0C0310D16808711053
:105E8000F30701F17F5101F5001148BF40F00040D8
:105E900001EB0753024643EC102BBDE8F0816A1C6E
:105EA00016BF681C01364008E9E710EE102A10EE14
:105EB000100A2B46294600F025FB22462B4600F00F
:105EC0006BF941EC100BBDE8F08110EE102A204672
:105ED000294600F05FF902460B4600F03DFC41EC1C
:105EE000100BDAE7634620204FF0FF34B6E700BF1F
:105EF0000000F07F51EC100B10EE102A21F000434F
:105F000043EC102B704700BF82B08DED000B019861
:105F100040F0004000F58010C00F02B0704700BF95
:105F20009FED010B704700BF000000000000F87FEC
:105F3000F0B553EC102BC3F30A5CACF2FF3113291C
:105F400010EE100A83B01C464FEAD37E3ADC0029DB
:105F500030DB424D45FA01FC03EA0C0515432DD018
:105F600003EA5C0318434FEA5C0C0CD024EA0C0CE7
:105F70004FF48024132944FA01F10CBF4FF0004084
:105F800000204CEA0104364901EBCE0E2346DEE93F
:105F9000004502462946204600F0FEF8CDE9000102
:105FA000DDE9000122462B4600F0F4F841EC100B2D
:105FB00003B0F0BD23F00041114324D143EC102B7A
:105FC00003B0F0BD332908DDB1F5806FF6D1194675
:105FD00000F0E2F841EC100BF2E7ACF2134C4FF09A
:105FE000FF3121FA0CF10A42E8D010EA51024FEADF
:105FF0005103C8D020EA03034FF0804040FA0CFC64
:1060000043EA0C00BFE7C3F313031843144A4342A7
:10601000034302EBCE0E1B0B620C03F4002352046D
:1060200043EA02073B46DEE9006710EE102A3046DD
:10603000394600F0B1F8CDE9000132463B46DDE9D2
:10604000000100F0A7F804F0004421F000410246EE
:1060500041EA040343EC102B03B0F0BDFFFF0F0037
:10606000286E0B000000000038B553EC102BC3F372
:106070000A5104469C4689BB10EE101A23F0004CCE
:106080005CEA010129D0194600223D4B3D4D10EE3E
:10609000100A00F037FAAC4202460B4616DB8C467B
:1060A000C1F30A513639214440F2FE70814221DCAD
:1060B000002947DC11F1350F34DA4CF250318C42B3
:1060C00018DC002B26A1D1E9000144DB24A3D3E98D
:1060D000002300F017FA41EC100B38BD40F2FF70BE
:1060E0008142E0D110EE100A194600F055F841EC5B
:1060F000100B38BD002B1CA1D1E9000107DB1AA34E
:10610000D3E9002300F0FEF941EC100B38BD18A1D3
:10611000D1E9000114A3D3E9002300F0F3F941EC25
:10612000100BF3E72CF0FF4C2CF4E00C36314CEA6A
:106130000153104619460022134B00F0E3F941ECDD
:10614000100B38BD2CF0FF4C2CF4E00C4CEA015342
:1061500043EC102B38BD08A1D1E90001B6E700BF20
:1061600059F3F8C21F6EA5019C7500883CE4377E88
:106170009C7500883CE437FE59F3F8C21F6EA58178
:1061800000005043B03CFFFF0000903C81F0004114
:1061900002E000BF83F0004330B54FEA41044FEA0C
:1061A000430594EA050F08BF90EA020F1FBF54EAA7
:1061B000000C55EA020C7FEA645C7FEA655C00F043
:1061C000E2804FEA5454D4EB5555B8BF6D420CDD14
:1061D0002C4480EA020281EA030382EA000083EA97
:1061E000010180EA020281EA0303362D88BF30BD37
:1061F00011F0004F4FEA01314FF4801C4CEA11318D
:1062000002D0404261EB410113F0004F4FEA0333EB
:106210004CEA133302D0524263EB430394EA050F76
:1062200000F0A780A4F10104D5F1200E0DDB02FAE5
:106230000EFC22FA05F2801841F1000103FA0EF279
:10624000801843FA05F359410EE0A5F120050EF13F
:10625000200E012A03FA0EFC28BF4CF0020C43FA70
:1062600005F3C01851EBE37101F0004507D54FF07D
:10627000000EDCF1000C7EEB00006EEB0101B1F5CD
:10628000801F1BD3B1F5001F0CD349085FEA300013
:106290004FEA3C0C04F101044FEA445212F5800F1E
:1062A00080F09A80BCF1004F08BF5FEA500C50F1BB
:1062B000000041EB045141EA050130BD5FEA4C0C9E
:1062C000404141EB0101013C28BFB1F5801FE9D2FB
:1062D00091F0000F04BF01460020B1FA81F308BF1E
:1062E0002033A3F10B03B3F120020CDA0C3208DDEA
:1062F00002F1140CC2F10C0201FA0CF021FA02F1C5
:106300000CE002F11402D8BFC2F1200C01FA02F134
:1063100020FA0CFCDCBF41EA0C019040E41AA2BF59
:1063200001EB0451294330BD6FEA04041F3C1CDA21
:106330000C340EDC04F11404C4F1200220FA04F041
:1063400001FA02F340EA030021FA04F345EA0301EB
:1063500030BDC4F10C04C4F1200220FA02F001FAAD
:1063600004F340EA0300294630BD21FA04F029462F
:1063700030BD94F0000F83F4801306BF81F48011C8
:106380000134013D4EE77FEA645C18BF7FEA655C3B
:1063900029D094EA050F08BF90EA020F05D054EA0D
:1063A000000C04BF1946104630BD91EA030F1EBF12
:1063B0000021002030BD5FEA545C05D14000494116
:1063C00028BF41F0004130BD14F580043CBF01F509
:1063D000801130BD01F0004545F0FE4141F47001EF
:1063E0004FF0000030BD7FEA645C1ABF19461046CA
:1063F0007FEA655C1CBF0B46024650EA013406BFCB
:1064000052EA033591EA030F41F4002130BD00BF89
:1064100090F0000F04BF0021704730B54FF4806446
:1064200004F132044FF000054FF0000150E700BFC7
:1064300090F0000F04BF0021704730B54FF4806426
:1064400004F1320410F0004548BF40424FF0000113
:106450003EE700BF42004FEAE2014FEA31014FEA56
:1064600002701FBF12F07F4393F07F4F81F06051A5
:10647000704732F07F4208BF704793F07F4F04BFF0
:1064800041F40021704730B54FF4607401F00045CD
:1064900021F000411CE700BF50EA010208BF70472D
:1064A00030B54FF000050AE050EA010208BF70471E
:1064B00030B511F0004502D5404261EB41014FF487
:1064C000806404F132045FEA915C3FF4D8AE4FF08F
:1064D00003025FEADC0C18BF03325FEADC0C18BF72
:1064E000033202EBDC02C2F1200300FA03FC20FAC3
:1064F00002F001FA03FE40EA0E0021FA02F1144410
:10650000BDE600BF70B54FF0FF0C4CF4E06C1CEA28
:1065100011541DBF1CEA135594EA0C0F95EA0C0F99
:1065200000F0DEF82C4481EA030621EA4C5123EA0C
:106530004C5350EA013518BF52EA033541F480113B
:1065400043F4801338D0A0FB02CE4FF00005E1FBEE
:1065500002E506F00042E0FB03E54FF00006E1FB38
:1065600003569CF0000F18BF4EF0010EA4F1FF047B
:10657000B6F5007F64F5407404D25FEA4E0E6D41BB
:1065800046EB060642EAC62141EA55514FEAC520CC
:1065900040EA5E504FEACE2EB4F1FD0C88BFBCF548
:1065A000E06F1ED8BEF1004F08BF5FEA500E50F1F9
:1065B000000041EB045170BD06F0004646EA0101BF
:1065C00040EA020081EA0301B4EB5C04C2BFD4EBF1
:1065D0000C0541EA045170BD41F480114FF0000EEA
:1065E000013C00F3AB8014F1360FDEBF002001F058
:1065F000004170BDC4F10004203C35DA0C341BDCD2
:1066000004F11404C4F1200500FA05F320FA04F0A3
:1066100001FA05F240EA020001F0004221F00041D7
:1066200010EBD37021FA04F642EB06015EEA430E4A
:1066300008BF20EAD37070BDC4F10C04C4F120057A
:1066400000FA04F320FA05F001FA04F240EA02002D
:1066500001F0004110EBD37041F100015EEA430EFE
:1066600008BF20EAD37070BDC4F1200500FA05F21E
:106670004EEA020E20FA04F301FA05F243EA02039D
:1066800021FA04F001F0004121FA04F220EA0200AC
:1066900000EBD3705EEA430E08BF20EAD37070BDF2
:1066A00094F0000F0FD101F00046400041EB0101D2
:1066B00011F4801F08BF013CF7D041EA060195F0B4
:1066C000000F18BF704703F00046520043EB03036E
:1066D00013F4801F08BF013DF7D043EA060370475B
:1066E00094EA0C0F0CEA135518BF95EA0C0F0CD066
:1066F00050EA410618BF52EA4306D1D181EA0301AC
:1067000001F000414FF0000070BD50EA410606BFA5
:106710001046194652EA430619D094EA0C0F02D1EA
:1067200050EA013613D195EA0C0F05D152EA03362F
:106730001CBF104619460AD181EA030101F000414D
:1067400041F0FE4141F470014FF0000070BD41F096
:10675000FE4141F4780170BD70B54FF0FF0C4CF470
:10676000E06C1CEA11541DBF1CEA135594EA0C0F8F
:1067700095EA0C0F00F0A7F8A4EB050481EA030EDC
:1067800052EA03354FEA013100F088804FEA0333C3
:106790004FF0805545EA131343EA12634FEA022291
:1067A00045EA111545EA10654FEA00260EF0004152
:1067B0009D4208BF964244F1FD0404F5407402D2A4
:1067C0005B084FEA3202B61A65EB03055B084FEA35
:1067D00032024FF480104FF4002CB6EB020E75EB32
:1067E000030E22BFB61A754640EA0C005B084FEA5A
:1067F0003202B6EB020E75EB030E22BFB61A7546D7
:1068000040EA5C005B084FEA3202B6EB020E75EB21
:10681000030E22BFB61A754640EA9C005B084FEA99
:106820003202B6EB020E75EB030E22BFB61A7546A6
:1068300040EADC0055EA060E18D04FEA051545EA95
:1068400016754FEA06164FEAC30343EA52734FEA3E
:10685000C2025FEA1C1CC0D111F4801F0BD141EAB7
:1068600000014FF000004FF0004CB6E711F4801F1C
:1068700004BF01430020B4F1FD0C88BFBCF5E06FFC
:106880003FF6AFAEB5EB030C04BFB6EB020C5FEA0C
:10689000500C50F1000041EB045170BD0EF0004E61
:1068A0004EEA113114EB5C04C2BFD4EB0C0541EA93
:1068B000045170BD41F480114FF0000E013C90E690
:1068C00045EA060E8DE60CEA135594EA0C0F08BF54
:1068D00095EA0C0F3FF43BAF94EA0C0F0AD150EA53
:1068E00001347FF434AF95EA0C0F7FF425AF1046E6
:1068F00019462CE795EA0C0F06D152EA03353FF40E
:10690000FDAE1046194622E750EA410618BF52EA8A
:1069100043067FF4C5AE50EA41047FF40DAF52EA5E
:1069200043057FF4EBAE12E74FF0FF3C06E000BFFB
:106930004FF0010C02E000BF4FF0010C4DF804CD08
:106940004FEA410C7FEA6C5C4FEA430C18BF7FEAC8
:106950006C5C1BD001B050EA410C0CBF52EA430CF6
:1069600091EA030F02BF90EA020F0020704710F176
:10697000000F91EA030F58BF994208BF90422CBF05
:10698000D8176FEAE37040F0010070474FEA410CFE
:106990007FEA6C5C02D150EA013C07D14FEA430C1C
:1069A0007FEA6C5CD6D152EA033CD3D05DF8040B8D
:1069B000704700BF8446104662468C4619466346BF
:1069C00000E000BF01B5FFF7B7FF002848BF10F196
:1069D000000F01BD4DF808EDFFF7F4FF0CBF0120DB
:1069E00000205DF808FB00BF4DF808EDFFF7EAFF57
:1069F00034BF012000205DF808FB00BF4DF808ED12
:106A0000FFF7E0FF94BF012000205DF808FB00BF06
:106A10004DF808EDFFF7CEFF94BF012000205DF890
:106A200008FB00BF4DF808EDFFF7C4FF34BF01209D
:106A300000205DF808FB00BF4FEA410C7FEA6C5C68
:106A400002D150EA013C0AD14FEA430C7FEA6C5C68
:106A500002D152EA033C02D14FF0000070474FF0E0
:106A6000010070474FEA4102B2F1E04324BFB3F5A1
:106A7000001CDCF1FE5C0DD901F0004C4FEAC002B5
:106A80004CEA5070B2F1004F40EB830008BF20F099
:106A90000100704711F0804F21D113F13872BCBF53
:106AA00001F00040704741F480114FEA5252C2F1A8
:106AB0001802C2F1200C10FA0CF320FA02F018BFF1
:106AC00040F001004FEAC1234FEAD32303FA0CFC44
:106AD00040EA0C0023FA02F34FEA4303CCE77FEAD3
:106AE000625307D150EA01331EBF4FF0FE4040F41D
:106AF0004000704701F0004040F0FE4040F40000CC
:106B0000704700BF002301461A46184600F04CB8F3
:106B10000A44914200F1FF3300D1704710B511F8DB
:106B2000014B03F8014F9142F9D110BD02440346D5
:106B3000934200D1704703F8011BF9E738B5104BB9
:106B40001D68AB6B0446B3B91820FDF771FD024612
:106B5000A86320B90B4B0C484221FDF789FD0B4976
:106B60000B4BC0E900130B4B83600B238381002187
:106B70000120C2E90401AB6B00221C615A6138BDDF
:106B80001CE60320386E0B004F6E0B000E33CDABAE
:106B900034126DE6ECDE0500034613F8012B002AE3
:106BA000FBD1181A013870472DE9F843DFF8B88097
:106BB0000646D8F800001F460D46914600F056F8EC
:106BC000254B1C6834B9254C1C60254B13B11B6840
:106BD000C4F8883063681F2B07DDD8F8000000F088
:106BE00047F84FF0FF30BDE8F8834EB3D4F8880083
:106BF00088B91C4B23B9D8F8000000F038F8F0E74A
:106C00004FF48470FDF714FD0028F4D00023C0E990
:106C10004033C4F88800636840F8239001229A400A
:106C200000EB8301D0F800311343C0F80031022E8D
:106C3000C1F8807002BFD0F804311343C0F80431AA
:106C40006368D8F800005A1C0233626044F823508D
:106C500000F00EF80020C6E7E8E703205CE7032019
:106C60000000000031460B0080E6032070477047AB
:106C70007047000021400B005D400B0085400B0079
:106C800089400B00000000004C504F2025692C204B
:106C9000636F6E63656E2025302E32662C20726124
:106CA00074696F2025302E32660A00000000000053
:106CB00000000000EF460B00E5460B00DB460B0032
:106CC000D1460B00C5460B00B9460B009D4D0B008D
:106CD000A54D0B00AD460B00A5460B009B460B00D7
:106CE00091460B00D54D0B006170700025592D2584
:106CF0006D2D25645425483A254D3A2553257A00B3
:106D000061736374696D650000000000000000009D
:106D1000E5490B00D5490B00D7490B0000000000E6
:106D200000000000CB4A0B00334B0B00094B0B005B
:106D300055470B00FB4A0B00CD4A0B00DD4A0B0008
:106D40002D4B0B00ED4A0B00C54A0B000000000064
:106D500000000000CD4B0B00394C0B00114C0B0018
:106D600055470B00E14B0B00FD4B0B00EF4B0B00AD
:106D70000B4C0B00CF4B0B00D34B0B000000000063
:106D800000000000714C0B00BB4C0B00934C0B003F
:106D9000734C0B009B4C0B00A34C0B00AB4C0B003B
:106DA000B34C0B0000000000000000003F4D0B0042
:106DB000354D0B002B4D0B00ED4C0B0061480B00CB
:106DC0001F4D0B009D4D0B00A54D0B00134D0B00EF
:106DD0000B4D0B00014D0B00F74C0B00D54D0B007C
:106DE00000000000000000005D4D0B00674D0B002F
:106DF000714D0B007B4D0B00854D0B00914D0B0031
:106E00009D4D0B00A54D0B00AD4D0B00B94D0B007A
:106E1000C14D0B00CB4D0B00D54D0B000000000009
:106E200000000000000000000000000000003043EF
:106E300000000000000030C35245454E54206D61F3
:106E40006C6C6F6320737563636565646564002FA4
:106E50006D6E742F776F726B73706163652F776FD0
:106E6000726B73706163652F4743432D31302D7012
:106E70006970656C696E652F6A656E6B696E732DDE
:106E80004743432D31302D706970656C696E652DF7
:106E900034385F32303230313132345F313630366F
:106EA0003138303634312F7372632F6E65776C69E9
:106EB000622F6E65776C69622F6C6962632F7374E1
:106EC000646C69622F72616E642E6300F1420B0084
:106ED000F9460B0021470B0045470B006D480B009E
:106EE0007D480B0091480B00494D0B00AD4E0B0047
:046EF000000000009E
:106EF400006D0B00FF00000020E6032000000000EE
:106F0400000000000000000000000000000000007D
:106F1400000000000000000000000000000000006D
:106F2400000000000000000000000000000000005D
:106F3400000000000000000000000000000000004D
:106F4400000000000000000000000000000000003D
:106F5400000000000000000000000000ECE7032037
:106F6400FFFFFFFF00000102030405060708090AEA
:106F74000B0C0D0E0F101112131415161718191AE5
:086F84001B1C1D1E1F2028002C
:046F8C0078563412ED
:04000003B0004020E9
:00000001FF
