:02000002B0004C
:1040000000400B0018720B00000006000C000502B7
:084010000401810C0000000016
:04401800606D0B00CC
:1040200009480A49884208B505D0094A824202D0A7
:10403000121A02F0E3FD0748074A0021121A02F0A3
:10404000EBFD014808BD00BF1CE6032084710B0096
:1040500088E6032088E60320EDE7032070B5074ECD
:10406000074C00F0CBFBA41BA4080025AC4200D1F8
:1040700070BD56F8043B98470135F7E754710B00C3
:1040800078710B0000F014B808B500F039F8BDE8FD
:10409000084000F06BBB00F05DBA00F063BA007836
:1040A000B0FA80F0400970470123037070470000A8
:1040B00008B50021042000F083FE0121102000F04B
:1040C0007FFE094B094A1A60094A7F231360094A97
:1040D000136000F0EBF807EE900A074BF8EE677AF2
:1040E000C3ED007A08BD00BFB0E6032000409C4548
:1040F00094E60320ACE60320A8E6032000000000BD
:10410000F8B500F0D3F8324E324F96ED007A324CCB
:1041100007EE900AF8EE677A0420C7ED007A77EE92
:10412000C77AC4ED007A00F075FE2C4B01281860A8
:1041300042D12B4B94ED007AD3ED007A77EE877A5B
:10414000C3ED007A17EE900A02F038FA1EA3D3E905
:10415000002302F08BFA234B044618680D4602F048
:104160002DFA02460B462046294602F0A9FB41ECF7
:10417000100B00F005FF1C4B55EC104B186802F0BB
:104180000BFA22462B4602F071FA184B04461868C7
:104190000D4602F001FA0B4602462946204602F07F
:1041A000AFF802F0FDFC124B01461860102000F041
:1041B00044FE3B683360F8BD0021102000F011FE82
:1041C000F7E700BFAFF30080182D4454FB211940DE
:1041D000A8E60320A0E60320A4E603209CE6032033
:1041E000B4E60320B0E6032094E60320ACE6032007
:1041F00098E60320044B0022C3E90022A2F5803296
:104200009A60022000F022B988E6032008B5024B2C
:104210001B689B68019308BD6802030008B5024B48
:104220001B68DB68019308BD6802030008B5024BF8
:104230001B685B68019308BD2C02030008B5024BA4
:104240001B689B68019308BD2C02030008B5024B54
:104250001B68DB68019308BD2C02030008B5024B04
:104260001B681B69019308BD2C02030008B5024BB3
:104270001B685B69019308BD2C02030008B5024B63
:104280001B689B6A019308BD2C02030008B5024B12
:104290001B689B6F019308BD2C02030008B5024BFD
:1042A0001B685B68019308BD1802030008B5024B48
:1042B0001B685B69019308BD1802030008B5024B37
:1042C0001B685B6C019308BD4802030008B5024BF4
:1042D0001B685B69019308BD6402030008B5024BCB
:1042E0001B68DB68019308BD3C02030008B5024B64
:1042F0001B681B69019308BD3C02030008B5024B13
:104300001B685B69019308BD3C02030008B5024BC2
:104310001B689B69019308BD3C02030008B5024B72
:104320001B68DB69019308BD3C02030008B5024B22
:104330001B681B6A019308BD3C02030008B5024BD1
:104340001B689B6A019308BD3C02030008B5024B41
:104350001B681B6C019308BD3C02030008B5024BAF
:104360001B681B6A019308BD2802030008B5024BB5
:104370001B685B6A019308BD2802030008B5024B65
:104380001B689B6A019308BD2802030008B5024B15
:104390001B68DB6A019308BD2802030008B5024BC5
:1043A0001B681B6B019308BD2802030008B5024B74
:1043B0001B685B6B019308BD2802030008B5024B24
:1043C0001B681B6C019308BD2802030008B5024B53
:1043D0001B68DB69019308BD3002030008B5024B7E
:1043E0001B681B6A019308BD3002030008B5024B2D
:1043F0001B681B68019308BD4C02030008B5024B03
:104400001B681B69019308BD4C02030008B5024BF1
:104410001B685B69019308BD4C02030008B5024BA1
:104420001B689B69019308BD4C02030008B5024B51
:104430001B68DB69019308BD4C02030008B5024B01
:104440001B681B6A019308BD4C02030008B5024BB0
:104450001B685B68019308BD2002030008B5034B8D
:104460001B68D3F88830019308BD000020020300C8
:1044700008B5034B1B68D3F89430019308BD0000C6
:104480002002030008B5024B1B685B68019308BD5E
:104490004002030008B5024B1B689B68019308BDEE
:1044A0004002030008B5024B1B68DB68019308BD9E
:1044B0004002030008B5024B1B681B69019308BD4D
:1044C0004002030008B5024B1B685B69019308BDFD
:1044D0004002030008B5024B1B689B69019308BDAD
:1044E0004002030008B5024B1B68DB69019308BD5D
:1044F0004002030008B5024B1B681B6A019308BD0C
:104500004002030008B5024B1B681B6B019308BDFA
:104510004002030008B5024B1B685B6B019308BDAA
:104520004002030008B5024B1B681B6C019308BDD9
:104530004002030008B5024B1B685B6C019308BD89
:104540004002030008B5024B1B68DB6B019308BDFA
:104550004402030008B5024B1B681B68019308BDA9
:104560001C02030008B5024B1B685B68019308BD81
:104570001C02030008B5024B1B681B6C019308BDAD
:104580001C02030008B5024B1B685B6C019308BD5D
:104590001C020300002240681146FFF7ABBF002257
:1045A00040681146FFF7B6BF40680022FFF7AABF78
:1045B0004068002281F00101FFF794BF00234068AA
:1045C0001A461946FFF786BF002340681A46194667
:1045D000FFF778BF002240681146FFF76BBF00224B
:1045E00040681146FFF756BF406800220221FFF7DE
:1045F00059BF002340681A46FFF744BF024B03220D
:104600005A60024A1A607047B8E603207C6D0B00BE
:1046100010B5044608462170FFF7D8FE00236360FA
:10462000204610BD054B02221A60054B054A9A60D0
:104630000020C3E90000FFF709BF00BFCCE603205C
:10464000C0E603200000FFFF024800230360FFF7DD
:1046500035BE00BFD0E60320F8B506460D468F18DC
:104660000024BD420CD0336815F8011B9B6830460E
:104670009847031E01DB1C44F3E7002C08BF1C46CF
:104680002046F8BD13B50446084659B1019102F021
:10469000F9FA23680199DB680246204602B0BDE8BA
:1046A0001040184702B010BD03689B68184730B52A
:1046B0008BB00023012A8DF8243098BF0A2209AC60
:1046C0000D46B1FBF2F101FB125303F0FF03092B7E
:1046D00094BF30333733DBB2AA4204F8013DEFD93F
:1046E0002146FFF7CFFF0BB030BD002340681A46CC
:1046F0001946FFF7E7BE0000014B024A1A607047F7
:10470000D4E60320B06D0B00024B1A68024B1A600E
:10471000704700BF1CE60320D8E60320014B0022AF
:104720009A607047DCE60320014B1860704700BFB9
:1047300020E6032008B50B4B43B100F063F9036892
:104740001B699847002801DDAFF30080064B43B199
:1047500000F0B4FB03681B699847002801DDAFF344
:10476000008008BD000000000000000008B5FFF751
:10477000E1FFFFF79BFD014B186008BD40E70320F8
:104780000548064A064908B5121A02F037FA054BE1
:10479000054A1A6008BD00BF00F4032004F403209A
:1047A00080710B0000F403201E1C279A07B500231C
:1047B00000931A466FF07701FFF75AFE03B05DF8D9
:1047C00004FB000007B543880A2B08D0502B0BD1FF
:1047D000094B1B684BB103B05DF804EB1847FFF7BA
:1047E000E5FF03B05DF804FB002300931A466FF069
:1047F0007701FFF73DFEF4E7F0E6032010B512481D
:104800000021FFF7BFFE114B1A68114B9A42114B62
:104810000CBF012200221A7001D0FFF7B1FFFFF791
:104820003DFD044602F000FA0B4B13B12046AFF3F6
:10483000008000210848FFF785FEBDE810400748CA
:104840000021FFF70BBE00BF29470B0000F4032037
:104850001E1C279AECE6032000000000C5470B0051
:10486000704710B518210446FFF717FC204610BD0D
:10487000F0B5037D062B8DB00E4600F104074FF016
:10488000000412D000F1080515F8011D0A22304677
:10489000FFF70DFFAF42044419D0002CF4D02E21B5
:1048A0003046FFF701FF0444EEE72F236A463946FE
:1048B0000A208DF80040FFF709FD684602F0E2F992
:1048C00033680246DB68694630469847044620460E
:1048D0000DB0F0BD10B5054B0446112240F8043B65
:1048E000002102F099F9204610BD00BFD86D0B00E1
:1048F0000346074A10B543F8042B01F1100251F8A2
:10490000044B43F8044B9142F9D10A781A7010BD58
:10491000D86D0B0010B59DF8084044EA032343EA24
:10492000024242EA016104234160037510BD0000A8
:1049300007B5064B0360CB7800938B784A780978EB
:10494000FFF7E8FF03B05DF804FB00BFD86D0B0074
:10495000417470477047704708B50021007CFFF72D
:104960005DFD40EAE07008BD08B50121007CFFF75D
:1049700055FD40EAE07008BD08B5007CFFF746FD34
:1049800020EAE07008BD08B5007CFFF737FD20EA9B
:10499000E07008BD13B50446007C0191FFF736FDB9
:1049A0000028019901DC607C20B1207CFFF73EFDEE
:1049B00020EAE07002B010BD007CFFF73FBD10B5EB
:1049C00014210446FFF769FB204610BD10B54FF4D3
:1049D0007A73044608460021C4E90113044B23609E
:1049E0000123207463741146FFF700FD204610BDBB
:1049F000EC6D0B0010B514220446002102F00CF9F6
:104A0000204610BD10B50F4C88B003A8FFF7F2FF89
:104A10002178BFF35B8F11F001010FD12046019186
:104A2000FFF73DFB019948B103AA0748FFF7CEFF06
:104A30002046FFF739FB054802F0DAF8024808B0D3
:104A400010BD00BFF4E60320F8E6032055490B0033
:104A500070474174704708B5007CFFF76FFC20EA8F
:104A6000E07008BD08B5007CFFF740FC20EAE0706C
:104A700008BD08B5007CFFF749FC40EAE07008BDBE
:104A800008B5007CFFF73AFC40EAE07008BD007C06
:104A9000FFF744BC37B5457C04462DB1207C03B0FC
:104AA000BDE83040FFF71ABC007C0191FFF746FCDF
:104AB00000280199F2DC284603B030BD10B514215E
:104AC0000446FFF7EAFA204610BD000010B54FF487
:104AD0007A730446084611460022C4E90123044BB8
:104AE0002360012320746374FFF730FC204610BD5F
:104AF0001C6E0B007047F8B5064615460C468F181D
:104B0000BC4206D0336814F8011B9B6830469847B6
:104B1000F6E72846F8BD007C0022FFF71FBC007CAA
:104B20000021FFF723BC007C0021FFF727BC007C9D
:104B30000021FFF72BBC007C0021FFF72FBC10B534
:104B400014210446FFF7A9FA204610BD10B54FF412
:104B50007A73044608460021C4E90113034B23601D
:104B600020741146FFF72AFC204610BD4C6E0B0046
:104B7000002240681146FFF79DBC002240681146A4
:104B8000FFF7B8BC002240681146FFF7C3BC40687D
:104B90000022FFF7B7BC4068002281F00101FFF757
:104BA000A1BC002340681A461946FFF793BC0022B7
:104BB00040681146FFF76EBC406800220221FFF7F3
:104BC00071BC002340681A46FFF75CBC024B04220C
:104BD0005A60024A1A6070470CE70320746E0B009B
:104BE000002340681A46FFF74DBC406800220221AE
:104BF000FFF758BC002240681146FFF74BBC00226B
:104C000040681146FFF756BC002340681A46194613
:104C1000FFF758BC002340681A461946FFF75ABCF4
:104C200040680021FFF77EBC40680021FFF782BC8E
:104C30004068002281F00101FFF754BC4068002267
:104C4000FFF760BC002240681146FFF763BC0022FA
:104C500040681146FFF74EBC2DE9F04395B014466D
:104C60000D460746FFF736FE00211C220DA80091D5
:104C700001F0D2FF40230C9320466B460CAA002182
:104C8000FFF7CCFA044600284BD1024601216868A0
:104C9000FFF710FC0221804622466868FFF70AFCF5
:104CA000009E81462146002E3BD0002939D17368F1
:104CB000022B03D00A2B11D0F669F4E7B8F1000FEC
:104CC000FAD0716906A8043107ADFFF731FE0FCDA8
:104CD0003C1D0FC42B6823704146EDE7B9F1000F6E
:104CE000EAD07469102201A801F096FF06238DF81E
:104CF000143001AD04F108031834186859682A46C5
:104D000003C20833A3421546F7D101A906A807AD8F
:104D1000FFF7EEFD0FCD3C1D0FC42B6823704946F5
:104D2000CAE70098FFF772FA384615B0BDE8F0837D
:104D3000024B034A1A6000225A60704714E70320AE
:104D4000B06E0B00232813B502D9002002B010BDAD
:104D5000A0F10B03022B1AD8174C2178BFF35B8FFD
:104D600011F001010BD120460191FFF798F901994B
:104D700028B11248FFF74CFC2046FFF795F90F4B7E
:104D80001878FFF72BFB0028DFD10120DEE7012890
:104D900009D800F0CFF80021007CFFF707FB80F076
:104DA0000100C0B2D2E709380128EED800F086F839
:104DB000007CFFF7BBFAF2E71CE7032020E70320A3
:104DC000232838B504460D460AD8FF2908D0FFF736
:104DD000B9FF28B129462046BDE83840FFF72EBA72
:104DE00038BD38B504460D46FFF730FAFF2810D01D
:104DF000062804D84D2323FA00F0C30709D420461F
:104E0000FFF7A0FF28B129462046BDE83840FFF74C
:104E100025BA38BD10B50446FFF718FA031FDBB2F8
:104E2000012B08D92046FFF78DFF20B12046BDE8B1
:104E30001040FFF71BBA002010BD38B504460D46E0
:104E4000FFF780FFF0B104212046FFF7EFF90428B7
:104E500005D1A9B22046BDE83840FFF70FBA0221BC
:104E60002046FFF7E3F902280CD12046FFF7EEF9C0
:104E7000012801D0042805D129462046BDE8384044
:104E8000FFF704BA38BD704738B5044614252A46E2
:104E9000002101F0C1FE25804025074925812846D3
:104EA000258200F06BF804496060284600F066F83F
:104EB000E060204638BD00BFE46E0B0030B50E4DFB
:104EC0002978BFF35B8F11F0010487B011D1284618
:104ED000FFF7E5F868B101A8FFF7D6FF01AA214660
:104EE0000648FFF7F3FD2846FFF7DEF8044801F017
:104EF0007FFE024807B030BD28E703202CE70320DF
:104F0000874E0B007047000038B520251423044657
:104F10000360856005610649284600F02FF80449C2
:104F20006060284600F02AF8E060204638BD00BFE7
:104F3000E46E0B0030B50E4D2978BFF35B8F11F096
:104F4000010487B011D12846FFF7A9F868B101A87C
:104F5000FFF7DAFF01AA21460648FFF7F7FD2846CA
:104F6000FFF7A2F8044801F043FE024807B030BD45
:104F700044E7032048E70320054F0B00FFF78BB8F9
:104F800051EC100B204A21F00043934227DD00B57D
:104F90001E4A934285B009DD10EE102A0B4601F03F
:104FA000ADF941EC100B05B05DF804FB684600F06C
:104FB0002FF800F0030001289DED021B9DED000B72
:104FC00012D0022817D090B100F04AFA53EC102BFF
:104FD00003F1004300EE903A05B05DF804FB9FED4D
:104FE000081B002000F0A8BF00F03AFADBE7012020
:104FF00000F0A2FFD7E7012000F09EFFE6E700BF28
:105000000000000000000000FB21E93FFFFFEF7FF0
:105010002DE9F04F53EC102B2DED048B904923F02C
:1050200000458D428BB0044640F38C808D498D4203
:105030001F462BDC002F194610EE100A7EA3D3E981
:10504000002340F3B68101F059F9874B9D42804619
:10505000894600F08F807AA3D3E9002301F04EF94E
:1050600002460B46C4E900234046494601F046F992
:1050700073A3D3E9002301F041F9C4E90201012639
:1050800030460BB0BDEC048BBDE8F08F77498D4204
:1050900040F3928076498D4261DC2E15A6F21646C9
:1050A00010EE100AA5EB06519046894601F078FDF6
:1050B00001F072FA02460B4640464946CDE9042308
:1050C00001F01CF96B4B002201F0D0FA89468046B2
:1050D00001F066FD054601F05FFA02460B464046C8
:1050E0004946CDE9062301F009F9624B002201F09F
:1050F000BDFA02460B46CDE908230022002301F049
:105100001DFD002800F05381002D0CBF0123022358
:10511000594A0192022200922146324604A800F028
:10512000DFFA002F0646ABDA6168226801F100431E
:10513000E168C4E90023A26801F10043C4E9022345
:1051400046429DE7002000210026C4E902013046C6
:1051500084ED000B0BB0BDEC048BBDE8F08F10EEBE
:10516000100A194601F0CAF80026C4E90201C4E990
:10517000000185E734A3D3E9002301F0BFF834A38D
:10518000D3E900238046894601F0B8F802460B4671
:10519000C4E900234046494601F0B0F82CA3D3E906
:1051A000002301F0ABF80126C4E9020130460BB040
:1051B000BDEC048BBDE8F08F00F07CFF59EC108B48
:1051C00010EE100A24A3D3E90023494601F04EFA59
:1051D0002A4B002201F094F801F0E2FC064601F0AF
:1051E000DBF902460B4643EC182B13A3D3E900234B
:1051F000B0EE489AF0EE689A01F038FA02460B4693
:105200004046494601F07AF80DA3D3E900238246CF
:105210008B4651EC180B01F029FA1F2E41EC180BAC
:1052200030DC174B721E53F82230AB422AD00246B4
:105230000B469BE0AFF3008000004054FB21F93F98
:105240003163621A61B4D03D0000601A61B4D03D90
:105250007370032E8A19A33B83C8C96D305FE43F86
:10526000FB21E93F7BD90240FB21F93FFB2139417A
:10527000FFFFEF7F00007041686F0B000000E03F10
:10528000E86E0B002B150393504653EC182B594630
:1052900001F034F8C1F30A53C3EB1555102D8046C5
:1052A000894669DD64A3D3E9002351EC190B01F0B1
:1052B000DDF98046894642464B465046594601F044
:1052C0001DF802460B465046594692469B4601F051
:1052D00015F842464B4601F011F859A3D3E90023D3
:1052E0008046894651EC190B01F0C0F942464B4605
:1052F00001F004F802460B465046594643EC182B81
:1053000000F0FCFF039AC1F30A53D31A312B8046F5
:10531000894631DD4DA3D3E9002351EC190B01F08F
:10532000A5F98046894642464B465046594600F00C
:10533000E5FF02460B465046594692469B4600F012
:10534000DDFF42464B4600F0D9FF42A3D3E90023DC
:105350008046894651EC190B01F088F942464B46CC
:1053600000F0CCFF02460B4643EC182B5046594642
:1053700000F0C4FF8046894642464B46C4E9008996
:105380005046594600F0BAFF53EC182B00F0B6FF18
:10539000002FC4E90201BFF673AE09F10043C4E96E
:1053A000008301F10043C4E90203764268E6032367
:1053B000AEE600F0A5FF244B9D428046894616D0FC
:1053C0001BA3D3E9002300F09BFF02460B46C4E970
:1053D00000234046494600F091FF15A3D3E900237E
:1053E00000F08EFF4FF0FF36C4E9020148E612A339
:1053F000D3E9002300F084FF11A3D3E90023804602
:10540000894600F07DFF02460B46C4E90023404672
:10541000494600F073FF0AA3D3E9002300F070FFB0
:105420004FF0FF36C4E902012AE600BFAFF3008067
:105430003163621A61B4D03D0000601A61B4D03D9E
:105440007370032E8A19A33BFB21F93F0000002E45
:105450008A19A33BC14920259A837B3900000000AB
:105460002DE9F84F57EC106B27F00049B9F1795F3F
:105470002DED048B5BEC11AB71DA10EE100A39469E
:1054800001F08EFB002800F0F68032463B463046A5
:10549000394601F0EBF87CA3D3E9002304460D461E
:1054A00001F0E4F87AA3D3E9002300F029FF2246B3
:1054B0002B4601F0DBF878A3D3E9002300F01EFFB0
:1054C00022462B4601F0D2F875A3D3E9002300F061
:1054D00017FF22462B4601F0C9F873A3D3E9002336
:1054E00000F00CFF22462B4601F0C0F870A3D3E970
:1054F000002300F005FF22462B4601F0B7F841ECEF
:10550000180B714B00222046294601F0AFF853ECEE
:10551000182B804689462046294601F0A7F85246B6
:105520005B4604460D463046394601F09FF8024678
:105530000B462046294600F0E1FE02460B46404657
:10554000494600F0DBFE02460B4600205F4900F0B2
:10555000D5FEBDEC048B41EC100BBDE8F88F10EECE
:10556000102A10EE100A3B46394601F07FF846A398
:10557000D3E9002304460D4601F078F844A3D3E9AB
:10558000002300F0BDFE22462B4601F06FF842A337
:10559000D3E9002300F0B2FE22462B4601F066F864
:1055A0003FA3D3E9002300F0ABFE22462B4601F0D7
:1055B0005DF83DA3D3E9002300F0A0FE22462B4670
:1055C00001F054F83AA3D3E9002300F099FE2B46EA
:1055D000224601F04BF83E4B994541EC180B90DD0B
:1055E0003C4B99453CDC0022A9F5001337490020CB
:1055F0009046994600F082FE41EC190B324B002296
:105600002046294601F032F842464B4600F076FE2D
:1056100053EC182B804689462046294601F026F88F
:1056200052465B4604460D463046394601F01EF8A8
:1056300002460B462046294600F060FE02460B4615
:105640004046494600F05AFE02460B4651EC190B03
:1056500000F054FEBDEC048B41EC100BBDE8F88F5C
:105660009FED157BDFF87090B0EE479AF0EE679AE9
:105670004FF00008C2E7BDEC048B9FED110BBDE8B5
:10568000F88F00BFAFF30080D43888BEE9FAA8BD18
:10569000C4B1B4BD9EEE213EAD529C804F7E923E81
:1056A0009015CB19A001FA3E7751C1166CC1563F37
:1056B0004C5555555555A53F000000000000E73FEB
:1056C000000000000000F03F0000E03F0000F03F5D
:1056D0003233D33F0000E93F0000D23F000000001A
:1056E0002DE9F04FADF5197D1C4608930B91BB4B8E
:1056F000A299049053F821100591631E12F1140F22
:105700000393C0F24B83B649D31E81FB0301DB1721
:10571000C3EBA10307930133A3EB8303DB00D3188F
:105720000693079A039BD41A059AD6181AD4013601
:10573000A39F264420AD4FF000084FF0000908E079
:1057400057F8240000F028FF0134B442E5E80201D4
:1057500008D0002CF4DA013440464946B442E5E86A
:105760000201F6D1059B002BC0F2C883089BDDF82F
:105770000C90DA000292059A1A440192049A20A928
:1057800001EBC30A0DF5E07B02EBC308039B002B82
:10579000C0F2A981049E57460024002577E9022320
:1057A000F6E8020100F062FF02460B462046294659
:1057B00000F0A6FD464504460D46EFD1019B09F1D8
:1057C00001099945EBE802450AF1080ADED1049A7D
:1057D000029B13449B46059B0BA901EB83020CA97A
:1057E0000A921A4601EB8303083B09930192019A3E
:1057F00098A901EBC203002A53E9284529DD0DF5DC
:10580000E07A0AEBC2080DF13009764B00222046FF
:10581000294600F02BFF01F0C3F900F0BDFE724BEA
:10582000002206460F4600F021FF02460B462046A6
:10583000294600F063FD01F0B3F978E9022349F845
:10584000040B3946304600F05BFDD04504460D465A
:10585000DBD1DDF8189045EC104B484600F0B8FC61
:1058600055EC104B00224FF07F5310EE100A2946E2
:1058700000F0FCFE41EC100B00F026FC5B4B51EC01
:10588000100B002200F0F2FE02460B46204629468D
:1058900000F034FD0D46044601F082F9804600F028
:1058A0007BFE0B4602462946204600F027FD4B466C
:1058B000002B06460F4640F39B80019A511E0CAA0E
:1058C000C9F1180352F8212042FA03F000FA03F359
:1058D000D31AC9F117050CAA43FA05F5002D42F8B1
:1058E0002130804400F38E80002200233046394668
:1058F00001F024F9002800F05882019B059A03F179
:10590000FF3A524510DC03F180430CAA013B0A9890
:1059100002EB8303002253F80419834242EA010296
:10592000F9D1002A40F0E280059B0CAA013B52F815
:105930002330002B40F0D280099A012352F8041939
:1059400001330029FAD0019AD3180293531C9946C7
:10595000019A08990A449046079A02EB030A0AF151
:10596000804AA39A0AF1FF3A02EB8A0A20AA02EBC4
:10597000C80870AA02EBC30301935AF8040F00F0A1
:105980000BFE0B46039902460029C8E9002347464F
:1059900008F108081EDB049E0024002501E077E9D9
:1059A0000223F6E8020100F061FE02460B462046A3
:1059B000294600F0A5FC5E4504460D46EFD1019B4B
:1059C000E3E802450193029B09F101099945D4DD01
:1059D00001930CE700240025F1E700BFB0700B0035
:1059E000ABAAAA2A0000703E0000704100002040CF
:1059F0006BD1019B0CAA013B52F82350ED15002DF1
:105A00007FF772AF019B002B08F1010840F3CB81B7
:105A10000C9C002C51D1019B012B20D00CAB0122FE
:105A200053F8044F002C4BD0531C0CA9C4F18074C4
:105A300041F822400199994210DD0CAA0CA852F8B5
:105A4000232000EB830300EB81006FF07F4100E037
:105A50001A688A1A43F8042B8342F9D10124069B61
:105A6000002B0EDD012B00F06C81022B09D1019B74
:105A70005A1E0CAB0CA953F82230C3F3150341F89E
:105A80002230022D7FF430AF32463B46B64900202B
:105A900000F034FC06460F46002C3FF425AF069874
:105AA0009FEDAD0B00F094FB3046394653EC102BC4
:105AB00000F024FC06460F4616E701230022B4E757
:105AC000019901328A42ABD1C9E7A84B002201F00B
:105AD00053F8002840F05081054605E7019B01334B
:105AE0009946029334E70024002567E6069B039558
:105AF000A3F118020CABCDF81C8053F82A300692A3
:105B000073B9019B03F18043023B0CA901EB8303B2
:105B100053F804190AF1FF3A183A0029F8D006920E
:105B20009FED8D0B069800F053FBBAF1000F55EC7A
:105B3000104BC0F2D98170AB03EBCA0B0CAA0AF16F
:105B40000103069302EB8306DFF824924FEACA03AF
:105B500004930BF108074FF0000856F8040D00F00D
:105B60001BFD22462B4600F081FD4B4667E90201F2
:105B700042462046294600F079FD0CAB9E42044681
:105B80000D46EAD148ABCDE9013ADDF814A0BAF1EF
:105B9000000F4FF000092CDB71A3D3E90023DFF8DD
:105BA000D4815F4600260024002503E0B14510DBC8
:105BB000F8E80223F7E8020100F058FD02460B4620
:105BC0002046294600F09CFB0136B24504460D46AE
:105BD000ECDA019B029A03EBC9034A45C3E900458D
:105BE000ABF1080B09F1010306D0BAF1000F994699
:105BF000D2DA00240025ECE7A29BDDF808A0022BF6
:105C00001EDC002B00F3078113D1049C019D083496
:105C10002C440020002174E9022300F071FBA5420E
:105C2000F9D1039B13B101F1004319460B9BC3E962
:105C30000001079B03F007000DF5197DBDE8F08F0B
:105C4000A29B032BF5D1BAF1000F00F06981019AF4
:105C5000049BD318D3E9004502EBCA0B7BE902672A
:105C60002046294632463B4600F04AFBA046A9465C
:105C700004460D4622462B463046394600F03EFB90
:105C80004B46424600F03CFB019B5B45CBE90201E1
:105C9000CBE90045E2D1BAF1010F40F34181019A0D
:105CA000049B0AF1005A0AF1FF3A13444FEACA0171
:105CB000D3E9004501F1080A029192440DF5947B65
:105CC0007AE902672046294632463B4600F018FB37
:105CD000A046A94604460D4622462B463046394684
:105CE00000F00CFB42464B4600F00AFBD345CAE9E4
:105CF0000201CAE90045E3D1029C019B10341C4417
:105D000003F110050020002174E9022300F0F8FAE5
:105D1000A542F9D1039B002B40F0BB80019D0B9C59
:105D2000D5E90023C4E90023D5E90223C4E902230D
:105D3000079BC4E9040103F007000DF5197DBDE8D8
:105D4000F08F019B5A1E0CAB0CA953F82230C3F301
:105D5000160341F8223094E6000000000000F03FF6
:105D600000000040FB21F93F0000F03F0000E03F51
:105D70000000703E78700B00019B002B08F10108B9
:105D8000C8BF02253FF744AE32463B466649002075
:105D900000F0B4FA022506460F46A5E500216FF093
:105DA00017030791BBE4002459E647EC106B069EED
:105DB00003957042CDF81C8000F00AFA55EC104BA8
:105DC0005A4B10EE100A0022294600F0D5FE00289A
:105DD00055D0574B019F002218362046294606967B
:105DE00000F044FC00F0DCFE064600F0D5FB4F4B13
:105DF000002200F03BFC0B4602462946204600F0FC
:105E00007DFA00F0CDFE07F1010A0CAB43F8270044
:105E100043F82A6084E6019D069A002005EBC2043F
:105E2000002174E9022300F06BFAA542F9D1039B2B
:105E3000002B49D10B9BC3E900010B460199024697
:105E4000D1E9000100F05AFABAF1000F0DDD4AADB8
:105E50000124F5E80223013400F052FAA245F8DAF1
:105E6000039B13B101F1004319460B9BC3E90201E7
:105E7000079B03F007000DF5197DBDE8F08F204664
:105E8000294600F08DFE019B0CAA9A4642F8230099
:105E900046E6019B1E465C68DD6801F100430B99F4
:105EA0000246C1E90423326804F10043C1E900233A
:105EB000B26805F10043C1E90223079B03F0070024
:105EC0000DF5197DBDE8F08F0B9A01F10043536089
:105ED0000B46019910600246D1E9000100F00EFA6C
:105EE000BAF1000FB3DCBDE7A29B022B0ADC002B4A
:105EF00011DC7FF49EAE0020002192E6089BDB00BF
:105F0000029364E4A29B032B7FF493AE48AB002082
:105F100000210193FEE648AB00200021019386E7B3
:105F200000200021F6E600BF0000F03F00007041B5
:105F30000000703E000000002DE9F04F55EC104BC2
:105F400085B025F00043B3F1795F8DED001B039020
:105F500007DA10EE100A294600F022FE002800F0B1
:105F6000898022462B462046294600F07FFB0646C4
:105F70000F4632463B462046294600F077FB43A3B6
:105F8000D3E9002382468B463046394600F06EFB4B
:105F900040A3D3E9002300F0B1F932463B4600F0BC
:105FA00065FB3EA3D3E9002300F0AAF932463B4645
:105FB00000F05CFB3BA3D3E9002300F09FF93246DD
:105FC0003B4600F053FB39A3D3E9002300F098F9D6
:105FD000039B80468946ABB3DDE900012A4B0022D2
:105FE00000F044FB42464B4680468946504659469F
:105FF00000F03CFB02460B464046494600F07EF965
:1060000032463B4600F032FBDDE9002300F076F932
:106010001BA3D3E9002306460F465046594600F01D
:1060200025FB02460B463046394600F069F9024628
:106030000B462046294600F061F941EC100B05B0F3
:10604000BDE8F08F02460B463046394600F00EFBA5
:106050000BA3D3E9002300F051F952465B4600F050
:1060600005FB22462B4600F04BF941EC100B05B026
:10607000BDE8F08F45EC104B05B0BDE8F08F00BFD8
:10608000495555555555C53F0000E03F7CD5CF5A81
:106090003AD9E53DEB9C2B8AE6E55A3E7DFEB157A9
:1060A000E31DC73ED561C119A0012A3FA6F8101112
:1060B0001111813F51EC100B10EE102A21F000431A
:1060C00043EC102B704700BF51EC100BF8B5C1F337
:1060D0000A53A3F2FF35132D10EE106A0C4630DC84
:1060E000002D1EDB384F2F4101EA070303432DD05B
:1060F00033A3D3E9002300F003F90022002300F0CA
:1061000045FD48B1002C04DA4FF4801343FA05F53D
:106110002C4424EA070400262346324643EC102B85
:10612000F8BD27A3D3E9002300F0EAF800220023FA
:1061300000F02CFD0028EFD0002C29DB002634468F
:10614000EAE7332D05DDB5F5806F19D041EC100B72
:10615000F8BDA3F213434FF0FF37DF400742F5D0FD
:1061600017A3D3E9002300F0CBF80022002300F0AE
:106170000DFD0028D0D0002C13DB26EA0706CBE764
:1061800010EE102A0B4600F0BBF841EC100BF8BDE6
:1061900024F000430D4A1E43002E18BF144600266B
:1061A000BAE7142D08D00123C5F1340503FA05F52B
:1061B000AE1928BFE418E0E70134DEE7AFF3008052
:1061C0009C7500883CE4377EFFFF0F000000F0BFA5
:1061D00038B553EC102BC3F30A5104469C4689BBD7
:1061E00010EE101A23F0004C5CEA010129D0194688
:1061F00000223D4B3D4D10EE100A00F037FAAC4244
:1062000002460B4616DB8C46C1F30A51363921444F
:1062100040F2FE70814221DC002947DC11F1350F8C
:1062200034DA4CF250318C4218DC002B26A1D1E933
:10623000000144DB24A3D3E9002300F017FA41EC6A
:10624000100B38BD40F2FF708142E0D110EE100A11
:10625000194600F055F841EC100B38BD002B1CA17D
:10626000D1E9000107DB1AA3D3E9002300F0FEF90E
:1062700041EC100B38BD18A1D1E9000114A3D3E9FA
:10628000002300F0F3F941EC100BF3E72CF0FF4C86
:106290002CF4E00C36314CEA01531046194600222A
:1062A000134B00F0E3F941EC100B38BD2CF0FF4C20
:1062B0002CF4E00C4CEA015343EC102B38BD08A140
:1062C000D1E90001B6E700BF59F3F8C21F6EA5017E
:1062D0009C7500883CE4377E9C7500883CE437FE62
:1062E00059F3F8C21F6EA58100005043B03CFFFF78
:1062F0000000903C81F0004102E000BF83F00043C9
:1063000030B54FEA41044FEA430594EA050F08BF50
:1063100090EA020F1FBF54EA000C55EA020C7FEA14
:10632000645C7FEA655C00F0E2804FEA5454D4EB91
:106330005555B8BF6D420CDD2C4480EA020281EA5B
:10634000030382EA000083EA010180EA020281EA93
:106350000303362D88BF30BD11F0004F4FEA0131E5
:106360004FF4801C4CEA113102D0404261EB4101F4
:1063700013F0004F4FEA03334CEA133302D052427A
:1063800063EB430394EA050F00F0A780A4F1010436
:10639000D5F1200E0DDB02FA0EFC22FA05F2801870
:1063A00041F1000103FA0EF2801843FA05F3594156
:1063B0000EE0A5F120050EF1200E012A03FA0EFCD5
:1063C00028BF4CF0020C43FA05F3C01851EBE371FF
:1063D00001F0004507D54FF0000EDCF1000C7EEB1C
:1063E00000006EEB0101B1F5801F1BD3B1F5001F5A
:1063F0000CD349085FEA30004FEA3C0C04F1010479
:106400004FEA445212F5800F80F09A80BCF1004FA1
:1064100008BF5FEA500C50F1000041EB045141EA23
:10642000050130BD5FEA4C0C404141EB0101013CEC
:1064300028BFB1F5801FE9D291F0000F04BF0146DB
:106440000020B1FA81F308BF2033A3F10B03B3F1AD
:1064500020020CDA0C3208DD02F1140CC2F10C023D
:1064600001FA0CF021FA02F10CE002F11402D8BF9B
:10647000C2F1200C01FA02F120FA0CFCDCBF41EA67
:106480000C019040E41AA2BF01EB0451294330BD36
:106490006FEA04041F3C1CDA0C340EDC04F1140413
:1064A000C4F1200220FA04F001FA02F340EA0300EA
:1064B00021FA04F345EA030130BDC4F10C04C4F130
:1064C000200220FA02F001FA04F340EA0300294610
:1064D00030BD21FA04F0294630BD94F0000F83F45A
:1064E000801306BF81F480110134013D4EE77FEA3D
:1064F000645C18BF7FEA655C29D094EA050F08BF89
:1065000090EA020F05D054EA000C04BF1946104669
:1065100030BD91EA030F1EBF0021002030BD5FEAAD
:10652000545C05D14000494128BF41F0004130BDD5
:1065300014F580043CBF01F5801130BD01F0004529
:1065400045F0FE4141F470014FF0000030BD7FEA9C
:10655000645C1ABF194610467FEA655C1CBF0B4697
:10656000024650EA013406BF52EA033591EA030FAE
:1065700041F4002130BD00BF90F0000F04BF0021A6
:10658000704730B54FF4806404F132044FF00005D9
:106590004FF0000150E700BF90F0000F04BF002152
:1065A000704730B54FF4806404F1320410F00045B8
:1065B00048BF40424FF000013EE700BF42004FEAB3
:1065C000E2014FEA31014FEA02701FBF12F07F4330
:1065D00093F07F4F81F06051704732F07F4208BFE7
:1065E000704793F07F4F04BF41F40021704730B5EE
:1065F0004FF4607401F0004521F000411CE700BF3A
:1066000050EA010208BF704730B54FF000050AE0BC
:1066100050EA010208BF704730B511F0004502D5BD
:10662000404261EB41014FF4806404F132045FEABF
:10663000915C3FF4D8AE4FF003025FEADC0C18BF68
:1066400003325FEADC0C18BF033202EBDC02C2F15A
:10665000200300FA03FC20FA02F001FA03FE40EAEC
:106660000E0021FA02F11444BDE600BF70B54FF0F0
:10667000FF0C4CF4E06C1CEA11541DBF1CEA1355CE
:1066800094EA0C0F95EA0C0F00F0DEF82C4481EA36
:10669000030621EA4C5123EA4C5350EA013518BF56
:1066A00052EA033541F4801143F4801338D0A0FB43
:1066B00002CE4FF00005E1FB02E506F00042E0FBF0
:1066C00003E54FF00006E1FB03569CF0000F18BFF6
:1066D0004EF0010EA4F1FF04B6F5007F64F540749E
:1066E00004D25FEA4E0E6D4146EB060642EAC62131
:1066F00041EA55514FEAC52040EA5E504FEACE2E9E
:10670000B4F1FD0C88BFBCF5E06F1ED8BEF1004FA0
:1067100008BF5FEA500E50F1000041EB045170BD1C
:1067200006F0004646EA010140EA020081EA030160
:10673000B4EB5C04C2BFD4EB0C0541EA045170BD5C
:1067400041F480114FF0000E013C00F3AB8014F1D6
:10675000360FDEBF002001F0004170BDC4F100041F
:10676000203C35DA0C341BDC04F11404C4F12005A0
:1067700000FA05F320FA04F001FA05F240EA0200FB
:1067800001F0004221F0004110EBD37021FA04F631
:1067900042EB06015EEA430E08BF20EAD37070BDEB
:1067A000C4F10C04C4F1200500FA04F320FA05F04A
:1067B00001FA04F240EA020001F0004110EBD3704C
:1067C00041F100015EEA430E08BF20EAD37070BDBC
:1067D000C4F1200500FA05F24EEA020E20FA04F395
:1067E00001FA05F243EA020321FA04F001F0004144
:1067F00021FA04F220EA020000EBD3705EEA430EB5
:1068000008BF20EAD37070BD94F0000F0FD101F0E3
:106810000046400041EB010111F4801F08BF013C1C
:10682000F7D041EA060195F0000F18BF704703F05A
:106830000046520043EB030313F4801F08BF013DE1
:10684000F7D043EA0603704794EA0C0F0CEA13559D
:1068500018BF95EA0C0F0CD050EA410618BF52EA57
:106860004306D1D181EA030101F000414FF000005D
:1068700070BD50EA410606BF1046194652EA43066B
:1068800019D094EA0C0F02D150EA013613D195EADF
:106890000C0F05D152EA03361CBF104619460AD127
:1068A00081EA030101F0004141F0FE4141F4700131
:1068B0004FF0000070BD41F0FE4141F4780170BD21
:1068C00070B54FF0FF0C4CF4E06C1CEA11541DBF86
:1068D0001CEA135594EA0C0F95EA0C0F00F0A7F888
:1068E000A4EB050481EA030E52EA03354FEA0131B5
:1068F00000F088804FEA03334FF0805545EA1313C8
:1069000043EA12634FEA022245EA111545EA10658F
:106910004FEA00260EF000419D4208BF964244F126
:10692000FD0404F5407402D25B084FEA3202B61A45
:1069300065EB03055B084FEA32024FF480104FF419
:10694000002CB6EB020E75EB030E22BFB61A75468D
:1069500040EA0C005B084FEA3202B6EB020E75EB20
:10696000030E22BFB61A754640EA5C005B084FEA88
:106970003202B6EB020E75EB030E22BFB61A754655
:1069800040EA9C005B084FEA3202B6EB020E75EB60
:10699000030E22BFB61A754640EADC0055EA060E21
:1069A00018D04FEA051545EA16754FEA06164FEA64
:1069B000C30343EA52734FEAC2025FEA1C1CC0D110
:1069C00011F4801F0BD141EA00014FF000004FF09D
:1069D000004CB6E711F4801F04BF01430020B4F15E
:1069E000FD0C88BFBCF5E06F3FF6AFAEB5EB030C16
:1069F00004BFB6EB020C5FEA500C50F1000041EB13
:106A0000045170BD0EF0004E4EEA113114EB5C04DF
:106A1000C2BFD4EB0C0541EA045170BD41F48011B2
:106A20004FF0000E013C90E645EA060E8DE60CEABA
:106A3000135594EA0C0F08BF95EA0C0F3FF43BAFD7
:106A400094EA0C0F0AD150EA01347FF434AF95EA8E
:106A50000C0F7FF425AF104619462CE795EA0C0F72
:106A600006D152EA03353FF4FDAE1046194622E73F
:106A700050EA410618BF52EA43067FF4C5AE50EA19
:106A800041047FF40DAF52EA43057FF4EBAE12E709
:106A90004FF0FF3C06E000BF4FF0010C02E000BFEA
:106AA0004FF0010C4DF804CD4FEA410C7FEA6C5CCD
:106AB0004FEA430C18BF7FEA6C5C1BD001B050EA70
:106AC000410C0CBF52EA430C91EA030F02BF90EA5B
:106AD000020F0020704710F1000F91EA030F58BF1A
:106AE000994208BF90422CBFD8176FEAE37040F07C
:106AF000010070474FEA410C7FEA6C5C02D150EA1A
:106B0000013C07D14FEA430C7FEA6C5CD6D152EAD4
:106B1000033CD3D05DF8040B704700BF8446104699
:106B200062468C461946634600E000BF01B5FFF798
:106B3000B7FF002848BF10F1000F01BD4DF808ED68
:106B4000FFF7F4FF0CBF012000205DF808FB00BF39
:106B50004DF808EDFFF7EAFF34BF012000205DF893
:106B600008FB00BF4DF808EDFFF7E0FF94BF0120E0
:106B700000205DF808FB00BF4DF808EDFFF7CEFFE1
:106B800094BF012000205DF808FB00BF4DF808ED20
:106B9000FFF7C4FF34BF012000205DF808FB00BFF1
:106BA0004FEA410212F5001215D211D56FF4787335
:106BB000B3EB625212D94FEAC12343F0004343EAD8
:106BC000505311F0004F23FA02F018BF40427047B3
:106BD0004FF00000704750EA013005D111F000403D
:106BE00008BF6FF0004070474FF00000704700BFD3
:106BF000002301461A46184600F04CB80A44914258
:106C000000F1FF3300D1704710B511F8014B03F8C4
:106C1000014F9142F9D110BD02440346934200D185
:106C2000704703F8011BF9E738B5104B1D68AB6BD3
:106C30000446B3B91820FDF78DFC0246A86320B9BD
:106C40000B4B0C484221FDF795FC0B490B4BC0E95F
:106C500000130B4B83600B23838100210120C2E9C9
:106C60000401AB6B00221C615A6138BD20E6032091
:106C7000C0700B00D7700B000E33CDAB34126DE635
:106C8000ECDE0500034613F8012B002AFBD1181A8D
:106C9000013870472DE9F843DFF8B8800646D8F888
:106CA00000001F460D46914600F056F8254B1C6823
:106CB00034B9254C1C60254B13B11B68C4F88830CF
:106CC00063681F2B07DDD8F8000000F047F84FF08D
:106CD000FF30BDE8F8834EB3D4F8880088B91C4B68
:106CE00023B9D8F8000000F038F8F0E74FF48470CA
:106CF000FDF730FC0028F4D00023C0E94033C4F88D
:106D00008800636840F8239001229A4000EB8301D9
:106D1000D0F800311343C0F80031022EC1F8807062
:106D200002BFD0F804311343C0F804316368D8F8C7
:106D300000005A1C0233626044F8235000F00EF841
:106D40000020C6E7E8E703205CE70320000000001E
:106D500055450B0084E603207047704770470000DC
:106D600021400B005D400B0085400B0089400B006B
:106D7000000000000000000000000000F3450B00D0
:106D8000E9450B00DF450B00D5450B00C9450B005D
:106D9000BD450B00214C0B00294C0B00B1450B00ED
:106DA000A9450B009F450B0095450B00594C0B0066
:106DB0006170700025592D256D2D25645425483AA4
:106DC000254D3A2553257A0061736374696D65001A
:106DD000000000000000000071480B0061480B003B
:106DE00063480B00000000000000000057490B0042
:106DF000BF490B0095490B0059460B0087490B0012
:106E000059490B0069490B00B9490B0079490B003E
:106E100051490B000000000000000000514A0B0027
:106E2000BD4A0B00954A0B0059460B00654A0B0002
:106E3000814A0B00734A0B008F4A0B00534A0B0028
:106E4000574A0B000000000000000000F54A0B004C
:106E50003F4B0B00174B0B00F74A0B001F4B0B006F
:106E6000274B0B002F4B0B00374B0B000000000093
:106E700000000000C34B0B00B94B0B00AF4B0B00E5
:106E8000714B0B00EB460B00A34B0B00214C0B008E
:106E9000294C0B00974B0B008F4B0B00854B0B00C5
:106EA0007B4B0B00594C0B00000000000000000061
:106EB000E14B0B00EB4B0B00F54B0B00FF4B0B00BA
:106EC000094C0B00154C0B00214C0B00294C0B00FE
:106ED000314C0B003D4C0B00454C0B004F4C0B0054
:106EE000594C0B0000000000FB21F93FFB21094039
:106EF0007CD91240FB2119407A6A1F407CD922407C
:106F0000BBFD2540FB2129403A462C407A6A2F40A0
:106F10005C4731407CD932409C6B3440BBFD3540EE
:106F2000DB8F3740FB2139401BB43A403A463C40A6
:106F30005AD83D407A6A3F404C7E40405C474140D1
:106F40006C1042407CD942408CA243409C6B444030
:106F5000AC344540BBFD4540CBC64640DB8F474087
:106F6000EB584840FB21494083F9A200444E6E0093
:106F7000FC291500D1572700DD34F50062DBC00085
:106F80003C999500419043006351FE00BBDEAB008D
:106F9000B761C5003A6E2400D24D42004906E000B8
:106FA00009EA2E001C92D100EB1DFE0029B11C0045
:106FB000E83EA700F535820044BB2E009CE9840022
:106FC000B4267000417E5F00D691390053833900AA
:106FD0009CF439008B5F840028F9BD00F81F3B004A
:106FE000DEFF97000F980500112FEF000A5A8B0063
:106FF0006D1F6D00CF7E360009CB2700464FB700CE
:107000009E663F002DEA5F00BA277500E5EBC700DA
:107010003D7BF100F739070092528A00FB6BEA00D2
:107020001FB15F00085D8D00300356007BFC4600F9
:10703000F0AB6B0020BCCF0036F49A00E3A91D0032
:107040005E619100081BE60085996500A0145F0051
:107050008D40680080D8FF0027734D000606310080
:10706000CA561500C9A873007BE260006B8CC00093
:1070700000000040FB21F93F000000002D44743E59
:10708000000000809846F83C0000006051CC783B3E
:1070900000000080831BF0390000004020257A3872
:1070A000000000802282E336000000001DF36935F5
:1070B00002000000030000000400000006000000C1
:1070C0005245454E54206D616C6C6F63207375633F
:1070D000636565646564002F6D6E742F776F726BE6
:1070E00073706163652F776F726B73706163652F67
:1070F0004743432D31302D706970656C696E652F83
:107100006A656E6B696E732D4743432D31302D7068
:107110006970656C696E652D34385F32303230319C
:107120003132345F313630363138303634312F73C6
:1071300072632F6E65776C69622F6E65776C69621A
:107140002F6C6962632F7374646C69622F72616E55
:10715000642E6300F5410B00FD450B0025460B0036
:1071600049460B00F9460B0009470B001D470B0071
:10717000CD4B0B00314D0B00000000000000000063
:04718000000000000B
:10718400C86D0B0024E6032000000000000000008E
:1071940000000000000000000000000000000000EB
:1071A40000000000000000000000000000000000DB
:1071B40000000000000000000000000000000000CB
:1071C40000000000000000000000000000000000BB
:1071D40000000000000000000000000000000000AB
:0C71E4000000000000000000ECE70320A9
:1071F000FFFFFFFF00000102030405060708090A5C
:107200000B0C0D0E0F101112131415161718191A56
:087210001B1C1D1E1F2028009D
:04721800785634125E
:04000003B0004020E9
:00000001FF
